{
  "contractName": "ContractIds",
  "abi": [
    {
      "constant": true,
      "inputs": [],
      "name": "BANCOR_CONVERTER_FACTORY",
      "outputs": [
        {
          "name": "",
          "type": "bytes32"
        }
      ],
      "payable": false,
      "stateMutability": "view",
      "type": "function"
    },
    {
      "constant": true,
      "inputs": [],
      "name": "BANCOR_FORMULA",
      "outputs": [
        {
          "name": "",
          "type": "bytes32"
        }
      ],
      "payable": false,
      "stateMutability": "view",
      "type": "function"
    },
    {
      "constant": true,
      "inputs": [],
      "name": "CONTRACT_FEATURES",
      "outputs": [
        {
          "name": "",
          "type": "bytes32"
        }
      ],
      "payable": false,
      "stateMutability": "view",
      "type": "function"
    },
    {
      "constant": true,
      "inputs": [],
      "name": "BANCOR_NETWORK",
      "outputs": [
        {
          "name": "",
          "type": "bytes32"
        }
      ],
      "payable": false,
      "stateMutability": "view",
      "type": "function"
    },
    {
      "constant": true,
      "inputs": [],
      "name": "BANCOR_GAS_PRICE_LIMIT",
      "outputs": [
        {
          "name": "",
          "type": "bytes32"
        }
      ],
      "payable": false,
      "stateMutability": "view",
      "type": "function"
    }
  ],
  "bytecode": "0x608060405234801561001057600080fd5b506101cc806100206000396000f30060806040526004361061006c5763ffffffff7c01000000000000000000000000000000000000000000000000000000006000350416635a46f06c81146100715780636d7bd3fc1461009857806383315b6e146100ad5780639232494e146100c25780639249993a146100d7575b600080fd5b34801561007d57600080fd5b506100866100ec565b60408051918252519081900360200190f35b3480156100a457600080fd5b50610086610110565b3480156100b957600080fd5b50610086610134565b3480156100ce57600080fd5b50610086610158565b3480156100e357600080fd5b5061008661017c565b7f42616e636f72436f6e766572746572466163746f72790000000000000000000081565b7f42616e636f72466f726d756c610000000000000000000000000000000000000081565b7f436f6e747261637446656174757265730000000000000000000000000000000081565b7f42616e636f724e6574776f726b0000000000000000000000000000000000000081565b7f42616e636f7247617350726963654c696d697400000000000000000000000000815600a165627a7a72305820d261e7aadcacb571e9770207f17305fba2882b7775f749b2d053d45a6501edaf0029",
  "source": "pragma solidity ^0.4.23;\r\n\r\n/**\r\n    Id definitions for bancor contracts\r\n\r\n    Can be used in conjunction with the contract registry to get contract addresses\r\n*/\r\ncontract ContractIds {\r\n    // generic\r\n    bytes32 public constant CONTRACT_FEATURES = \"ContractFeatures\";\r\n\r\n    // bancor logic\r\n    bytes32 public constant BANCOR_NETWORK = \"BancorNetwork\";\r\n    bytes32 public constant BANCOR_FORMULA = \"BancorFormula\";\r\n    bytes32 public constant BANCOR_GAS_PRICE_LIMIT = \"BancorGasPriceLimit\";\r\n    bytes32 public constant BANCOR_CONVERTER_FACTORY = \"BancorConverterFactory\";\r\n}\r\n",
  "sourcePath": "bancor-contracts\\solidity\\contracts\\ContractIds.sol",
  "compiler": {
    "name": "solc",
    "version": "0.4.24+commit.e67f0147.Emscripten.clang"
  },
  "schemaVersion": "2.0.1",
  "updatedAt": "2018-07-24T08:59:53.357Z"
}