{
  "contractName": "ContractFeatures",
  "abi": [
    {
      "inputs": [],
      "payable": false,
      "stateMutability": "nonpayable",
      "type": "constructor"
    },
    {
      "anonymous": false,
      "inputs": [
        {
          "indexed": true,
          "name": "_address",
          "type": "address"
        },
        {
          "indexed": false,
          "name": "_features",
          "type": "uint256"
        }
      ],
      "name": "FeaturesAddition",
      "type": "event"
    },
    {
      "anonymous": false,
      "inputs": [
        {
          "indexed": true,
          "name": "_address",
          "type": "address"
        },
        {
          "indexed": false,
          "name": "_features",
          "type": "uint256"
        }
      ],
      "name": "FeaturesRemoval",
      "type": "event"
    },
    {
      "constant": true,
      "inputs": [
        {
          "name": "_contract",
          "type": "address"
        },
        {
          "name": "_features",
          "type": "uint256"
        }
      ],
      "name": "isSupported",
      "outputs": [
        {
          "name": "",
          "type": "bool"
        }
      ],
      "payable": false,
      "stateMutability": "view",
      "type": "function"
    },
    {
      "constant": false,
      "inputs": [
        {
          "name": "_features",
          "type": "uint256"
        },
        {
          "name": "_enable",
          "type": "bool"
        }
      ],
      "name": "enableFeatures",
      "outputs": [],
      "payable": false,
      "stateMutability": "nonpayable",
      "type": "function"
    }
  ],
  "bytecode": "0x608060405234801561001057600080fd5b506101d8806100206000396000f30060806040526004361061004b5763ffffffff7c01000000000000000000000000000000000000000000000000000000006000350416632c7077c08114610050578063a5fbf2871461006f575b600080fd5b34801561005c57600080fd5b5061006d60043560243515156100b4565b005b34801561007b57600080fd5b506100a073ffffffffffffffffffffffffffffffffffffffff6004351660243561017e565b604080519115158252519081900360200190f35b801561011b576100c4338361017e565b156100ce5761017a565b3360008181526020818152604091829020805486179055815185815291517f461f0180592d0fa11ece082775c5b037a96f6a5418f3f23d4ee4ee063b5c1aac9281900390910190a261017a565b610125338361017e565b15156101305761017a565b336000818152602081815260409182902080548619169055815185815291517f903f96a6f8c316bb88b30f8b641bd2aa80b6e92732bab4d1accf30e1d6eba89c9281900390910190a25b5050565b73ffffffffffffffffffffffffffffffffffffffff91909116600090815260208190526040902054811614905600a165627a7a7230582054da95a17f2fb923ff6319adcea575db96e71f2b257fdbdca8bacb832705f6e80029",
  "source": "pragma solidity ^0.4.23;\r\nimport './interfaces/IContractFeatures.sol';\r\n\r\n/**\r\n    Contract Features\r\n\r\n    Generic contract that allows every contract on the blockchain to define which features it supports.\r\n    Other contracts can query this contract to find out whether a given contract on the\r\n    blockchain supports a certain feature.\r\n    Each contract type can define its own list of feature flags.\r\n    Features can be only enabled/disabled by the contract they are defined for.\r\n\r\n    Features should be defined by each contract type as bit flags, e.g. -\r\n    uint256 public constant FEATURE1 = 1 << 0;\r\n    uint256 public constant FEATURE2 = 1 << 1;\r\n    uint256 public constant FEATURE3 = 1 << 2;\r\n    ...\r\n*/\r\ncontract ContractFeatures is IContractFeatures {\r\n    mapping (address => uint256) private featureFlags;\r\n\r\n    event FeaturesAddition(address indexed _address, uint256 _features);\r\n    event FeaturesRemoval(address indexed _address, uint256 _features);\r\n\r\n    /**\r\n        @dev constructor\r\n    */\r\n    constructor() public {\r\n    }\r\n\r\n    /**\r\n        @dev returns true if a given contract supports the given feature(s), false if not\r\n\r\n        @param _contract    contract address to check support for\r\n        @param _features    feature(s) to check for\r\n\r\n        @return true if the contract supports the feature(s), false if not\r\n    */\r\n    function isSupported(address _contract, uint256 _features) public view returns (bool) {\r\n        return (featureFlags[_contract] & _features) == _features;\r\n    }\r\n\r\n    /**\r\n        @dev allows a contract to enable/disable certain feature(s)\r\n\r\n        @param _features    feature(s) to enable/disable\r\n        @param _enable      true to enable the feature(s), false to disabled them\r\n    */\r\n    function enableFeatures(uint256 _features, bool _enable) public {\r\n        if (_enable) {\r\n            if (isSupported(msg.sender, _features))\r\n                return;\r\n\r\n            featureFlags[msg.sender] |= _features;\r\n\r\n            emit FeaturesAddition(msg.sender, _features);\r\n        } else {\r\n            if (!isSupported(msg.sender, _features))\r\n                return;\r\n\r\n            featureFlags[msg.sender] &= ~_features;\r\n\r\n            emit FeaturesRemoval(msg.sender, _features);\r\n        }\r\n    }\r\n}\r\n",
  "sourcePath": "bancor-contracts/solidity/contracts/utility/ContractFeatures.sol",
  "compiler": {
    "name": "solc",
    "version": "0.4.24+commit.e67f0147.Emscripten.clang"
  },
  "schemaVersion": "2.0.1",
  "updatedAt": "2018-07-24T08:59:53.380Z"
}