{
  "contractName": "ControlledAccess",
  "abi": [
    {
      "constant": false,
      "inputs": [],
      "name": "renounceOwnership",
      "outputs": [],
      "payable": false,
      "stateMutability": "nonpayable",
      "type": "function"
    },
    {
      "constant": true,
      "inputs": [],
      "name": "owner",
      "outputs": [
        {
          "name": "",
          "type": "address"
        }
      ],
      "payable": false,
      "stateMutability": "view",
      "type": "function"
    },
    {
      "constant": false,
      "inputs": [
        {
          "name": "_newOwner",
          "type": "address"
        }
      ],
      "name": "transferOwnership",
      "outputs": [],
      "payable": false,
      "stateMutability": "nonpayable",
      "type": "function"
    },
    {
      "anonymous": false,
      "inputs": [
        {
          "indexed": true,
          "name": "previousOwner",
          "type": "address"
        }
      ],
      "name": "OwnershipRenounced",
      "type": "event"
    },
    {
      "anonymous": false,
      "inputs": [
        {
          "indexed": true,
          "name": "previousOwner",
          "type": "address"
        },
        {
          "indexed": true,
          "name": "newOwner",
          "type": "address"
        }
      ],
      "name": "OwnershipTransferred",
      "type": "event"
    },
    {
      "constant": true,
      "inputs": [
        {
          "name": "_add",
          "type": "address"
        },
        {
          "name": "_v",
          "type": "uint8"
        },
        {
          "name": "_r",
          "type": "bytes32"
        },
        {
          "name": "_s",
          "type": "bytes32"
        }
      ],
      "name": "isValidAccessMessage",
      "outputs": [
        {
          "name": "",
          "type": "bool"
        }
      ],
      "payable": false,
      "stateMutability": "view",
      "type": "function"
    }
  ],
  "bytecode": "0x608060405260008054600160a060020a03191633179055610570806100256000396000f3006080604052600436106100615763ffffffff7c0100000000000000000000000000000000000000000000000000000000600035041663326241148114610066578063715018a6146100b45780638da5cb5b146100cb578063f2fde38b14610109575b600080fd5b34801561007257600080fd5b506100a073ffffffffffffffffffffffffffffffffffffffff6004351660ff60243516604435606435610137565b604080519115158252519081900360200190f35b3480156100c057600080fd5b506100c96103b8565b005b3480156100d757600080fd5b506100e0610449565b6040805173ffffffffffffffffffffffffffffffffffffffff9092168252519081900360200190f35b34801561011557600080fd5b506100c973ffffffffffffffffffffffffffffffffffffffff60043516610465565b604080516c0100000000000000000000000030810260208084019190915273ffffffffffffffffffffffffffffffffffffffff88169091026034830152825160288184030181526048909201928390528151600093849392909182918401908083835b602083106101d757805182527fffffffffffffffffffffffffffffffffffffffffffffffffffffffffffffffe0909201916020918201910161019a565b51815160209384036101000a7fffffffffffffffffffffffffffffffffffffffffffffffffffffffffffffffff0180199092169116179052604080519290940182900382207f19457468657265756d205369676e6564204d6573736167653a0a33320000000083830152603c80840182905285518085039091018152605c909301948590528251909750600196509194508392508401908083835b602083106102af57805182527fffffffffffffffffffffffffffffffffffffffffffffffffffffffffffffffe09092019160209182019101610272565b51815160209384036101000a7fffffffffffffffffffffffffffffffffffffffffffffffffffffffffffffffff01801990921691161790526040805192909401829003822060008084528383018087529190915260ff8d1683860152606083018c9052608083018b9052935160a080840197509195507fffffffffffffffffffffffffffffffffffffffffffffffffffffffffffffffe081019492819003909101925090865af1158015610367573d6000803e3d6000fd5b50506040517fffffffffffffffffffffffffffffffffffffffffffffffffffffffffffffffe0015160005473ffffffffffffffffffffffffffffffffffffffff918216911614979650505050505050565b60005473ffffffffffffffffffffffffffffffffffffffff1633146103dc57600080fd5b6000805460405173ffffffffffffffffffffffffffffffffffffffff909116917ff8df31144d9c2f0f6b59d69b8b98abd5459d07f2742c4df920b25aae33c6482091a2600080547fffffffffffffffffffffffff0000000000000000000000000000000000000000169055565b60005473ffffffffffffffffffffffffffffffffffffffff1681565b60005473ffffffffffffffffffffffffffffffffffffffff16331461048957600080fd5b61049281610495565b50565b73ffffffffffffffffffffffffffffffffffffffff811615156104b757600080fd5b6000805460405173ffffffffffffffffffffffffffffffffffffffff808516939216917f8be0079c531659141344cd1fd0a4f28419497f9722a3daafe3b4186f6b6457e091a3600080547fffffffffffffffffffffffff00000000000000000000000000000000000000001673ffffffffffffffffffffffffffffffffffffffff929092169190911790555600a165627a7a72305820c618da242f8e2e8b07a2c4359dee6b55a445f5aec0c5dc1e4def24cb76d8f3e70029",
  "source": "pragma solidity ^0.4.24;\r\n\r\nimport \"openzeppelin-solidity/contracts/ownership/Ownable.sol\";\r\n\r\n/* @title ControlledAccess\r\n * @dev The ControlledAccess contract allows function to be restricted to users\r\n * that possess a signed authorization from the owner of the contract. This signed\r\n * message includes the user to give permission to and the contract address to prevent\r\n * reusing the same authorization message on different contract with same owner. \r\n */\r\ncontract ControlledAccess is Ownable {\r\n    \r\n    \r\n   /* \r\n    * @dev Requires msg.sender to have valid access message.\r\n    * @param _v ECDSA signature parameter v.\r\n    * @param _r ECDSA signature parameters r.\r\n    * @param _s ECDSA signature parameters s.\r\n    */\r\n    modifier onlyValidAccess(uint8 _v, bytes32 _r, bytes32 _s) \r\n    {\r\n        require(isValidAccessMessage(msg.sender,_v,_r,_s));\r\n        _;\r\n    }\r\n \r\n    /* \r\n    * @dev Verifies if message was signed by owner to give access to _add for this contract.\r\n    *      Assumes Geth signature prefix.\r\n    * @param _add Address of agent with access\r\n    * @param _v ECDSA signature parameter v.\r\n    * @param _r ECDSA signature parameters r.\r\n    * @param _s ECDSA signature parameters s.\r\n    * @return Validity of access message for a given address.\r\n    */\r\n    function isValidAccessMessage(\r\n        address _add,\r\n        uint8 _v, \r\n        bytes32 _r, \r\n        bytes32 _s) \r\n        view public returns (bool)\r\n    {\r\n        bytes32 hash = keccak256(abi.encodePacked(this, _add));\r\n        return owner == ecrecover(keccak256(abi.encodePacked(\"\\x19Ethereum Signed Message:\\n32\", hash)), _v, _r, _s);\r\n    }\r\n}",
  "sourcePath": "D:\\Vlad\\CryptoCurrency\\Truffle Projects\\Game_Starter\\contracts\\access\\ControlledAccess.sol",
  "compiler": {
    "name": "solc",
    "version": "0.4.24+commit.e67f0147.Emscripten.clang"
  },
  "schemaVersion": "2.0.1",
  "updatedAt": "2018-07-20T13:46:21.481Z"
}