{
  "contractName": "FeatureIds",
  "abi": [
    {
      "constant": true,
      "inputs": [],
      "name": "CONVERTER_CONVERSION_WHITELIST",
      "outputs": [
        {
          "name": "",
          "type": "uint256"
        }
      ],
      "payable": false,
      "stateMutability": "view",
      "type": "function"
    }
  ],
  "bytecode": "0x6080604052348015600f57600080fd5b5060988061001e6000396000f300608060405260043610603e5763ffffffff7c010000000000000000000000000000000000000000000000000000000060003504166392d1abb781146043575b600080fd5b348015604e57600080fd5b5060556067565b60408051918252519081900360200190f35b6001815600a165627a7a72305820c983a4d013af8035a4de196afc34bb045dee1cc54e9e232867c2ca3eaf5f07e40029",
  "source": "pragma solidity ^0.4.23;\r\n\r\n/**\r\n    Id definitions for bancor contract features\r\n\r\n    Can be used to query the ContractFeatures contract to check whether a certain feature is supported by a contract\r\n*/\r\ncontract FeatureIds {\r\n    // converter features\r\n    uint256 public constant CONVERTER_CONVERSION_WHITELIST = 1 << 0;\r\n}\r\n",
  "sourcePath": "bancor-contracts\\solidity\\contracts\\FeatureIds.sol",
  "compiler": {
    "name": "solc",
    "version": "0.4.24+commit.e67f0147.Emscripten.clang"
  },
  "schemaVersion": "2.0.1",
  "updatedAt": "2018-07-24T08:59:53.347Z"
}