{
  "contractName": "GameToken",
  "abi": [
    {
      "constant": true,
      "inputs": [],
      "name": "mintingFinished",
      "outputs": [
        {
          "name": "",
          "type": "bool"
        }
      ],
      "payable": false,
      "stateMutability": "view",
      "type": "function"
    },
    {
      "constant": true,
      "inputs": [],
      "name": "name",
      "outputs": [
        {
          "name": "",
          "type": "string"
        }
      ],
      "payable": false,
      "stateMutability": "view",
      "type": "function"
    },
    {
      "constant": false,
      "inputs": [
        {
          "name": "_spender",
          "type": "address"
        },
        {
          "name": "_value",
          "type": "uint256"
        }
      ],
      "name": "approve",
      "outputs": [
        {
          "name": "",
          "type": "bool"
        }
      ],
      "payable": false,
      "stateMutability": "nonpayable",
      "type": "function"
    },
    {
      "constant": false,
      "inputs": [
        {
          "name": "token",
          "type": "address"
        }
      ],
      "name": "reclaimToken",
      "outputs": [],
      "payable": false,
      "stateMutability": "nonpayable",
      "type": "function"
    },
    {
      "constant": true,
      "inputs": [],
      "name": "totalSupply",
      "outputs": [
        {
          "name": "",
          "type": "uint256"
        }
      ],
      "payable": false,
      "stateMutability": "view",
      "type": "function"
    },
    {
      "constant": false,
      "inputs": [
        {
          "name": "_from",
          "type": "address"
        },
        {
          "name": "_to",
          "type": "address"
        },
        {
          "name": "_value",
          "type": "uint256"
        }
      ],
      "name": "transferFrom",
      "outputs": [
        {
          "name": "",
          "type": "bool"
        }
      ],
      "payable": false,
      "stateMutability": "nonpayable",
      "type": "function"
    },
    {
      "constant": false,
      "inputs": [
        {
          "name": "contractAddr",
          "type": "address"
        }
      ],
      "name": "reclaimContract",
      "outputs": [],
      "payable": false,
      "stateMutability": "nonpayable",
      "type": "function"
    },
    {
      "constant": true,
      "inputs": [],
      "name": "decimals",
      "outputs": [
        {
          "name": "",
          "type": "uint8"
        }
      ],
      "payable": false,
      "stateMutability": "view",
      "type": "function"
    },
    {
      "constant": false,
      "inputs": [],
      "name": "unpause",
      "outputs": [],
      "payable": false,
      "stateMutability": "nonpayable",
      "type": "function"
    },
    {
      "constant": false,
      "inputs": [
        {
          "name": "_to",
          "type": "address"
        },
        {
          "name": "_amount",
          "type": "uint256"
        }
      ],
      "name": "mint",
      "outputs": [
        {
          "name": "",
          "type": "bool"
        }
      ],
      "payable": false,
      "stateMutability": "nonpayable",
      "type": "function"
    },
    {
      "constant": false,
      "inputs": [
        {
          "name": "_value",
          "type": "uint256"
        }
      ],
      "name": "burn",
      "outputs": [],
      "payable": false,
      "stateMutability": "nonpayable",
      "type": "function"
    },
    {
      "constant": true,
      "inputs": [],
      "name": "paused",
      "outputs": [
        {
          "name": "",
          "type": "bool"
        }
      ],
      "payable": false,
      "stateMutability": "view",
      "type": "function"
    },
    {
      "constant": false,
      "inputs": [
        {
          "name": "_spender",
          "type": "address"
        },
        {
          "name": "_subtractedValue",
          "type": "uint256"
        }
      ],
      "name": "decreaseApproval",
      "outputs": [
        {
          "name": "success",
          "type": "bool"
        }
      ],
      "payable": false,
      "stateMutability": "nonpayable",
      "type": "function"
    },
    {
      "constant": true,
      "inputs": [
        {
          "name": "_owner",
          "type": "address"
        }
      ],
      "name": "balanceOf",
      "outputs": [
        {
          "name": "",
          "type": "uint256"
        }
      ],
      "payable": false,
      "stateMutability": "view",
      "type": "function"
    },
    {
      "constant": false,
      "inputs": [],
      "name": "renounceOwnership",
      "outputs": [],
      "payable": false,
      "stateMutability": "nonpayable",
      "type": "function"
    },
    {
      "constant": false,
      "inputs": [],
      "name": "finishMinting",
      "outputs": [
        {
          "name": "",
          "type": "bool"
        }
      ],
      "payable": false,
      "stateMutability": "nonpayable",
      "type": "function"
    },
    {
      "constant": false,
      "inputs": [],
      "name": "pause",
      "outputs": [],
      "payable": false,
      "stateMutability": "nonpayable",
      "type": "function"
    },
    {
      "constant": true,
      "inputs": [],
      "name": "owner",
      "outputs": [
        {
          "name": "",
          "type": "address"
        }
      ],
      "payable": false,
      "stateMutability": "view",
      "type": "function"
    },
    {
      "constant": true,
      "inputs": [],
      "name": "symbol",
      "outputs": [
        {
          "name": "",
          "type": "string"
        }
      ],
      "payable": false,
      "stateMutability": "view",
      "type": "function"
    },
    {
      "constant": false,
      "inputs": [],
      "name": "reclaimEther",
      "outputs": [],
      "payable": false,
      "stateMutability": "nonpayable",
      "type": "function"
    },
    {
      "constant": false,
      "inputs": [
        {
          "name": "_to",
          "type": "address"
        },
        {
          "name": "_value",
          "type": "uint256"
        }
      ],
      "name": "transfer",
      "outputs": [
        {
          "name": "",
          "type": "bool"
        }
      ],
      "payable": false,
      "stateMutability": "nonpayable",
      "type": "function"
    },
    {
      "constant": false,
      "inputs": [
        {
          "name": "from_",
          "type": "address"
        },
        {
          "name": "value_",
          "type": "uint256"
        },
        {
          "name": "data_",
          "type": "bytes"
        }
      ],
      "name": "tokenFallback",
      "outputs": [],
      "payable": false,
      "stateMutability": "nonpayable",
      "type": "function"
    },
    {
      "constant": false,
      "inputs": [
        {
          "name": "_spender",
          "type": "address"
        },
        {
          "name": "_addedValue",
          "type": "uint256"
        }
      ],
      "name": "increaseApproval",
      "outputs": [
        {
          "name": "success",
          "type": "bool"
        }
      ],
      "payable": false,
      "stateMutability": "nonpayable",
      "type": "function"
    },
    {
      "constant": true,
      "inputs": [
        {
          "name": "_owner",
          "type": "address"
        },
        {
          "name": "_spender",
          "type": "address"
        }
      ],
      "name": "allowance",
      "outputs": [
        {
          "name": "",
          "type": "uint256"
        }
      ],
      "payable": false,
      "stateMutability": "view",
      "type": "function"
    },
    {
      "constant": false,
      "inputs": [
        {
          "name": "_newOwner",
          "type": "address"
        }
      ],
      "name": "transferOwnership",
      "outputs": [],
      "payable": false,
      "stateMutability": "nonpayable",
      "type": "function"
    },
    {
      "inputs": [
        {
          "name": "_name",
          "type": "string"
        },
        {
          "name": "_symbol",
          "type": "string"
        }
      ],
      "payable": false,
      "stateMutability": "nonpayable",
      "type": "constructor"
    },
    {
      "payable": false,
      "stateMutability": "nonpayable",
      "type": "fallback"
    },
    {
      "anonymous": false,
      "inputs": [
        {
          "indexed": true,
          "name": "to",
          "type": "address"
        },
        {
          "indexed": false,
          "name": "amount",
          "type": "uint256"
        }
      ],
      "name": "Mint",
      "type": "event"
    },
    {
      "anonymous": false,
      "inputs": [],
      "name": "MintFinished",
      "type": "event"
    },
    {
      "anonymous": false,
      "inputs": [
        {
          "indexed": true,
          "name": "burner",
          "type": "address"
        },
        {
          "indexed": false,
          "name": "value",
          "type": "uint256"
        }
      ],
      "name": "Burn",
      "type": "event"
    },
    {
      "anonymous": false,
      "inputs": [],
      "name": "Pause",
      "type": "event"
    },
    {
      "anonymous": false,
      "inputs": [],
      "name": "Unpause",
      "type": "event"
    },
    {
      "anonymous": false,
      "inputs": [
        {
          "indexed": true,
          "name": "previousOwner",
          "type": "address"
        }
      ],
      "name": "OwnershipRenounced",
      "type": "event"
    },
    {
      "anonymous": false,
      "inputs": [
        {
          "indexed": true,
          "name": "previousOwner",
          "type": "address"
        },
        {
          "indexed": true,
          "name": "newOwner",
          "type": "address"
        }
      ],
      "name": "OwnershipTransferred",
      "type": "event"
    },
    {
      "anonymous": false,
      "inputs": [
        {
          "indexed": true,
          "name": "owner",
          "type": "address"
        },
        {
          "indexed": true,
          "name": "spender",
          "type": "address"
        },
        {
          "indexed": false,
          "name": "value",
          "type": "uint256"
        }
      ],
      "name": "Approval",
      "type": "event"
    },
    {
      "anonymous": false,
      "inputs": [
        {
          "indexed": true,
          "name": "from",
          "type": "address"
        },
        {
          "indexed": true,
          "name": "to",
          "type": "address"
        },
        {
          "indexed": false,
          "name": "value",
          "type": "uint256"
        }
      ],
      "name": "Transfer",
      "type": "event"
    }
  ],
  "bytecode": "0x60806040526003805460a060020a60ff02191690556006805461ff00191690553480156200002c57600080fd5b50604051620018963803806200189683398101604052805160208083015160038054600160a060020a0319163317905591830180519093929092019183918391601291849184918491620000879160049190860190620000f3565b5081516200009d906005906020850190620000f3565b506006805460ff191660ff9290921691909117905550503415620000c057600080fd5b50506003805460a060020a60ff021916740100000000000000000000000000000000000000001790555062000198915050565b828054600181600116156101000203166002900490600052602060002090601f016020900481019282601f106200013657805160ff191683800117855562000166565b8280016001018555821562000166579182015b828111156200016657825182559160200191906001019062000149565b506200017492915062000178565b5090565b6200019591905b808211156200017457600081556001016200017f565b90565b6116ee80620001a86000396000f3006080604052600436106101485763ffffffff7c010000000000000000000000000000000000000000000000000000000060003504166305d2035b811461015757806306fdde0314610180578063095ea7b31461020a57806317ffc3201461023b57806318160ddd1461026b57806323b872dd146102925780632aed7f3f146102c9578063313ce567146102f75780633f4ba83a1461032257806340c10f191461033757806342966c68146103685780635c975abb14610380578063661884631461039557806370a08231146103c6578063715018a6146103f45780637d64bcb4146104095780638456cb591461041e5780638da5cb5b1461043357806395d89b41146104715780639f727c2714610486578063a9059cbb1461049b578063c0ee0b8a146104cc578063d73dd6231461050a578063dd62ed3e1461053b578063f2fde38b1461056f575b34801561015457600080fd5b50005b34801561016357600080fd5b5061016c61059d565b604080519115158252519081900360200190f35b34801561018c57600080fd5b506101956105ab565b6040805160208082528351818301528351919283929083019185019080838360005b838110156101cf5781810151838201526020016101b7565b50505050905090810190601f1680156101fc5780820380516001836020036101000a031916815260200191505b509250505060405180910390f35b34801561021657600080fd5b5061016c73ffffffffffffffffffffffffffffffffffffffff60043516602435610657565b34801561024757600080fd5b5061026973ffffffffffffffffffffffffffffffffffffffff60043516610693565b005b34801561027757600080fd5b50610280610788565b60408051918252519081900360200190f35b34801561029e57600080fd5b5061016c73ffffffffffffffffffffffffffffffffffffffff6004358116906024351660443561078e565b3480156102d557600080fd5b5061026973ffffffffffffffffffffffffffffffffffffffff600435166107cc565b34801561030357600080fd5b5061030c610884565b6040805160ff9092168252519081900360200190f35b34801561032e57600080fd5b5061026961088d565b34801561034357600080fd5b5061016c73ffffffffffffffffffffffffffffffffffffffff6004351660243561092d565b34801561037457600080fd5b50610269600435610a69565b34801561038c57600080fd5b5061016c610a76565b3480156103a157600080fd5b5061016c73ffffffffffffffffffffffffffffffffffffffff60043516602435610a97565b3480156103d257600080fd5b5061028073ffffffffffffffffffffffffffffffffffffffff60043516610acc565b34801561040057600080fd5b50610269610af4565b34801561041557600080fd5b5061016c610b87565b34801561042a57600080fd5b50610269610c1e565b34801561043f57600080fd5b50610448610cd4565b6040805173ffffffffffffffffffffffffffffffffffffffff9092168252519081900360200190f35b34801561047d57600080fd5b50610195610cf0565b34801561049257600080fd5b50610269610d69565b3480156104a757600080fd5b5061016c73ffffffffffffffffffffffffffffffffffffffff60043516602435610dd4565b3480156104d857600080fd5b506102696004803573ffffffffffffffffffffffffffffffffffffffff16906024803591604435918201910135610e09565b34801561051657600080fd5b5061016c73ffffffffffffffffffffffffffffffffffffffff60043516602435610e0e565b34801561054757600080fd5b5061028073ffffffffffffffffffffffffffffffffffffffff60043581169060243516610e43565b34801561057b57600080fd5b5061026973ffffffffffffffffffffffffffffffffffffffff60043516610e7b565b600654610100900460ff1681565b6004805460408051602060026001851615610100027fffffffffffffffffffffffffffffffffffffffffffffffffffffffffffffffff0190941693909304601f8101849004840282018401909252818152929183018282801561064f5780601f106106245761010080835404028352916020019161064f565b820191906000526020600020905b81548152906001019060200180831161063257829003601f168201915b505050505081565b60035460009074010000000000000000000000000000000000000000900460ff161561068257600080fd5b61068c8383610ea8565b9392505050565b60035460009073ffffffffffffffffffffffffffffffffffffffff1633146106ba57600080fd5b604080517f70a08231000000000000000000000000000000000000000000000000000000008152306004820152905173ffffffffffffffffffffffffffffffffffffffff8416916370a082319160248083019260209291908290030181600087803b15801561072857600080fd5b505af115801561073c573d6000803e3d6000fd5b505050506040513d602081101561075257600080fd5b50516003549091506107849073ffffffffffffffffffffffffffffffffffffffff84811691168363ffffffff610f1b16565b5050565b60015490565b60035460009074010000000000000000000000000000000000000000900460ff16156107b957600080fd5b6107c4848484610ffa565b949350505050565b60035460009073ffffffffffffffffffffffffffffffffffffffff1633146107f357600080fd5b50600354604080517ff2fde38b00000000000000000000000000000000000000000000000000000000815273ffffffffffffffffffffffffffffffffffffffff92831660048201529051839283169163f2fde38b91602480830192600092919082900301818387803b15801561086857600080fd5b505af115801561087c573d6000803e3d6000fd5b505050505050565b60065460ff1681565b60035473ffffffffffffffffffffffffffffffffffffffff1633146108b157600080fd5b60035474010000000000000000000000000000000000000000900460ff1615156108da57600080fd5b600380547fffffffffffffffffffffff00ffffffffffffffffffffffffffffffffffffffff1690556040517f7805862f689e2f13df9f062ff482ad3ad112aca9e0847911ed832e158c525b3390600090a1565b60035460009073ffffffffffffffffffffffffffffffffffffffff16331461095457600080fd5b600654610100900460ff161561096957600080fd5b60015461097c908363ffffffff6111cc16565b60015573ffffffffffffffffffffffffffffffffffffffff83166000908152602081905260409020546109b5908363ffffffff6111cc16565b73ffffffffffffffffffffffffffffffffffffffff841660008181526020818152604091829020939093558051858152905191927f0f6798a560793a54c3bcfe86a93cde1e73087d944c0ea20544137d412139688592918290030190a260408051838152905173ffffffffffffffffffffffffffffffffffffffff8516916000917fddf252ad1be2c89b69c2b068fc378daa952ba7f163c4a11628f55a4df523b3ef9181900360200190a350600192915050565b610a7333826111df565b50565b60035474010000000000000000000000000000000000000000900460ff1681565b60035460009074010000000000000000000000000000000000000000900460ff1615610ac257600080fd5b61068c8383611321565b73ffffffffffffffffffffffffffffffffffffffff1660009081526020819052604090205490565b60035473ffffffffffffffffffffffffffffffffffffffff163314610b1857600080fd5b60035460405173ffffffffffffffffffffffffffffffffffffffff909116907ff8df31144d9c2f0f6b59d69b8b98abd5459d07f2742c4df920b25aae33c6482090600090a2600380547fffffffffffffffffffffffff0000000000000000000000000000000000000000169055565b60035460009073ffffffffffffffffffffffffffffffffffffffff163314610bae57600080fd5b600654610100900460ff1615610bc357600080fd5b600680547fffffffffffffffffffffffffffffffffffffffffffffffffffffffffffff00ff166101001790556040517fae5184fba832cb2b1f702aca6117b8d265eaf03ad33eb133f19dde0f5920fa0890600090a150600190565b60035473ffffffffffffffffffffffffffffffffffffffff163314610c4257600080fd5b60035474010000000000000000000000000000000000000000900460ff1615610c6a57600080fd5b600380547fffffffffffffffffffffff00ffffffffffffffffffffffffffffffffffffffff16740100000000000000000000000000000000000000001790556040517f6985a02210a168e66602d3235cb6db0e70f92b3ba4d376a33c0f3d9434bff62590600090a1565b60035473ffffffffffffffffffffffffffffffffffffffff1681565b6005805460408051602060026001851615610100027fffffffffffffffffffffffffffffffffffffffffffffffffffffffffffffffff0190941693909304601f8101849004840282018401909252818152929183018282801561064f5780601f106106245761010080835404028352916020019161064f565b60035473ffffffffffffffffffffffffffffffffffffffff163314610d8d57600080fd5b60035460405173ffffffffffffffffffffffffffffffffffffffff90911690303180156108fc02916000818181858888f19350505050158015610a73573d6000803e3d6000fd5b60035460009074010000000000000000000000000000000000000000900460ff1615610dff57600080fd5b61068c8383611445565b600080fd5b60035460009074010000000000000000000000000000000000000000900460ff1615610e3957600080fd5b61068c838361154d565b73ffffffffffffffffffffffffffffffffffffffff918216600090815260026020908152604080832093909416825291909152205490565b60035473ffffffffffffffffffffffffffffffffffffffff163314610e9f57600080fd5b610a7381611600565b33600081815260026020908152604080832073ffffffffffffffffffffffffffffffffffffffff8716808552908352818420869055815186815291519394909390927f8c5be1e5ebec7d5bd14f71427d1e84f3dd0314c0f7b2291e5b200ac8c7c3b925928290030190a350600192915050565b8273ffffffffffffffffffffffffffffffffffffffff1663a9059cbb83836040518363ffffffff167c0100000000000000000000000000000000000000000000000000000000028152600401808373ffffffffffffffffffffffffffffffffffffffff1673ffffffffffffffffffffffffffffffffffffffff16815260200182815260200192505050602060405180830381600087803b158015610fbe57600080fd5b505af1158015610fd2573d6000803e3d6000fd5b505050506040513d6020811015610fe857600080fd5b50511515610ff557600080fd5b505050565b600073ffffffffffffffffffffffffffffffffffffffff8316151561101e57600080fd5b73ffffffffffffffffffffffffffffffffffffffff841660009081526020819052604090205482111561105057600080fd5b73ffffffffffffffffffffffffffffffffffffffff8416600090815260026020908152604080832033845290915290205482111561108d57600080fd5b73ffffffffffffffffffffffffffffffffffffffff84166000908152602081905260409020546110c3908363ffffffff6116b016565b73ffffffffffffffffffffffffffffffffffffffff8086166000908152602081905260408082209390935590851681522054611105908363ffffffff6111cc16565b73ffffffffffffffffffffffffffffffffffffffff808516600090815260208181526040808320949094559187168152600282528281203382529091522054611154908363ffffffff6116b016565b73ffffffffffffffffffffffffffffffffffffffff808616600081815260026020908152604080832033845282529182902094909455805186815290519287169391927fddf252ad1be2c89b69c2b068fc378daa952ba7f163c4a11628f55a4df523b3ef929181900390910190a35060019392505050565b818101828110156111d957fe5b92915050565b73ffffffffffffffffffffffffffffffffffffffff821660009081526020819052604090205481111561121157600080fd5b73ffffffffffffffffffffffffffffffffffffffff8216600090815260208190526040902054611247908263ffffffff6116b016565b73ffffffffffffffffffffffffffffffffffffffff8316600090815260208190526040902055600154611280908263ffffffff6116b016565b60015560408051828152905173ffffffffffffffffffffffffffffffffffffffff8416917fcc16f5dbb4873280815c1ee09dbd06736cffcc184412cf7a71a0fdb75d397ca5919081900360200190a260408051828152905160009173ffffffffffffffffffffffffffffffffffffffff8516917fddf252ad1be2c89b69c2b068fc378daa952ba7f163c4a11628f55a4df523b3ef9181900360200190a35050565b33600090815260026020908152604080832073ffffffffffffffffffffffffffffffffffffffff86168452909152812054808311156113905733600090815260026020908152604080832073ffffffffffffffffffffffffffffffffffffffff881684529091528120556113d2565b6113a0818463ffffffff6116b016565b33600090815260026020908152604080832073ffffffffffffffffffffffffffffffffffffffff891684529091529020555b33600081815260026020908152604080832073ffffffffffffffffffffffffffffffffffffffff89168085529083529281902054815190815290519293927f8c5be1e5ebec7d5bd14f71427d1e84f3dd0314c0f7b2291e5b200ac8c7c3b925929181900390910190a35060019392505050565b600073ffffffffffffffffffffffffffffffffffffffff8316151561146957600080fd5b3360009081526020819052604090205482111561148557600080fd5b336000908152602081905260409020546114a5908363ffffffff6116b016565b336000908152602081905260408082209290925573ffffffffffffffffffffffffffffffffffffffff8516815220546114e4908363ffffffff6111cc16565b73ffffffffffffffffffffffffffffffffffffffff8416600081815260208181526040918290209390935580518581529051919233927fddf252ad1be2c89b69c2b068fc378daa952ba7f163c4a11628f55a4df523b3ef9281900390910190a350600192915050565b33600090815260026020908152604080832073ffffffffffffffffffffffffffffffffffffffff8616845290915281205461158e908363ffffffff6111cc16565b33600081815260026020908152604080832073ffffffffffffffffffffffffffffffffffffffff89168085529083529281902085905580519485525191937f8c5be1e5ebec7d5bd14f71427d1e84f3dd0314c0f7b2291e5b200ac8c7c3b925929081900390910190a350600192915050565b73ffffffffffffffffffffffffffffffffffffffff8116151561162257600080fd5b60035460405173ffffffffffffffffffffffffffffffffffffffff8084169216907f8be0079c531659141344cd1fd0a4f28419497f9722a3daafe3b4186f6b6457e090600090a3600380547fffffffffffffffffffffffff00000000000000000000000000000000000000001673ffffffffffffffffffffffffffffffffffffffff92909216919091179055565b6000828211156116bc57fe5b509003905600a165627a7a723058209981720f99a884b1f48b3d3405c113af3d39a1cc28d6a8299febd77a406bbbfa0029",
  "source": "pragma solidity ^0.4.24;\r\n\r\nimport \"./BaseToken.sol\";\r\n\r\n/**\r\n * @title GameToken\r\n * @dev Game Token - base token for all game starter games\r\n * Inherited from BaseToken\r\n * When deployed will start with a paused state until crowdsale is finished.\r\n */\r\ncontract GameToken is BaseToken\r\n{\r\n    /**\r\n    * @dev Constructor that pauses the token at the start until the end of the crowdsale\r\n    */\r\n    constructor(string _name, string _symbol) public BaseToken(_name, _symbol, 18) {\r\n        paused = true;\r\n    }\r\n}",
  "sourcePath": "D:\\Vlad\\CryptoCurrency\\Truffle Projects\\Game_Starter\\contracts\\token\\GameToken.sol",
  "compiler": {
    "name": "solc",
    "version": "0.4.24+commit.e67f0147.Emscripten.clang"
  },
  "schemaVersion": "2.0.1",
  "updatedAt": "2018-07-24T08:59:53.341Z"
}