{
  "contractName": "GameTokenCrowdsale",
  "abi": [
    {
      "constant": true,
      "inputs": [
        {
          "name": "_operator",
          "type": "address"
        },
        {
          "name": "_role",
          "type": "string"
        }
      ],
      "name": "checkRole",
      "outputs": [],
      "payable": false,
      "stateMutability": "view",
      "type": "function"
    },
    {
      "constant": false,
      "inputs": [
        {
          "name": "_bouncer",
          "type": "address"
        }
      ],
      "name": "removeBouncer",
      "outputs": [],
      "payable": false,
      "stateMutability": "nonpayable",
      "type": "function"
    },
    {
      "constant": true,
      "inputs": [],
      "name": "hasClosed",
      "outputs": [
        {
          "name": "",
          "type": "bool"
        }
      ],
      "payable": false,
      "stateMutability": "view",
      "type": "function"
    },
    {
      "constant": true,
      "inputs": [],
      "name": "ROLE_WHITELISTED",
      "outputs": [
        {
          "name": "",
          "type": "string"
        }
      ],
      "payable": false,
      "stateMutability": "view",
      "type": "function"
    },
    {
      "constant": true,
      "inputs": [
        {
          "name": "_operator",
          "type": "address"
        },
        {
          "name": "_role",
          "type": "string"
        }
      ],
      "name": "hasRole",
      "outputs": [
        {
          "name": "",
          "type": "bool"
        }
      ],
      "payable": false,
      "stateMutability": "view",
      "type": "function"
    },
    {
      "constant": false,
      "inputs": [
        {
          "name": "_operators",
          "type": "address[]"
        }
      ],
      "name": "removeAddressesFromWhitelist",
      "outputs": [],
      "payable": false,
      "stateMutability": "nonpayable",
      "type": "function"
    },
    {
      "constant": false,
      "inputs": [
        {
          "name": "_operator",
          "type": "address"
        }
      ],
      "name": "removeAddressFromWhitelist",
      "outputs": [],
      "payable": false,
      "stateMutability": "nonpayable",
      "type": "function"
    },
    {
      "constant": true,
      "inputs": [],
      "name": "rate",
      "outputs": [
        {
          "name": "",
          "type": "uint256"
        }
      ],
      "payable": false,
      "stateMutability": "view",
      "type": "function"
    },
    {
      "constant": true,
      "inputs": [],
      "name": "goal",
      "outputs": [
        {
          "name": "",
          "type": "uint256"
        }
      ],
      "payable": false,
      "stateMutability": "view",
      "type": "function"
    },
    {
      "constant": true,
      "inputs": [],
      "name": "weiRaised",
      "outputs": [
        {
          "name": "",
          "type": "uint256"
        }
      ],
      "payable": false,
      "stateMutability": "view",
      "type": "function"
    },
    {
      "constant": true,
      "inputs": [],
      "name": "closingTime",
      "outputs": [
        {
          "name": "",
          "type": "uint256"
        }
      ],
      "payable": false,
      "stateMutability": "view",
      "type": "function"
    },
    {
      "constant": false,
      "inputs": [],
      "name": "finalize",
      "outputs": [],
      "payable": false,
      "stateMutability": "nonpayable",
      "type": "function"
    },
    {
      "constant": true,
      "inputs": [],
      "name": "wallet",
      "outputs": [
        {
          "name": "",
          "type": "address"
        }
      ],
      "payable": false,
      "stateMutability": "view",
      "type": "function"
    },
    {
      "constant": false,
      "inputs": [],
      "name": "renounceOwnership",
      "outputs": [],
      "payable": false,
      "stateMutability": "nonpayable",
      "type": "function"
    },
    {
      "constant": false,
      "inputs": [
        {
          "name": "_operator",
          "type": "address"
        }
      ],
      "name": "addAddressToWhitelist",
      "outputs": [],
      "payable": false,
      "stateMutability": "nonpayable",
      "type": "function"
    },
    {
      "constant": true,
      "inputs": [],
      "name": "goalReached",
      "outputs": [
        {
          "name": "",
          "type": "bool"
        }
      ],
      "payable": false,
      "stateMutability": "view",
      "type": "function"
    },
    {
      "constant": true,
      "inputs": [],
      "name": "feePercent",
      "outputs": [
        {
          "name": "",
          "type": "uint8"
        }
      ],
      "payable": false,
      "stateMutability": "view",
      "type": "function"
    },
    {
      "constant": false,
      "inputs": [
        {
          "name": "_bouncer",
          "type": "address"
        }
      ],
      "name": "addBouncer",
      "outputs": [],
      "payable": false,
      "stateMutability": "nonpayable",
      "type": "function"
    },
    {
      "constant": true,
      "inputs": [],
      "name": "isFinalized",
      "outputs": [
        {
          "name": "",
          "type": "bool"
        }
      ],
      "payable": false,
      "stateMutability": "view",
      "type": "function"
    },
    {
      "constant": true,
      "inputs": [],
      "name": "owner",
      "outputs": [
        {
          "name": "",
          "type": "address"
        }
      ],
      "payable": false,
      "stateMutability": "view",
      "type": "function"
    },
    {
      "constant": false,
      "inputs": [
        {
          "name": "_beneficiary",
          "type": "address"
        },
        {
          "name": "_sig",
          "type": "bytes"
        }
      ],
      "name": "buyTokensSigned",
      "outputs": [],
      "payable": true,
      "stateMutability": "payable",
      "type": "function"
    },
    {
      "constant": true,
      "inputs": [
        {
          "name": "_operator",
          "type": "address"
        }
      ],
      "name": "whitelist",
      "outputs": [
        {
          "name": "",
          "type": "bool"
        }
      ],
      "payable": false,
      "stateMutability": "view",
      "type": "function"
    },
    {
      "constant": false,
      "inputs": [],
      "name": "claimRefund",
      "outputs": [],
      "payable": false,
      "stateMutability": "nonpayable",
      "type": "function"
    },
    {
      "constant": true,
      "inputs": [],
      "name": "openingTime",
      "outputs": [
        {
          "name": "",
          "type": "uint256"
        }
      ],
      "payable": false,
      "stateMutability": "view",
      "type": "function"
    },
    {
      "constant": true,
      "inputs": [],
      "name": "ROLE_BOUNCER",
      "outputs": [
        {
          "name": "",
          "type": "string"
        }
      ],
      "payable": false,
      "stateMutability": "view",
      "type": "function"
    },
    {
      "constant": false,
      "inputs": [
        {
          "name": "_operators",
          "type": "address[]"
        }
      ],
      "name": "addAddressesToWhitelist",
      "outputs": [],
      "payable": false,
      "stateMutability": "nonpayable",
      "type": "function"
    },
    {
      "constant": false,
      "inputs": [
        {
          "name": "_beneficiary",
          "type": "address"
        }
      ],
      "name": "buyTokens",
      "outputs": [],
      "payable": true,
      "stateMutability": "payable",
      "type": "function"
    },
    {
      "constant": true,
      "inputs": [],
      "name": "feeWallet",
      "outputs": [
        {
          "name": "",
          "type": "address"
        }
      ],
      "payable": false,
      "stateMutability": "view",
      "type": "function"
    },
    {
      "constant": false,
      "inputs": [
        {
          "name": "_newOwner",
          "type": "address"
        }
      ],
      "name": "transferOwnership",
      "outputs": [],
      "payable": false,
      "stateMutability": "nonpayable",
      "type": "function"
    },
    {
      "constant": true,
      "inputs": [],
      "name": "token",
      "outputs": [
        {
          "name": "",
          "type": "address"
        }
      ],
      "payable": false,
      "stateMutability": "view",
      "type": "function"
    },
    {
      "inputs": [
        {
          "name": "_goal",
          "type": "uint256"
        },
        {
          "name": "_openingTime",
          "type": "uint256"
        },
        {
          "name": "_closingTime",
          "type": "uint256"
        },
        {
          "name": "_rate",
          "type": "uint256"
        },
        {
          "name": "_wallet",
          "type": "address"
        },
        {
          "name": "_feeWallet",
          "type": "address"
        },
        {
          "name": "_feePercent",
          "type": "uint8"
        },
        {
          "name": "_token",
          "type": "address"
        }
      ],
      "payable": false,
      "stateMutability": "nonpayable",
      "type": "constructor"
    },
    {
      "payable": true,
      "stateMutability": "payable",
      "type": "fallback"
    },
    {
      "anonymous": false,
      "inputs": [
        {
          "indexed": true,
          "name": "operator",
          "type": "address"
        },
        {
          "indexed": false,
          "name": "role",
          "type": "string"
        }
      ],
      "name": "RoleAdded",
      "type": "event"
    },
    {
      "anonymous": false,
      "inputs": [
        {
          "indexed": true,
          "name": "operator",
          "type": "address"
        },
        {
          "indexed": false,
          "name": "role",
          "type": "string"
        }
      ],
      "name": "RoleRemoved",
      "type": "event"
    },
    {
      "anonymous": false,
      "inputs": [],
      "name": "Finalized",
      "type": "event"
    },
    {
      "anonymous": false,
      "inputs": [
        {
          "indexed": true,
          "name": "previousOwner",
          "type": "address"
        }
      ],
      "name": "OwnershipRenounced",
      "type": "event"
    },
    {
      "anonymous": false,
      "inputs": [
        {
          "indexed": true,
          "name": "previousOwner",
          "type": "address"
        },
        {
          "indexed": true,
          "name": "newOwner",
          "type": "address"
        }
      ],
      "name": "OwnershipTransferred",
      "type": "event"
    },
    {
      "anonymous": false,
      "inputs": [
        {
          "indexed": true,
          "name": "purchaser",
          "type": "address"
        },
        {
          "indexed": true,
          "name": "beneficiary",
          "type": "address"
        },
        {
          "indexed": false,
          "name": "value",
          "type": "uint256"
        },
        {
          "indexed": false,
          "name": "amount",
          "type": "uint256"
        }
      ],
      "name": "TokenPurchase",
      "type": "event"
    }
  ],
  "bytecode": "0x60806040526006805460a060020a60ff02191690553480156200002157600080fd5b506040516101008062002a1283398101604090815281516020830151918301516060840151608085015160a086015160c087015160e0909701519496939492939192909190878787878785600083116200007a57600080fd5b600160a060020a03821615156200009057600080fd5b600160a060020a0381161515620000a657600080fd5b60029290925560018054600160a060020a03928316600160a060020a0319918216179091556000805492909316911617905542821015620000e657600080fd5b81811015620000f457600080fd5b60049190915560055560068054600160a060020a03191633179055600081116200011d57600080fd5b620001306401000000006200018b810204565b60075550600a805460ff909216740100000000000000000000000000000000000000000260a060020a60ff0219600160a060020a03909416600160a060020a03199093169290921792909216179055506200023c9350505050565b600154600a54600160a060020a039182169181169074010000000000000000000000000000000000000000900460ff16620001c56200022b565b600160a060020a03938416815291909216602082015260ff9091166040808301919091525190819003606001906000f08015801562000208573d6000803e3d6000fd5b5060088054600160a060020a031916600160a060020a0392909216919091179055565b604051610aed8062001f2583390190565b611cd9806200024c6000396000f30060806040526004361061017f5763ffffffff7c01000000000000000000000000000000000000000000000000000000006000350416630988ca8c811461018a5780631479290e146101fe5780631515bc2b1461022c57806318b919e914610255578063217fe6c6146102df57806324953eaa14610353578063286dd3f5146103a85780632c4e722e146103d657806340193883146103fd5780634042b66f146104125780634b6753bc146104275780634bb278f31461043c578063521eb27314610451578063715018a61461048f5780637b9417c8146104a45780637d3d6522146104d25780637fd6f15c146104e7578063888764c8146105125780638d4e4083146105405780638da5cb5b146105555780639781c3ca1461056a5780639b19251a146105d1578063b5545a3c146105ff578063b7a8807c14610614578063d466ab6b14610629578063e2ec6ec31461063e578063ec8ac4d814610693578063f25f4b56146106b4578063f2fde38b146106c9578063fc0c546a146106f7575b6101883361070c565b005b34801561019657600080fd5b5060408051602060046024803582810135601f810185900485028601850190965285855261018895833573ffffffffffffffffffffffffffffffffffffffff169536956044949193909101919081908401838280828437509497506107599650505050505050565b34801561020a57600080fd5b5061018873ffffffffffffffffffffffffffffffffffffffff600435166107ff565b34801561023857600080fd5b50610241610887565b604080519115158252519081900360200190f35b34801561026157600080fd5b5061026a61088f565b6040805160208082528351818301528351919283929083019185019080838360005b838110156102a457818101518382015260200161028c565b50505050905090810190601f1680156102d15780820380516001836020036101000a031916815260200191505b509250505060405180910390f35b3480156102eb57600080fd5b5060408051602060046024803582810135601f810185900485028601850190965285855261024195833573ffffffffffffffffffffffffffffffffffffffff169536956044949193909101919081908401838280828437509497506108c69650505050505050565b34801561035f57600080fd5b5060408051602060048035808201358381028086018501909652808552610188953695939460249493850192918291850190849080828437509497506109779650505050505050565b3480156103b457600080fd5b5061018873ffffffffffffffffffffffffffffffffffffffff600435166109d3565b3480156103e257600080fd5b506103eb610a36565b60408051918252519081900360200190f35b34801561040957600080fd5b506103eb610a3c565b34801561041e57600080fd5b506103eb610a42565b34801561043357600080fd5b506103eb610a48565b34801561044857600080fd5b50610188610a4e565b34801561045d57600080fd5b50610466610b1f565b6040805173ffffffffffffffffffffffffffffffffffffffff9092168252519081900360200190f35b34801561049b57600080fd5b50610188610b3b565b3480156104b057600080fd5b5061018873ffffffffffffffffffffffffffffffffffffffff60043516610bce565b3480156104de57600080fd5b50610241610c31565b3480156104f357600080fd5b506104fc610c3c565b6040805160ff9092168252519081900360200190f35b34801561051e57600080fd5b5061018873ffffffffffffffffffffffffffffffffffffffff60043516610c5d565b34801561054c57600080fd5b50610241610ce2565b34801561056157600080fd5b50610466610d03565b60408051602060046024803582810135601f810185900485028601850190965285855261018895833573ffffffffffffffffffffffffffffffffffffffff16953695604494919390910191908190840183828082843750949750610d1f9650505050505050565b3480156105dd57600080fd5b5061024173ffffffffffffffffffffffffffffffffffffffff60043516610d43565b34801561060b57600080fd5b50610188610d84565b34801561062057600080fd5b506103eb610e4b565b34801561063557600080fd5b5061026a610e51565b34801561064a57600080fd5b506040805160206004803580820135838102808601850190965280855261018895369593946024949385019291829185019084908082843750949750610e889650505050505050565b61018873ffffffffffffffffffffffffffffffffffffffff6004351661070c565b3480156106c057600080fd5b50610466610ee4565b3480156106d557600080fd5b5061018873ffffffffffffffffffffffffffffffffffffffff60043516610f00565b34801561070357600080fd5b50610466610f2d565b8061074c816040805190810160405280600981526020017f77686974656c6973740000000000000000000000000000000000000000000000815250610759565b61075582610f49565b5050565b610755826009836040518082805190602001908083835b602083106107ad57805182527fffffffffffffffffffffffffffffffffffffffffffffffffffffffffffffffe09092019160209182019101610770565b51815160209384036101000a7fffffffffffffffffffffffffffffffffffffffffffffffffffffffffffffffff0180199092169116179052920194855250604051938490030190922092915050610ff3565b60065473ffffffffffffffffffffffffffffffffffffffff16331461082357600080fd5b73ffffffffffffffffffffffffffffffffffffffff8116151561084557600080fd5b610884816040805190810160405280600781526020017f626f756e63657200000000000000000000000000000000000000000000000000815250611008565b50565b600554421190565b60408051808201909152600981527f77686974656c6973740000000000000000000000000000000000000000000000602082015281565b600061096e836009846040518082805190602001908083835b6020831061091c57805182527fffffffffffffffffffffffffffffffffffffffffffffffffffffffffffffffe090920191602091820191016108df565b51815160209384036101000a7fffffffffffffffffffffffffffffffffffffffffffffffffffffffffffffffff0180199092169116179052920194855250604051938490030190922092915050611162565b90505b92915050565b60065460009073ffffffffffffffffffffffffffffffffffffffff16331461099e57600080fd5b5060005b8151811015610755576109cb82828151811015156109bc57fe5b906020019060200201516109d3565b6001016109a2565b60065473ffffffffffffffffffffffffffffffffffffffff1633146109f757600080fd5b610884816040805190810160405280600981526020017f77686974656c6973740000000000000000000000000000000000000000000000815250611008565b60025481565b60075481565b60035481565b60055481565b60065473ffffffffffffffffffffffffffffffffffffffff163314610a7257600080fd5b60065474010000000000000000000000000000000000000000900460ff1615610a9a57600080fd5b610aa2610887565b1515610aad57600080fd5b610ab561118e565b6040517f6823b073d48d6e3a7d385eeb601452d680e74bb46afe3255a7d778f3a9b1768190600090a1600680547fffffffffffffffffffffff00ffffffffffffffffffffffffffffffffffffffff1674010000000000000000000000000000000000000000179055565b60015473ffffffffffffffffffffffffffffffffffffffff1681565b60065473ffffffffffffffffffffffffffffffffffffffff163314610b5f57600080fd5b60065460405173ffffffffffffffffffffffffffffffffffffffff909116907ff8df31144d9c2f0f6b59d69b8b98abd5459d07f2742c4df920b25aae33c6482090600090a2600680547fffffffffffffffffffffffff0000000000000000000000000000000000000000169055565b60065473ffffffffffffffffffffffffffffffffffffffff163314610bf257600080fd5b610884816040805190810160405280600981526020017f77686974656c697374000000000000000000000000000000000000000000000081525061135e565b600754600354101590565b600a5474010000000000000000000000000000000000000000900460ff1681565b60065473ffffffffffffffffffffffffffffffffffffffff163314610c8157600080fd5b73ffffffffffffffffffffffffffffffffffffffff81161515610ca357600080fd5b610884816040805190810160405280600781526020017f626f756e6365720000000000000000000000000000000000000000000000000081525061135e565b60065474010000000000000000000000000000000000000000900460ff1681565b60065473ffffffffffffffffffffffffffffffffffffffff1681565b80610d2a3382611479565b1515610d3557600080fd5b610d3e83610f49565b505050565b6000610971826040805190810160405280600981526020017f77686974656c69737400000000000000000000000000000000000000000000008152506108c6565b60065474010000000000000000000000000000000000000000900460ff161515610dad57600080fd5b610db5610c31565b15610dbf57600080fd5b600854604080517f51cff8d9000000000000000000000000000000000000000000000000000000008152336004820152905173ffffffffffffffffffffffffffffffffffffffff909216916351cff8d99160248082019260009290919082900301818387803b158015610e3157600080fd5b505af1158015610e45573d6000803e3d6000fd5b50505050565b60045481565b60408051808201909152600781527f626f756e63657200000000000000000000000000000000000000000000000000602082015281565b60065460009073ffffffffffffffffffffffffffffffffffffffff163314610eaf57600080fd5b5060005b815181101561075557610edc8282815181101515610ecd57fe5b90602001906020020151610bce565b600101610eb3565b600a5473ffffffffffffffffffffffffffffffffffffffff1681565b60065473ffffffffffffffffffffffffffffffffffffffff163314610f2457600080fd5b6108848161154e565b60005473ffffffffffffffffffffffffffffffffffffffff1681565b346000610f5683836115fe565b610f5f82611627565b600354909150610f75908363ffffffff61163e16565b600355610f82838261164b565b6040805183815260208101839052815173ffffffffffffffffffffffffffffffffffffffff86169233927f623b3804fa71d67900d064613da8f94b9617215ee90799290593e1745087ad18929081900390910190a3610fe18383610755565b610fe9611655565b610d3e8383610755565b610ffd8282611162565b151561075557600080fd5b6110ae826009836040518082805190602001908083835b6020831061105c57805182527fffffffffffffffffffffffffffffffffffffffffffffffffffffffffffffffe0909201916020918201910161101f565b51815160209384036101000a7fffffffffffffffffffffffffffffffffffffffffffffffffffffffffffffffff01801990921691161790529201948552506040519384900301909220929150506116e3565b8173ffffffffffffffffffffffffffffffffffffffff167fd211483f91fc6eff862467f8de606587a30c8fc9981056f051b897a418df803a826040518080602001828103825283818151815260200191508051906020019080838360005b8381101561112457818101518382015260200161110c565b50505050905090810190601f1680156111515780820380516001836020036101000a031916815260200191505b509250505060405180910390a25050565b73ffffffffffffffffffffffffffffffffffffffff166000908152602091909152604090205460ff1690565b60065473ffffffffffffffffffffffffffffffffffffffff1633146111b257600080fd5b6111ba611730565b6000809054906101000a900473ffffffffffffffffffffffffffffffffffffffff1673ffffffffffffffffffffffffffffffffffffffff16637d64bcb46040518163ffffffff167c0100000000000000000000000000000000000000000000000000000000028152600401602060405180830381600087803b15801561123f57600080fd5b505af1158015611253573d6000803e3d6000fd5b505050506040513d602081101561126957600080fd5b505060008054604080517f3f4ba83a000000000000000000000000000000000000000000000000000000008152905173ffffffffffffffffffffffffffffffffffffffff90921692633f4ba83a9260048084019382900301818387803b1580156112d257600080fd5b505af11580156112e6573d6000803e3d6000fd5b505060008054600654604080517ff2fde38b00000000000000000000000000000000000000000000000000000000815273ffffffffffffffffffffffffffffffffffffffff9283166004820152905191909216945063f2fde38b93506024808301939282900301818387803b158015610e3157600080fd5b611404826009836040518082805190602001908083835b602083106113b257805182527fffffffffffffffffffffffffffffffffffffffffffffffffffffffffffffffe09092019160209182019101611375565b51815160209384036101000a7fffffffffffffffffffffffffffffffffffffffffffffffffffffffffffffffff018019909216911617905292019485525060405193849003019092209291505061173e565b8173ffffffffffffffffffffffffffffffffffffffff167fbfec83d64eaa953f2708271a023ab9ee82057f8f3578d548c1a4ba0b5b700489826040518080602001828103825283818151815260200191508051906020019080838360008381101561112457818101518382015260200161110c565b604080516c0100000000000000000000000030810260208084019190915273ffffffffffffffffffffffffffffffffffffffff8616909102603483015282516028818403018152604890920192839052815160009361096e9392909182918401908083835b6020831061151b57805182527fffffffffffffffffffffffffffffffffffffffffffffffffffffffffffffffe090920191602091820191016114de565b6001836020036101000a03801982511681845116808217855250505050505090500191505060405180910390208361178e565b73ffffffffffffffffffffffffffffffffffffffff8116151561157057600080fd5b60065460405173ffffffffffffffffffffffffffffffffffffffff8084169216907f8be0079c531659141344cd1fd0a4f28419497f9722a3daafe3b4186f6b6457e090600090a3600680547fffffffffffffffffffffffff00000000000000000000000000000000000000001673ffffffffffffffffffffffffffffffffffffffff92909216919091179055565b600454421015801561161257506005544211155b151561161d57600080fd5b61075582826117f3565b60006109716002548361182190919063ffffffff16565b8181018281101561097157fe5b610755828261184a565b600854604080517ff340fa01000000000000000000000000000000000000000000000000000000008152336004820152905173ffffffffffffffffffffffffffffffffffffffff9092169163f340fa01913491602480830192600092919082900301818588803b1580156116c857600080fd5b505af11580156116dc573d6000803e3d6000fd5b5050505050565b73ffffffffffffffffffffffffffffffffffffffff1660009081526020919091526040902080547fffffffffffffffffffffffffffffffffffffffffffffffffffffffffffffff00169055565b611738611900565b61173c5b565b73ffffffffffffffffffffffffffffffffffffffff1660009081526020919091526040902080547fffffffffffffffffffffffffffffffffffffffffffffffffffffffffffffff00166001179055565b6000806117aa8361179e86611ad4565b9063ffffffff611bba16565b90506117eb816040805190810160405280600781526020017f626f756e636572000000000000000000000000000000000000000000000000008152506108c6565b949350505050565b73ffffffffffffffffffffffffffffffffffffffff8216151561181557600080fd5b80151561075557600080fd5b600082151561183257506000610971565b5081810281838281151561184257fe5b041461097157fe5b60008054604080517f40c10f1900000000000000000000000000000000000000000000000000000000815273ffffffffffffffffffffffffffffffffffffffff868116600483015260248201869052915191909216926340c10f1992604480820193602093909283900390910190829087803b1580156118c957600080fd5b505af11580156118dd573d6000803e3d6000fd5b505050506040513d60208110156118f357600080fd5b5051151561075557600080fd5b611908610c31565b15611a4e57600860009054906101000a900473ffffffffffffffffffffffffffffffffffffffff1673ffffffffffffffffffffffffffffffffffffffff166343d726d66040518163ffffffff167c0100000000000000000000000000000000000000000000000000000000028152600401600060405180830381600087803b15801561199357600080fd5b505af11580156119a7573d6000803e3d6000fd5b50505050600860009054906101000a900473ffffffffffffffffffffffffffffffffffffffff1673ffffffffffffffffffffffffffffffffffffffff16639af6549a6040518163ffffffff167c0100000000000000000000000000000000000000000000000000000000028152600401600060405180830381600087803b158015611a3157600080fd5b505af1158015611a45573d6000803e3d6000fd5b5050505061173c565b600860009054906101000a900473ffffffffffffffffffffffffffffffffffffffff1673ffffffffffffffffffffffffffffffffffffffff16638c52dc416040518163ffffffff167c0100000000000000000000000000000000000000000000000000000000028152600401600060405180830381600087803b158015610e3157600080fd5b604080517f19457468657265756d205369676e6564204d6573736167653a0a333200000000602080830191909152603c80830185905283518084039091018152605c909201928390528151600093918291908401908083835b60208310611b6a57805182527fffffffffffffffffffffffffffffffffffffffffffffffffffffffffffffffe09092019160209182019101611b2d565b5181516020939093036101000a7fffffffffffffffffffffffffffffffffffffffffffffffffffffffffffffffff0180199091169216919091179052604051920182900390912095945050505050565b60008060008084516041141515611bd45760009350611ca4565b50505060208201516040830151606084015160001a601b60ff82161015611bf957601b015b8060ff16601b14158015611c1157508060ff16601c14155b15611c1f5760009350611ca4565b60408051600080825260208083018085528a905260ff8516838501526060830187905260808301869052925160019360a08085019491937fffffffffffffffffffffffffffffffffffffffffffffffffffffffffffffffe0840193928390039091019190865af1158015611c97573d6000803e3d6000fd5b5050506020604051035193505b505050929150505600a165627a7a7230582098fbeaf4ce2fd30406eca8951a3c8186d60f1252bd03735f6b7e1d0ba8a305370029608060405234801561001057600080fd5b50604051606080610aed83398101604090815281516020830151919092015160008054600160a060020a0319163317905582600160a060020a038116151561005757600080fd5b6002805461010060a860020a031916610100600160a060020a03938416021760ff191690558216151561008957600080fd5b60008160ff1611801561009f575060648160ff16105b15156100aa57600080fd5b6003805460ff909216740100000000000000000000000000000000000000000260a060020a60ff0219600160a060020a03909416600160a060020a03199093169290921792909216179055506109e8806101056000396000f3006080604052600436106100cf5763ffffffff7c010000000000000000000000000000000000000000000000000000000060003504166338af3eed81146100d457806343d726d61461011257806351cff8d914610129578063685ca19414610157578063715018a6146101995780637fd6f15c146101ae5780638c52dc41146101d95780638da5cb5b146101ee5780639af6549a14610203578063c19d93fb14610218578063e3a9db1a14610251578063f25f4b5614610291578063f2fde38b146102a6578063f340fa01146102d4575b600080fd5b3480156100e057600080fd5b506100e96102f5565b6040805173ffffffffffffffffffffffffffffffffffffffff9092168252519081900360200190f35b34801561011e57600080fd5b50610127610316565b005b34801561013557600080fd5b5061012773ffffffffffffffffffffffffffffffffffffffff600435166103ac565b34801561016357600080fd5b5061018573ffffffffffffffffffffffffffffffffffffffff600435166103cc565b604080519115158252519081900360200190f35b3480156101a557600080fd5b506101276103e8565b3480156101ba57600080fd5b506101c3610479565b6040805160ff9092168252519081900360200190f35b3480156101e557600080fd5b5061012761049a565b3480156101fa57600080fd5b506100e9610531565b34801561020f57600080fd5b5061012761054d565b34801561022457600080fd5b5061022d6105f9565b6040518082600281111561023d57fe5b60ff16815260200191505060405180910390f35b34801561025d57600080fd5b5061027f73ffffffffffffffffffffffffffffffffffffffff60043516610602565b60408051918252519081900360200190f35b34801561029d57600080fd5b506100e961062a565b3480156102b257600080fd5b5061012773ffffffffffffffffffffffffffffffffffffffff60043516610646565b61012773ffffffffffffffffffffffffffffffffffffffff60043516610673565b600254610100900473ffffffffffffffffffffffffffffffffffffffff1681565b60005473ffffffffffffffffffffffffffffffffffffffff16331461033a57600080fd5b60006002805460ff169081111561034d57fe5b1461035757600080fd5b600280547fffffffffffffffffffffffffffffffffffffffffffffffffffffffffffffff0016811790556040517f1cdde67b72a90f19919ac732a437ac2f7a10fc128d28c2a6e525d89ce5cd9d3a90600090a1565b6103b5816103cc565b15156103c057600080fd5b6103c981610699565b50565b600060016002805460ff16908111156103e157fe5b1492915050565b60005473ffffffffffffffffffffffffffffffffffffffff16331461040c57600080fd5b6000805460405173ffffffffffffffffffffffffffffffffffffffff909116917ff8df31144d9c2f0f6b59d69b8b98abd5459d07f2742c4df920b25aae33c6482091a2600080547fffffffffffffffffffffffff0000000000000000000000000000000000000000169055565b60035474010000000000000000000000000000000000000000900460ff1681565b60005473ffffffffffffffffffffffffffffffffffffffff1633146104be57600080fd5b60006002805460ff16908111156104d157fe5b146104db57600080fd5b600280547fffffffffffffffffffffffffffffffffffffffffffffffffffffffffffffff001660011790556040517f599d8e5a83cffb867d051598c4d70e805d59802d8081c1c7d6dffc5b6aca2b8990600090a1565b60005473ffffffffffffffffffffffffffffffffffffffff1681565b6000600280805460ff169081111561056157fe5b1461056b57600080fd5b6003546105a89060649061059c9030319074010000000000000000000000000000000000000000900460ff16610792565b9063ffffffff6107c116565b60035460405191925073ffffffffffffffffffffffffffffffffffffffff169082156108fc029083906000818181858888f193505050501580156105f0573d6000803e3d6000fd5b506103c96107d6565b60025460ff1681565b73ffffffffffffffffffffffffffffffffffffffff1660009081526001602052604090205490565b60035473ffffffffffffffffffffffffffffffffffffffff1681565b60005473ffffffffffffffffffffffffffffffffffffffff16331461066a57600080fd5b6103c98161083f565b60006002805460ff169081111561068657fe5b1461069057600080fd5b6103c9816108ee565b6000805473ffffffffffffffffffffffffffffffffffffffff1633146106be57600080fd5b5073ffffffffffffffffffffffffffffffffffffffff811660009081526001602052604090205430318111156106f057fe5b73ffffffffffffffffffffffffffffffffffffffff82166000818152600160205260408082208290555183156108fc0291849190818181858888f19350505050158015610741573d6000803e3d6000fd5b5060408051828152905173ffffffffffffffffffffffffffffffffffffffff8416917f7084f5476618d8e60b11ef0d7d3f06914655adb8793e28ff7f018d4c76d505d5919081900360200190a25050565b60008215156107a3575060006107bb565b508181028183828115156107b357fe5b04146107bb57fe5b92915050565b600081838115156107ce57fe5b049392505050565b6002805460ff16818111156107e757fe5b146107f157600080fd5b60025460405173ffffffffffffffffffffffffffffffffffffffff6101009092049190911690303180156108fc02916000818181858888f193505050501580156103c9573d6000803e3d6000fd5b73ffffffffffffffffffffffffffffffffffffffff8116151561086157600080fd5b6000805460405173ffffffffffffffffffffffffffffffffffffffff808516939216917f8be0079c531659141344cd1fd0a4f28419497f9722a3daafe3b4186f6b6457e091a3600080547fffffffffffffffffffffffff00000000000000000000000000000000000000001673ffffffffffffffffffffffffffffffffffffffff92909216919091179055565b6000805473ffffffffffffffffffffffffffffffffffffffff16331461091357600080fd5b5073ffffffffffffffffffffffffffffffffffffffff8116600090815260016020526040902054349061094c908263ffffffff6109af16565b73ffffffffffffffffffffffffffffffffffffffff8316600081815260016020908152604091829020939093558051848152905191927f2da466a7b24304f47e87fa2e1e5a81b9831ce54fec19055ce277ca2f39ba42c492918290030190a25050565b818101828110156107bb57fe00a165627a7a7230582093bff7323487e2dc596c81d69c2691a0fed814e0006d5d778ec3ae198af9b84a0029",
  "source": "pragma solidity ^0.4.24;\r\n\r\nimport \"openzeppelin-solidity/contracts/crowdsale/emission/MintedCrowdsale.sol\";\r\nimport \"openzeppelin-solidity/contracts/crowdsale/Crowdsale.sol\";\r\nimport \"../token/GameToken.sol\";\r\nimport \"../payment/RefundEscrowWithFee.sol\";\r\nimport \"../crowdsale/distribution/RefundableCrowdsale.sol\";\r\nimport \"../crowdsale/validation/TwoWayWhitelistedCrowdsale.sol\";\r\n\r\n/**\r\n * @title GameTokenCrowdsale\r\n * @dev GameToken Crowdsale contract.\r\n * The way to add new features to a base crowdsale is by multiple inheritance.\r\n * After adding multiple features it's good practice to run integration tests\r\n * to ensure that subcontracts works together as intended.\r\n */\r\ncontract GameTokenCrowdsale is RefundableCrowdsale, MintedCrowdsale, TwoWayWhitelistedCrowdsale {\r\n\r\n    address public feeWallet;\r\n    uint8 public feePercent;\r\n\r\n    constructor (\r\n        uint256 _goal,\r\n        uint256 _openingTime,\r\n        uint256 _closingTime,\r\n        uint256 _rate,\r\n        address _wallet,\r\n        address _feeWallet, \r\n        uint8 _feePercent,\r\n        GameToken _token\r\n    ) \r\n        public\r\n        Crowdsale(_rate, _wallet, _token)\r\n        RefundableCrowdsale(_goal)\r\n        TimedCrowdsale(_openingTime, _closingTime)\r\n    {\r\n        feeWallet = _feeWallet;\r\n        feePercent = _feePercent;\r\n    }\r\n\r\n    // =================================================================================================================\r\n    //                                      Impl RefundableCrowdsale\r\n    // =================================================================================================================\r\n\r\n    function _createEscrow() internal {\r\n        escrow = new RefundEscrowWithFee(wallet, feeWallet, feePercent);\r\n    }\r\n\r\n    // =================================================================================================================\r\n    //                                      Impl FinalizableCrowdsale\r\n    // =================================================================================================================\r\n\r\n    function finalization() internal onlyOwner {\r\n        super.finalization();\r\n\r\n        // Disable token minting from this point\r\n        GameToken(token).finishMinting();\r\n\r\n        // Re-enable transfers and burn after the token sale.\r\n        GameToken(token).unpause();\r\n\r\n        // Transfer ownership of the token to the owner of the crowdsale\r\n        GameToken(token).transferOwnership(owner);\r\n    } \r\n}",
  "sourcePath": "D:\\Vlad\\CryptoCurrency\\Truffle Projects\\Game_Starter\\contracts\\crowdsale\\GameTokenCrowdsale.sol",
  "compiler": {
    "name": "solc",
    "version": "0.4.24+commit.e67f0147.Emscripten.clang"
  },
  "schemaVersion": "2.0.1",
  "updatedAt": "2018-07-20T13:46:21.483Z"
}