{
  "contractName": "GameStarterFactory",
  "abi": [
    {
      "constant": true,
      "inputs": [],
      "name": "registery",
      "outputs": [
        {
          "name": "",
          "type": "address"
        }
      ],
      "payable": false,
      "stateMutability": "view",
      "type": "function"
    },
    {
      "constant": true,
      "inputs": [],
      "name": "gpToken",
      "outputs": [
        {
          "name": "",
          "type": "address"
        }
      ],
      "payable": false,
      "stateMutability": "view",
      "type": "function"
    },
    {
      "constant": true,
      "inputs": [],
      "name": "feePercent",
      "outputs": [
        {
          "name": "",
          "type": "uint8"
        }
      ],
      "payable": false,
      "stateMutability": "view",
      "type": "function"
    },
    {
      "constant": true,
      "inputs": [],
      "name": "feeWallet",
      "outputs": [
        {
          "name": "",
          "type": "address"
        }
      ],
      "payable": false,
      "stateMutability": "view",
      "type": "function"
    },
    {
      "inputs": [
        {
          "name": "_gpToken",
          "type": "address"
        },
        {
          "name": "_registery",
          "type": "address"
        },
        {
          "name": "_factory",
          "type": "address"
        },
        {
          "name": "_feeWallet",
          "type": "address"
        },
        {
          "name": "_feePercent",
          "type": "uint8"
        }
      ],
      "payable": false,
      "stateMutability": "nonpayable",
      "type": "constructor"
    },
    {
      "anonymous": false,
      "inputs": [
        {
          "indexed": true,
          "name": "_owner",
          "type": "address"
        },
        {
          "indexed": true,
          "name": "_token",
          "type": "address"
        },
        {
          "indexed": false,
          "name": "_crowdsale",
          "type": "address"
        }
      ],
      "name": "NewGame",
      "type": "event"
    },
    {
      "constant": false,
      "inputs": [
        {
          "name": "_owner",
          "type": "address"
        },
        {
          "name": "_tokenName",
          "type": "string"
        },
        {
          "name": "_tokenSymbol",
          "type": "string"
        },
        {
          "name": "_goal",
          "type": "uint256"
        },
        {
          "name": "_saleOpeningTime",
          "type": "uint256"
        },
        {
          "name": "_saleClosingTime",
          "type": "uint256"
        },
        {
          "name": "_rate",
          "type": "uint256"
        }
      ],
      "name": "createGame",
      "outputs": [
        {
          "name": "_tokenAddress",
          "type": "address"
        }
      ],
      "payable": false,
      "stateMutability": "nonpayable",
      "type": "function"
    }
  ],
  "bytecode": "0x608060405234801561001057600080fd5b5060405160a0806148d98339810160409081528151602083015191830151606084015160809094015160028054600160a060020a03948516600160a060020a031991821617909155600380549585169582169590951790945560008054928416928516929092179091556001805460ff909216740100000000000000000000000000000000000000000260a060020a60ff021993909516919093161716919091179055614817806100c26000396000f30060806040526004361061006c5763ffffffff7c01000000000000000000000000000000000000000000000000000000006000350416631a4dd4ad81146100715780636f7bb00a146100af5780637c69082e146100c45780637fd6f15c14610188578063f25f4b56146101b3575b600080fd5b34801561007d57600080fd5b506100866101c8565b6040805173ffffffffffffffffffffffffffffffffffffffff9092168252519081900360200190f35b3480156100bb57600080fd5b506100866101e4565b3480156100d057600080fd5b5060408051602060046024803582810135601f810185900485028601850190965285855261008695833573ffffffffffffffffffffffffffffffffffffffff1695369560449491939091019190819084018382808284375050604080516020601f89358b018035918201839004830284018301909452808352979a9998810197919650918201945092508291508401838280828437509497505084359550505060208301359260408101359250606001359050610200565b34801561019457600080fd5b5061019d6104e6565b6040805160ff9092168252519081900360200190f35b3480156101bf57600080fd5b50610086610507565b60035473ffffffffffffffffffffffffffffffffffffffff1681565b60025473ffffffffffffffffffffffffffffffffffffffff1681565b60008060008060008a8a610212610523565b604080825283519082015282518190602080830191606084019187019080838360005b8381101561024d578181015183820152602001610235565b50505050905090810190601f16801561027a5780820380516001836020036101000a031916815260200191505b50838103825284518152845160209182019186019080838360005b838110156102ad578181015183820152602001610295565b50505050905090810190601f1680156102da5780820380516001836020036101000a031916815260200191505b50945050505050604051809103906000f0801580156102fd573d6000803e3d6000fd5b509350839250888888888f600160009054906101000a900473ffffffffffffffffffffffffffffffffffffffff16600160149054906101000a900460ff168a610344610533565b9788526020880196909652604080880195909552606087019390935273ffffffffffffffffffffffffffffffffffffffff9182166080870152811660a086015260ff90911660c08501529190911660e0830152519081900361010001906000f0801580156103b6573d6000803e3d6000fd5b5060008054600254600354604080517f034efaeb00000000000000000000000000000000000000000000000000000000815273ffffffffffffffffffffffffffffffffffffffff9384166004820152918316602483015260448201859052898316606483015262030d4060848301525194965091169263034efaeb9260a480840193602093929083900390910190829087803b15801561045557600080fd5b505af1158015610469573d6000803e3d6000fd5b505050506040513d602081101561047f57600080fd5b50506040805173ffffffffffffffffffffffffffffffffffffffff80851682529151849350828616928f16917f49eead924ce8ad8b077f716db6e81082172383fdfe5173018f4e64bc97e6c488919081900360200190a350909a9950505050505050505050565b60015474010000000000000000000000000000000000000000900460ff1681565b60015473ffffffffffffffffffffffffffffffffffffffff1681565b6040516118968061054483390190565b604051612a1280611dda83390190560060806040526003805460a060020a60ff02191690556006805461ff00191690553480156200002c57600080fd5b50604051620018963803806200189683398101604052805160208083015160038054600160a060020a0319163317905591830180519093929092019183918391601291849184918491620000879160049190860190620000f3565b5081516200009d906005906020850190620000f3565b506006805460ff191660ff9290921691909117905550503415620000c057600080fd5b50506003805460a060020a60ff021916740100000000000000000000000000000000000000001790555062000198915050565b828054600181600116156101000203166002900490600052602060002090601f016020900481019282601f106200013657805160ff191683800117855562000166565b8280016001018555821562000166579182015b828111156200016657825182559160200191906001019062000149565b506200017492915062000178565b5090565b6200019591905b808211156200017457600081556001016200017f565b90565b6116ee80620001a86000396000f3006080604052600436106101485763ffffffff7c010000000000000000000000000000000000000000000000000000000060003504166305d2035b811461015757806306fdde0314610180578063095ea7b31461020a57806317ffc3201461023b57806318160ddd1461026b57806323b872dd146102925780632aed7f3f146102c9578063313ce567146102f75780633f4ba83a1461032257806340c10f191461033757806342966c68146103685780635c975abb14610380578063661884631461039557806370a08231146103c6578063715018a6146103f45780637d64bcb4146104095780638456cb591461041e5780638da5cb5b1461043357806395d89b41146104715780639f727c2714610486578063a9059cbb1461049b578063c0ee0b8a146104cc578063d73dd6231461050a578063dd62ed3e1461053b578063f2fde38b1461056f575b34801561015457600080fd5b50005b34801561016357600080fd5b5061016c61059d565b604080519115158252519081900360200190f35b34801561018c57600080fd5b506101956105ab565b6040805160208082528351818301528351919283929083019185019080838360005b838110156101cf5781810151838201526020016101b7565b50505050905090810190601f1680156101fc5780820380516001836020036101000a031916815260200191505b509250505060405180910390f35b34801561021657600080fd5b5061016c73ffffffffffffffffffffffffffffffffffffffff60043516602435610657565b34801561024757600080fd5b5061026973ffffffffffffffffffffffffffffffffffffffff60043516610693565b005b34801561027757600080fd5b50610280610788565b60408051918252519081900360200190f35b34801561029e57600080fd5b5061016c73ffffffffffffffffffffffffffffffffffffffff6004358116906024351660443561078e565b3480156102d557600080fd5b5061026973ffffffffffffffffffffffffffffffffffffffff600435166107cc565b34801561030357600080fd5b5061030c610884565b6040805160ff9092168252519081900360200190f35b34801561032e57600080fd5b5061026961088d565b34801561034357600080fd5b5061016c73ffffffffffffffffffffffffffffffffffffffff6004351660243561092d565b34801561037457600080fd5b50610269600435610a69565b34801561038c57600080fd5b5061016c610a76565b3480156103a157600080fd5b5061016c73ffffffffffffffffffffffffffffffffffffffff60043516602435610a97565b3480156103d257600080fd5b5061028073ffffffffffffffffffffffffffffffffffffffff60043516610acc565b34801561040057600080fd5b50610269610af4565b34801561041557600080fd5b5061016c610b87565b34801561042a57600080fd5b50610269610c1e565b34801561043f57600080fd5b50610448610cd4565b6040805173ffffffffffffffffffffffffffffffffffffffff9092168252519081900360200190f35b34801561047d57600080fd5b50610195610cf0565b34801561049257600080fd5b50610269610d69565b3480156104a757600080fd5b5061016c73ffffffffffffffffffffffffffffffffffffffff60043516602435610dd4565b3480156104d857600080fd5b506102696004803573ffffffffffffffffffffffffffffffffffffffff16906024803591604435918201910135610e09565b34801561051657600080fd5b5061016c73ffffffffffffffffffffffffffffffffffffffff60043516602435610e0e565b34801561054757600080fd5b5061028073ffffffffffffffffffffffffffffffffffffffff60043581169060243516610e43565b34801561057b57600080fd5b5061026973ffffffffffffffffffffffffffffffffffffffff60043516610e7b565b600654610100900460ff1681565b6004805460408051602060026001851615610100027fffffffffffffffffffffffffffffffffffffffffffffffffffffffffffffffff0190941693909304601f8101849004840282018401909252818152929183018282801561064f5780601f106106245761010080835404028352916020019161064f565b820191906000526020600020905b81548152906001019060200180831161063257829003601f168201915b505050505081565b60035460009074010000000000000000000000000000000000000000900460ff161561068257600080fd5b61068c8383610ea8565b9392505050565b60035460009073ffffffffffffffffffffffffffffffffffffffff1633146106ba57600080fd5b604080517f70a08231000000000000000000000000000000000000000000000000000000008152306004820152905173ffffffffffffffffffffffffffffffffffffffff8416916370a082319160248083019260209291908290030181600087803b15801561072857600080fd5b505af115801561073c573d6000803e3d6000fd5b505050506040513d602081101561075257600080fd5b50516003549091506107849073ffffffffffffffffffffffffffffffffffffffff84811691168363ffffffff610f1b16565b5050565b60015490565b60035460009074010000000000000000000000000000000000000000900460ff16156107b957600080fd5b6107c4848484610ffa565b949350505050565b60035460009073ffffffffffffffffffffffffffffffffffffffff1633146107f357600080fd5b50600354604080517ff2fde38b00000000000000000000000000000000000000000000000000000000815273ffffffffffffffffffffffffffffffffffffffff92831660048201529051839283169163f2fde38b91602480830192600092919082900301818387803b15801561086857600080fd5b505af115801561087c573d6000803e3d6000fd5b505050505050565b60065460ff1681565b60035473ffffffffffffffffffffffffffffffffffffffff1633146108b157600080fd5b60035474010000000000000000000000000000000000000000900460ff1615156108da57600080fd5b600380547fffffffffffffffffffffff00ffffffffffffffffffffffffffffffffffffffff1690556040517f7805862f689e2f13df9f062ff482ad3ad112aca9e0847911ed832e158c525b3390600090a1565b60035460009073ffffffffffffffffffffffffffffffffffffffff16331461095457600080fd5b600654610100900460ff161561096957600080fd5b60015461097c908363ffffffff6111cc16565b60015573ffffffffffffffffffffffffffffffffffffffff83166000908152602081905260409020546109b5908363ffffffff6111cc16565b73ffffffffffffffffffffffffffffffffffffffff841660008181526020818152604091829020939093558051858152905191927f0f6798a560793a54c3bcfe86a93cde1e73087d944c0ea20544137d412139688592918290030190a260408051838152905173ffffffffffffffffffffffffffffffffffffffff8516916000917fddf252ad1be2c89b69c2b068fc378daa952ba7f163c4a11628f55a4df523b3ef9181900360200190a350600192915050565b610a7333826111df565b50565b60035474010000000000000000000000000000000000000000900460ff1681565b60035460009074010000000000000000000000000000000000000000900460ff1615610ac257600080fd5b61068c8383611321565b73ffffffffffffffffffffffffffffffffffffffff1660009081526020819052604090205490565b60035473ffffffffffffffffffffffffffffffffffffffff163314610b1857600080fd5b60035460405173ffffffffffffffffffffffffffffffffffffffff909116907ff8df31144d9c2f0f6b59d69b8b98abd5459d07f2742c4df920b25aae33c6482090600090a2600380547fffffffffffffffffffffffff0000000000000000000000000000000000000000169055565b60035460009073ffffffffffffffffffffffffffffffffffffffff163314610bae57600080fd5b600654610100900460ff1615610bc357600080fd5b600680547fffffffffffffffffffffffffffffffffffffffffffffffffffffffffffff00ff166101001790556040517fae5184fba832cb2b1f702aca6117b8d265eaf03ad33eb133f19dde0f5920fa0890600090a150600190565b60035473ffffffffffffffffffffffffffffffffffffffff163314610c4257600080fd5b60035474010000000000000000000000000000000000000000900460ff1615610c6a57600080fd5b600380547fffffffffffffffffffffff00ffffffffffffffffffffffffffffffffffffffff16740100000000000000000000000000000000000000001790556040517f6985a02210a168e66602d3235cb6db0e70f92b3ba4d376a33c0f3d9434bff62590600090a1565b60035473ffffffffffffffffffffffffffffffffffffffff1681565b6005805460408051602060026001851615610100027fffffffffffffffffffffffffffffffffffffffffffffffffffffffffffffffff0190941693909304601f8101849004840282018401909252818152929183018282801561064f5780601f106106245761010080835404028352916020019161064f565b60035473ffffffffffffffffffffffffffffffffffffffff163314610d8d57600080fd5b60035460405173ffffffffffffffffffffffffffffffffffffffff90911690303180156108fc02916000818181858888f19350505050158015610a73573d6000803e3d6000fd5b60035460009074010000000000000000000000000000000000000000900460ff1615610dff57600080fd5b61068c8383611445565b600080fd5b60035460009074010000000000000000000000000000000000000000900460ff1615610e3957600080fd5b61068c838361154d565b73ffffffffffffffffffffffffffffffffffffffff918216600090815260026020908152604080832093909416825291909152205490565b60035473ffffffffffffffffffffffffffffffffffffffff163314610e9f57600080fd5b610a7381611600565b33600081815260026020908152604080832073ffffffffffffffffffffffffffffffffffffffff8716808552908352818420869055815186815291519394909390927f8c5be1e5ebec7d5bd14f71427d1e84f3dd0314c0f7b2291e5b200ac8c7c3b925928290030190a350600192915050565b8273ffffffffffffffffffffffffffffffffffffffff1663a9059cbb83836040518363ffffffff167c0100000000000000000000000000000000000000000000000000000000028152600401808373ffffffffffffffffffffffffffffffffffffffff1673ffffffffffffffffffffffffffffffffffffffff16815260200182815260200192505050602060405180830381600087803b158015610fbe57600080fd5b505af1158015610fd2573d6000803e3d6000fd5b505050506040513d6020811015610fe857600080fd5b50511515610ff557600080fd5b505050565b600073ffffffffffffffffffffffffffffffffffffffff8316151561101e57600080fd5b73ffffffffffffffffffffffffffffffffffffffff841660009081526020819052604090205482111561105057600080fd5b73ffffffffffffffffffffffffffffffffffffffff8416600090815260026020908152604080832033845290915290205482111561108d57600080fd5b73ffffffffffffffffffffffffffffffffffffffff84166000908152602081905260409020546110c3908363ffffffff6116b016565b73ffffffffffffffffffffffffffffffffffffffff8086166000908152602081905260408082209390935590851681522054611105908363ffffffff6111cc16565b73ffffffffffffffffffffffffffffffffffffffff808516600090815260208181526040808320949094559187168152600282528281203382529091522054611154908363ffffffff6116b016565b73ffffffffffffffffffffffffffffffffffffffff808616600081815260026020908152604080832033845282529182902094909455805186815290519287169391927fddf252ad1be2c89b69c2b068fc378daa952ba7f163c4a11628f55a4df523b3ef929181900390910190a35060019392505050565b818101828110156111d957fe5b92915050565b73ffffffffffffffffffffffffffffffffffffffff821660009081526020819052604090205481111561121157600080fd5b73ffffffffffffffffffffffffffffffffffffffff8216600090815260208190526040902054611247908263ffffffff6116b016565b73ffffffffffffffffffffffffffffffffffffffff8316600090815260208190526040902055600154611280908263ffffffff6116b016565b60015560408051828152905173ffffffffffffffffffffffffffffffffffffffff8416917fcc16f5dbb4873280815c1ee09dbd06736cffcc184412cf7a71a0fdb75d397ca5919081900360200190a260408051828152905160009173ffffffffffffffffffffffffffffffffffffffff8516917fddf252ad1be2c89b69c2b068fc378daa952ba7f163c4a11628f55a4df523b3ef9181900360200190a35050565b33600090815260026020908152604080832073ffffffffffffffffffffffffffffffffffffffff86168452909152812054808311156113905733600090815260026020908152604080832073ffffffffffffffffffffffffffffffffffffffff881684529091528120556113d2565b6113a0818463ffffffff6116b016565b33600090815260026020908152604080832073ffffffffffffffffffffffffffffffffffffffff891684529091529020555b33600081815260026020908152604080832073ffffffffffffffffffffffffffffffffffffffff89168085529083529281902054815190815290519293927f8c5be1e5ebec7d5bd14f71427d1e84f3dd0314c0f7b2291e5b200ac8c7c3b925929181900390910190a35060019392505050565b600073ffffffffffffffffffffffffffffffffffffffff8316151561146957600080fd5b3360009081526020819052604090205482111561148557600080fd5b336000908152602081905260409020546114a5908363ffffffff6116b016565b336000908152602081905260408082209290925573ffffffffffffffffffffffffffffffffffffffff8516815220546114e4908363ffffffff6111cc16565b73ffffffffffffffffffffffffffffffffffffffff8416600081815260208181526040918290209390935580518581529051919233927fddf252ad1be2c89b69c2b068fc378daa952ba7f163c4a11628f55a4df523b3ef9281900390910190a350600192915050565b33600090815260026020908152604080832073ffffffffffffffffffffffffffffffffffffffff8616845290915281205461158e908363ffffffff6111cc16565b33600081815260026020908152604080832073ffffffffffffffffffffffffffffffffffffffff89168085529083529281902085905580519485525191937f8c5be1e5ebec7d5bd14f71427d1e84f3dd0314c0f7b2291e5b200ac8c7c3b925929081900390910190a350600192915050565b73ffffffffffffffffffffffffffffffffffffffff8116151561162257600080fd5b60035460405173ffffffffffffffffffffffffffffffffffffffff8084169216907f8be0079c531659141344cd1fd0a4f28419497f9722a3daafe3b4186f6b6457e090600090a3600380547fffffffffffffffffffffffff00000000000000000000000000000000000000001673ffffffffffffffffffffffffffffffffffffffff92909216919091179055565b6000828211156116bc57fe5b509003905600a165627a7a723058209981720f99a884b1f48b3d3405c113af3d39a1cc28d6a8299febd77a406bbbfa002960806040526006805460a060020a60ff02191690553480156200002157600080fd5b506040516101008062002a1283398101604090815281516020830151918301516060840151608085015160a086015160c087015160e0909701519496939492939192909190878787878785600083116200007a57600080fd5b600160a060020a03821615156200009057600080fd5b600160a060020a0381161515620000a657600080fd5b60029290925560018054600160a060020a03928316600160a060020a0319918216179091556000805492909316911617905542821015620000e657600080fd5b81811015620000f457600080fd5b60049190915560055560068054600160a060020a03191633179055600081116200011d57600080fd5b620001306401000000006200018b810204565b60075550600a805460ff909216740100000000000000000000000000000000000000000260a060020a60ff0219600160a060020a03909416600160a060020a03199093169290921792909216179055506200023c9350505050565b600154600a54600160a060020a039182169181169074010000000000000000000000000000000000000000900460ff16620001c56200022b565b600160a060020a03938416815291909216602082015260ff9091166040808301919091525190819003606001906000f08015801562000208573d6000803e3d6000fd5b5060088054600160a060020a031916600160a060020a0392909216919091179055565b604051610aed8062001f2583390190565b611cd9806200024c6000396000f30060806040526004361061017f5763ffffffff7c01000000000000000000000000000000000000000000000000000000006000350416630988ca8c811461018a5780631479290e146101fe5780631515bc2b1461022c57806318b919e914610255578063217fe6c6146102df57806324953eaa14610353578063286dd3f5146103a85780632c4e722e146103d657806340193883146103fd5780634042b66f146104125780634b6753bc146104275780634bb278f31461043c578063521eb27314610451578063715018a61461048f5780637b9417c8146104a45780637d3d6522146104d25780637fd6f15c146104e7578063888764c8146105125780638d4e4083146105405780638da5cb5b146105555780639781c3ca1461056a5780639b19251a146105d1578063b5545a3c146105ff578063b7a8807c14610614578063d466ab6b14610629578063e2ec6ec31461063e578063ec8ac4d814610693578063f25f4b56146106b4578063f2fde38b146106c9578063fc0c546a146106f7575b6101883361070c565b005b34801561019657600080fd5b5060408051602060046024803582810135601f810185900485028601850190965285855261018895833573ffffffffffffffffffffffffffffffffffffffff169536956044949193909101919081908401838280828437509497506107599650505050505050565b34801561020a57600080fd5b5061018873ffffffffffffffffffffffffffffffffffffffff600435166107ff565b34801561023857600080fd5b50610241610887565b604080519115158252519081900360200190f35b34801561026157600080fd5b5061026a61088f565b6040805160208082528351818301528351919283929083019185019080838360005b838110156102a457818101518382015260200161028c565b50505050905090810190601f1680156102d15780820380516001836020036101000a031916815260200191505b509250505060405180910390f35b3480156102eb57600080fd5b5060408051602060046024803582810135601f810185900485028601850190965285855261024195833573ffffffffffffffffffffffffffffffffffffffff169536956044949193909101919081908401838280828437509497506108c69650505050505050565b34801561035f57600080fd5b5060408051602060048035808201358381028086018501909652808552610188953695939460249493850192918291850190849080828437509497506109779650505050505050565b3480156103b457600080fd5b5061018873ffffffffffffffffffffffffffffffffffffffff600435166109d3565b3480156103e257600080fd5b506103eb610a36565b60408051918252519081900360200190f35b34801561040957600080fd5b506103eb610a3c565b34801561041e57600080fd5b506103eb610a42565b34801561043357600080fd5b506103eb610a48565b34801561044857600080fd5b50610188610a4e565b34801561045d57600080fd5b50610466610b1f565b6040805173ffffffffffffffffffffffffffffffffffffffff9092168252519081900360200190f35b34801561049b57600080fd5b50610188610b3b565b3480156104b057600080fd5b5061018873ffffffffffffffffffffffffffffffffffffffff60043516610bce565b3480156104de57600080fd5b50610241610c31565b3480156104f357600080fd5b506104fc610c3c565b6040805160ff9092168252519081900360200190f35b34801561051e57600080fd5b5061018873ffffffffffffffffffffffffffffffffffffffff60043516610c5d565b34801561054c57600080fd5b50610241610ce2565b34801561056157600080fd5b50610466610d03565b60408051602060046024803582810135601f810185900485028601850190965285855261018895833573ffffffffffffffffffffffffffffffffffffffff16953695604494919390910191908190840183828082843750949750610d1f9650505050505050565b3480156105dd57600080fd5b5061024173ffffffffffffffffffffffffffffffffffffffff60043516610d43565b34801561060b57600080fd5b50610188610d84565b34801561062057600080fd5b506103eb610e4b565b34801561063557600080fd5b5061026a610e51565b34801561064a57600080fd5b506040805160206004803580820135838102808601850190965280855261018895369593946024949385019291829185019084908082843750949750610e889650505050505050565b61018873ffffffffffffffffffffffffffffffffffffffff6004351661070c565b3480156106c057600080fd5b50610466610ee4565b3480156106d557600080fd5b5061018873ffffffffffffffffffffffffffffffffffffffff60043516610f00565b34801561070357600080fd5b50610466610f2d565b8061074c816040805190810160405280600981526020017f77686974656c6973740000000000000000000000000000000000000000000000815250610759565b61075582610f49565b5050565b610755826009836040518082805190602001908083835b602083106107ad57805182527fffffffffffffffffffffffffffffffffffffffffffffffffffffffffffffffe09092019160209182019101610770565b51815160209384036101000a7fffffffffffffffffffffffffffffffffffffffffffffffffffffffffffffffff0180199092169116179052920194855250604051938490030190922092915050610ff3565b60065473ffffffffffffffffffffffffffffffffffffffff16331461082357600080fd5b73ffffffffffffffffffffffffffffffffffffffff8116151561084557600080fd5b610884816040805190810160405280600781526020017f626f756e63657200000000000000000000000000000000000000000000000000815250611008565b50565b600554421190565b60408051808201909152600981527f77686974656c6973740000000000000000000000000000000000000000000000602082015281565b600061096e836009846040518082805190602001908083835b6020831061091c57805182527fffffffffffffffffffffffffffffffffffffffffffffffffffffffffffffffe090920191602091820191016108df565b51815160209384036101000a7fffffffffffffffffffffffffffffffffffffffffffffffffffffffffffffffff0180199092169116179052920194855250604051938490030190922092915050611162565b90505b92915050565b60065460009073ffffffffffffffffffffffffffffffffffffffff16331461099e57600080fd5b5060005b8151811015610755576109cb82828151811015156109bc57fe5b906020019060200201516109d3565b6001016109a2565b60065473ffffffffffffffffffffffffffffffffffffffff1633146109f757600080fd5b610884816040805190810160405280600981526020017f77686974656c6973740000000000000000000000000000000000000000000000815250611008565b60025481565b60075481565b60035481565b60055481565b60065473ffffffffffffffffffffffffffffffffffffffff163314610a7257600080fd5b60065474010000000000000000000000000000000000000000900460ff1615610a9a57600080fd5b610aa2610887565b1515610aad57600080fd5b610ab561118e565b6040517f6823b073d48d6e3a7d385eeb601452d680e74bb46afe3255a7d778f3a9b1768190600090a1600680547fffffffffffffffffffffff00ffffffffffffffffffffffffffffffffffffffff1674010000000000000000000000000000000000000000179055565b60015473ffffffffffffffffffffffffffffffffffffffff1681565b60065473ffffffffffffffffffffffffffffffffffffffff163314610b5f57600080fd5b60065460405173ffffffffffffffffffffffffffffffffffffffff909116907ff8df31144d9c2f0f6b59d69b8b98abd5459d07f2742c4df920b25aae33c6482090600090a2600680547fffffffffffffffffffffffff0000000000000000000000000000000000000000169055565b60065473ffffffffffffffffffffffffffffffffffffffff163314610bf257600080fd5b610884816040805190810160405280600981526020017f77686974656c697374000000000000000000000000000000000000000000000081525061135e565b600754600354101590565b600a5474010000000000000000000000000000000000000000900460ff1681565b60065473ffffffffffffffffffffffffffffffffffffffff163314610c8157600080fd5b73ffffffffffffffffffffffffffffffffffffffff81161515610ca357600080fd5b610884816040805190810160405280600781526020017f626f756e6365720000000000000000000000000000000000000000000000000081525061135e565b60065474010000000000000000000000000000000000000000900460ff1681565b60065473ffffffffffffffffffffffffffffffffffffffff1681565b80610d2a3382611479565b1515610d3557600080fd5b610d3e83610f49565b505050565b6000610971826040805190810160405280600981526020017f77686974656c69737400000000000000000000000000000000000000000000008152506108c6565b60065474010000000000000000000000000000000000000000900460ff161515610dad57600080fd5b610db5610c31565b15610dbf57600080fd5b600854604080517f51cff8d9000000000000000000000000000000000000000000000000000000008152336004820152905173ffffffffffffffffffffffffffffffffffffffff909216916351cff8d99160248082019260009290919082900301818387803b158015610e3157600080fd5b505af1158015610e45573d6000803e3d6000fd5b50505050565b60045481565b60408051808201909152600781527f626f756e63657200000000000000000000000000000000000000000000000000602082015281565b60065460009073ffffffffffffffffffffffffffffffffffffffff163314610eaf57600080fd5b5060005b815181101561075557610edc8282815181101515610ecd57fe5b90602001906020020151610bce565b600101610eb3565b600a5473ffffffffffffffffffffffffffffffffffffffff1681565b60065473ffffffffffffffffffffffffffffffffffffffff163314610f2457600080fd5b6108848161154e565b60005473ffffffffffffffffffffffffffffffffffffffff1681565b346000610f5683836115fe565b610f5f82611627565b600354909150610f75908363ffffffff61163e16565b600355610f82838261164b565b6040805183815260208101839052815173ffffffffffffffffffffffffffffffffffffffff86169233927f623b3804fa71d67900d064613da8f94b9617215ee90799290593e1745087ad18929081900390910190a3610fe18383610755565b610fe9611655565b610d3e8383610755565b610ffd8282611162565b151561075557600080fd5b6110ae826009836040518082805190602001908083835b6020831061105c57805182527fffffffffffffffffffffffffffffffffffffffffffffffffffffffffffffffe0909201916020918201910161101f565b51815160209384036101000a7fffffffffffffffffffffffffffffffffffffffffffffffffffffffffffffffff01801990921691161790529201948552506040519384900301909220929150506116e3565b8173ffffffffffffffffffffffffffffffffffffffff167fd211483f91fc6eff862467f8de606587a30c8fc9981056f051b897a418df803a826040518080602001828103825283818151815260200191508051906020019080838360005b8381101561112457818101518382015260200161110c565b50505050905090810190601f1680156111515780820380516001836020036101000a031916815260200191505b509250505060405180910390a25050565b73ffffffffffffffffffffffffffffffffffffffff166000908152602091909152604090205460ff1690565b60065473ffffffffffffffffffffffffffffffffffffffff1633146111b257600080fd5b6111ba611730565b6000809054906101000a900473ffffffffffffffffffffffffffffffffffffffff1673ffffffffffffffffffffffffffffffffffffffff16637d64bcb46040518163ffffffff167c0100000000000000000000000000000000000000000000000000000000028152600401602060405180830381600087803b15801561123f57600080fd5b505af1158015611253573d6000803e3d6000fd5b505050506040513d602081101561126957600080fd5b505060008054604080517f3f4ba83a000000000000000000000000000000000000000000000000000000008152905173ffffffffffffffffffffffffffffffffffffffff90921692633f4ba83a9260048084019382900301818387803b1580156112d257600080fd5b505af11580156112e6573d6000803e3d6000fd5b505060008054600654604080517ff2fde38b00000000000000000000000000000000000000000000000000000000815273ffffffffffffffffffffffffffffffffffffffff9283166004820152905191909216945063f2fde38b93506024808301939282900301818387803b158015610e3157600080fd5b611404826009836040518082805190602001908083835b602083106113b257805182527fffffffffffffffffffffffffffffffffffffffffffffffffffffffffffffffe09092019160209182019101611375565b51815160209384036101000a7fffffffffffffffffffffffffffffffffffffffffffffffffffffffffffffffff018019909216911617905292019485525060405193849003019092209291505061173e565b8173ffffffffffffffffffffffffffffffffffffffff167fbfec83d64eaa953f2708271a023ab9ee82057f8f3578d548c1a4ba0b5b700489826040518080602001828103825283818151815260200191508051906020019080838360008381101561112457818101518382015260200161110c565b604080516c0100000000000000000000000030810260208084019190915273ffffffffffffffffffffffffffffffffffffffff8616909102603483015282516028818403018152604890920192839052815160009361096e9392909182918401908083835b6020831061151b57805182527fffffffffffffffffffffffffffffffffffffffffffffffffffffffffffffffe090920191602091820191016114de565b6001836020036101000a03801982511681845116808217855250505050505090500191505060405180910390208361178e565b73ffffffffffffffffffffffffffffffffffffffff8116151561157057600080fd5b60065460405173ffffffffffffffffffffffffffffffffffffffff8084169216907f8be0079c531659141344cd1fd0a4f28419497f9722a3daafe3b4186f6b6457e090600090a3600680547fffffffffffffffffffffffff00000000000000000000000000000000000000001673ffffffffffffffffffffffffffffffffffffffff92909216919091179055565b600454421015801561161257506005544211155b151561161d57600080fd5b61075582826117f3565b60006109716002548361182190919063ffffffff16565b8181018281101561097157fe5b610755828261184a565b600854604080517ff340fa01000000000000000000000000000000000000000000000000000000008152336004820152905173ffffffffffffffffffffffffffffffffffffffff9092169163f340fa01913491602480830192600092919082900301818588803b1580156116c857600080fd5b505af11580156116dc573d6000803e3d6000fd5b5050505050565b73ffffffffffffffffffffffffffffffffffffffff1660009081526020919091526040902080547fffffffffffffffffffffffffffffffffffffffffffffffffffffffffffffff00169055565b611738611900565b61173c5b565b73ffffffffffffffffffffffffffffffffffffffff1660009081526020919091526040902080547fffffffffffffffffffffffffffffffffffffffffffffffffffffffffffffff00166001179055565b6000806117aa8361179e86611ad4565b9063ffffffff611bba16565b90506117eb816040805190810160405280600781526020017f626f756e636572000000000000000000000000000000000000000000000000008152506108c6565b949350505050565b73ffffffffffffffffffffffffffffffffffffffff8216151561181557600080fd5b80151561075557600080fd5b600082151561183257506000610971565b5081810281838281151561184257fe5b041461097157fe5b60008054604080517f40c10f1900000000000000000000000000000000000000000000000000000000815273ffffffffffffffffffffffffffffffffffffffff868116600483015260248201869052915191909216926340c10f1992604480820193602093909283900390910190829087803b1580156118c957600080fd5b505af11580156118dd573d6000803e3d6000fd5b505050506040513d60208110156118f357600080fd5b5051151561075557600080fd5b611908610c31565b15611a4e57600860009054906101000a900473ffffffffffffffffffffffffffffffffffffffff1673ffffffffffffffffffffffffffffffffffffffff166343d726d66040518163ffffffff167c0100000000000000000000000000000000000000000000000000000000028152600401600060405180830381600087803b15801561199357600080fd5b505af11580156119a7573d6000803e3d6000fd5b50505050600860009054906101000a900473ffffffffffffffffffffffffffffffffffffffff1673ffffffffffffffffffffffffffffffffffffffff16639af6549a6040518163ffffffff167c0100000000000000000000000000000000000000000000000000000000028152600401600060405180830381600087803b158015611a3157600080fd5b505af1158015611a45573d6000803e3d6000fd5b5050505061173c565b600860009054906101000a900473ffffffffffffffffffffffffffffffffffffffff1673ffffffffffffffffffffffffffffffffffffffff16638c52dc416040518163ffffffff167c0100000000000000000000000000000000000000000000000000000000028152600401600060405180830381600087803b158015610e3157600080fd5b604080517f19457468657265756d205369676e6564204d6573736167653a0a333200000000602080830191909152603c80830185905283518084039091018152605c909201928390528151600093918291908401908083835b60208310611b6a57805182527fffffffffffffffffffffffffffffffffffffffffffffffffffffffffffffffe09092019160209182019101611b2d565b5181516020939093036101000a7fffffffffffffffffffffffffffffffffffffffffffffffffffffffffffffffff0180199091169216919091179052604051920182900390912095945050505050565b60008060008084516041141515611bd45760009350611ca4565b50505060208201516040830151606084015160001a601b60ff82161015611bf957601b015b8060ff16601b14158015611c1157508060ff16601c14155b15611c1f5760009350611ca4565b60408051600080825260208083018085528a905260ff8516838501526060830187905260808301869052925160019360a08085019491937fffffffffffffffffffffffffffffffffffffffffffffffffffffffffffffffe0840193928390039091019190865af1158015611c97573d6000803e3d6000fd5b5050506020604051035193505b505050929150505600a165627a7a7230582098fbeaf4ce2fd30406eca8951a3c8186d60f1252bd03735f6b7e1d0ba8a305370029608060405234801561001057600080fd5b50604051606080610aed83398101604090815281516020830151919092015160008054600160a060020a0319163317905582600160a060020a038116151561005757600080fd5b6002805461010060a860020a031916610100600160a060020a03938416021760ff191690558216151561008957600080fd5b60008160ff1611801561009f575060648160ff16105b15156100aa57600080fd5b6003805460ff909216740100000000000000000000000000000000000000000260a060020a60ff0219600160a060020a03909416600160a060020a03199093169290921792909216179055506109e8806101056000396000f3006080604052600436106100cf5763ffffffff7c010000000000000000000000000000000000000000000000000000000060003504166338af3eed81146100d457806343d726d61461011257806351cff8d914610129578063685ca19414610157578063715018a6146101995780637fd6f15c146101ae5780638c52dc41146101d95780638da5cb5b146101ee5780639af6549a14610203578063c19d93fb14610218578063e3a9db1a14610251578063f25f4b5614610291578063f2fde38b146102a6578063f340fa01146102d4575b600080fd5b3480156100e057600080fd5b506100e96102f5565b6040805173ffffffffffffffffffffffffffffffffffffffff9092168252519081900360200190f35b34801561011e57600080fd5b50610127610316565b005b34801561013557600080fd5b5061012773ffffffffffffffffffffffffffffffffffffffff600435166103ac565b34801561016357600080fd5b5061018573ffffffffffffffffffffffffffffffffffffffff600435166103cc565b604080519115158252519081900360200190f35b3480156101a557600080fd5b506101276103e8565b3480156101ba57600080fd5b506101c3610479565b6040805160ff9092168252519081900360200190f35b3480156101e557600080fd5b5061012761049a565b3480156101fa57600080fd5b506100e9610531565b34801561020f57600080fd5b5061012761054d565b34801561022457600080fd5b5061022d6105f9565b6040518082600281111561023d57fe5b60ff16815260200191505060405180910390f35b34801561025d57600080fd5b5061027f73ffffffffffffffffffffffffffffffffffffffff60043516610602565b60408051918252519081900360200190f35b34801561029d57600080fd5b506100e961062a565b3480156102b257600080fd5b5061012773ffffffffffffffffffffffffffffffffffffffff60043516610646565b61012773ffffffffffffffffffffffffffffffffffffffff60043516610673565b600254610100900473ffffffffffffffffffffffffffffffffffffffff1681565b60005473ffffffffffffffffffffffffffffffffffffffff16331461033a57600080fd5b60006002805460ff169081111561034d57fe5b1461035757600080fd5b600280547fffffffffffffffffffffffffffffffffffffffffffffffffffffffffffffff0016811790556040517f1cdde67b72a90f19919ac732a437ac2f7a10fc128d28c2a6e525d89ce5cd9d3a90600090a1565b6103b5816103cc565b15156103c057600080fd5b6103c981610699565b50565b600060016002805460ff16908111156103e157fe5b1492915050565b60005473ffffffffffffffffffffffffffffffffffffffff16331461040c57600080fd5b6000805460405173ffffffffffffffffffffffffffffffffffffffff909116917ff8df31144d9c2f0f6b59d69b8b98abd5459d07f2742c4df920b25aae33c6482091a2600080547fffffffffffffffffffffffff0000000000000000000000000000000000000000169055565b60035474010000000000000000000000000000000000000000900460ff1681565b60005473ffffffffffffffffffffffffffffffffffffffff1633146104be57600080fd5b60006002805460ff16908111156104d157fe5b146104db57600080fd5b600280547fffffffffffffffffffffffffffffffffffffffffffffffffffffffffffffff001660011790556040517f599d8e5a83cffb867d051598c4d70e805d59802d8081c1c7d6dffc5b6aca2b8990600090a1565b60005473ffffffffffffffffffffffffffffffffffffffff1681565b6000600280805460ff169081111561056157fe5b1461056b57600080fd5b6003546105a89060649061059c9030319074010000000000000000000000000000000000000000900460ff16610792565b9063ffffffff6107c116565b60035460405191925073ffffffffffffffffffffffffffffffffffffffff169082156108fc029083906000818181858888f193505050501580156105f0573d6000803e3d6000fd5b506103c96107d6565b60025460ff1681565b73ffffffffffffffffffffffffffffffffffffffff1660009081526001602052604090205490565b60035473ffffffffffffffffffffffffffffffffffffffff1681565b60005473ffffffffffffffffffffffffffffffffffffffff16331461066a57600080fd5b6103c98161083f565b60006002805460ff169081111561068657fe5b1461069057600080fd5b6103c9816108ee565b6000805473ffffffffffffffffffffffffffffffffffffffff1633146106be57600080fd5b5073ffffffffffffffffffffffffffffffffffffffff811660009081526001602052604090205430318111156106f057fe5b73ffffffffffffffffffffffffffffffffffffffff82166000818152600160205260408082208290555183156108fc0291849190818181858888f19350505050158015610741573d6000803e3d6000fd5b5060408051828152905173ffffffffffffffffffffffffffffffffffffffff8416917f7084f5476618d8e60b11ef0d7d3f06914655adb8793e28ff7f018d4c76d505d5919081900360200190a25050565b60008215156107a3575060006107bb565b508181028183828115156107b357fe5b04146107bb57fe5b92915050565b600081838115156107ce57fe5b049392505050565b6002805460ff16818111156107e757fe5b146107f157600080fd5b60025460405173ffffffffffffffffffffffffffffffffffffffff6101009092049190911690303180156108fc02916000818181858888f193505050501580156103c9573d6000803e3d6000fd5b73ffffffffffffffffffffffffffffffffffffffff8116151561086157600080fd5b6000805460405173ffffffffffffffffffffffffffffffffffffffff808516939216917f8be0079c531659141344cd1fd0a4f28419497f9722a3daafe3b4186f6b6457e091a3600080547fffffffffffffffffffffffff00000000000000000000000000000000000000001673ffffffffffffffffffffffffffffffffffffffff92909216919091179055565b6000805473ffffffffffffffffffffffffffffffffffffffff16331461091357600080fd5b5073ffffffffffffffffffffffffffffffffffffffff8116600090815260016020526040902054349061094c908263ffffffff6109af16565b73ffffffffffffffffffffffffffffffffffffffff8316600081815260016020908152604091829020939093558051848152905191927f2da466a7b24304f47e87fa2e1e5a81b9831ce54fec19055ce277ca2f39ba42c492918290030190a25050565b818101828110156107bb57fe00a165627a7a7230582093bff7323487e2dc596c81d69c2691a0fed814e0006d5d778ec3ae198af9b84a0029a165627a7a723058201bdc1495aebcb4c394ff03638cab6545d626220a53b3d1169242ecff257b10930029",
  "source": "pragma solidity ^0.4.24;\r\n\r\nimport \"../token/GameToken.sol\";\r\nimport \"../token/GXToken.sol\";\r\nimport \"../crowdsale/GameTokenCrowdsale.sol\";\r\n\r\n// import \"bancor-contracts/solidity/contracts/converter/BancorConverter.sol\";\r\nimport \"bancor-contracts/solidity/contracts/converter/BancorConverterFactory.sol\";\r\n\r\n// Workaround for - Dependency contracts are not available in tests\r\nimport \"bancor-contracts/solidity/contracts/BancorNetwork.sol\";\r\nimport \"bancor-contracts/solidity/contracts/utility/ContractRegistry.sol\";\r\nimport \"bancor-contracts/solidity/contracts/utility/ContractFeatures.sol\";\r\nimport \"bancor-contracts/solidity/contracts/helpers/TestERC20Token.sol\";\r\n\r\n\r\ncontract GameStarterFactory {\r\n\r\n    BancorConverterFactory factory;\r\n    address public feeWallet;\r\n    uint8 public feePercent;\r\n    GXToken public gpToken;\r\n    IContractRegistry public registery;\r\n\r\n    event NewGame(address indexed _owner, address indexed _token, address _crowdsale);\r\n    \r\n    constructor (GXToken _gpToken,IContractRegistry _registery, BancorConverterFactory _factory, address _feeWallet, uint8 _feePercent) public {\r\n        gpToken = _gpToken;\r\n        registery = _registery;\r\n        factory = _factory;\r\n        feeWallet = _feeWallet;\r\n        feePercent = _feePercent;\r\n    }\r\n\r\n    function createGame(\r\n        address _owner, \r\n        string _tokenName, \r\n        string _tokenSymbol,\r\n        uint _goal,\r\n        uint256 _saleOpeningTime,\r\n        uint256 _saleClosingTime,\r\n        uint256 _rate\r\n    ) \r\n        public \r\n        returns(address _tokenAddress) \r\n    {\r\n        GameToken token = new GameToken(_tokenName, _tokenSymbol);\r\n        address tokenAddress = address(token);\r\n\r\n        GameTokenCrowdsale crowdsale = new GameTokenCrowdsale(\r\n            _goal,\r\n            _saleOpeningTime, \r\n            _saleClosingTime, \r\n            _rate,\r\n            _owner, \r\n            feeWallet,\r\n            feePercent,\r\n            token\r\n        );\r\n        // Add a connector between the Game Protocol Token \r\n        // and the created GameToken using the converter\r\n        factory.createConverter(gpToken, registery, 0, token, 200000);\r\n\r\n        address crowdsaleAddress = address(crowdsale);\r\n        emit NewGame(_owner, tokenAddress, crowdsaleAddress);\r\n\r\n        return tokenAddress;\r\n    }\r\n}",
  "sourcePath": "D:\\Vlad\\CryptoCurrency\\Truffle Projects\\Game_Starter\\contracts\\factory\\GameStarterFactory.sol",
  "compiler": {
    "name": "solc",
    "version": "0.4.24+commit.e67f0147.Emscripten.clang"
  },
  "schemaVersion": "2.0.1",
  "updatedAt": "2018-07-20T13:46:21.484Z"
}