{
  "contractName": "GXTCrowdsale",
  "abi": [
    {
      "constant": true,
      "inputs": [
        {
          "name": "_operator",
          "type": "address"
        },
        {
          "name": "_role",
          "type": "string"
        }
      ],
      "name": "checkRole",
      "outputs": [],
      "payable": false,
      "stateMutability": "view",
      "type": "function"
    },
    {
      "constant": false,
      "inputs": [
        {
          "name": "_bouncer",
          "type": "address"
        }
      ],
      "name": "removeBouncer",
      "outputs": [],
      "payable": false,
      "stateMutability": "nonpayable",
      "type": "function"
    },
    {
      "constant": true,
      "inputs": [],
      "name": "hasClosed",
      "outputs": [
        {
          "name": "",
          "type": "bool"
        }
      ],
      "payable": false,
      "stateMutability": "view",
      "type": "function"
    },
    {
      "constant": true,
      "inputs": [],
      "name": "walletGameSupportFund",
      "outputs": [
        {
          "name": "",
          "type": "address"
        }
      ],
      "payable": false,
      "stateMutability": "view",
      "type": "function"
    },
    {
      "constant": true,
      "inputs": [],
      "name": "ROLE_WHITELISTED",
      "outputs": [
        {
          "name": "",
          "type": "string"
        }
      ],
      "payable": false,
      "stateMutability": "view",
      "type": "function"
    },
    {
      "constant": true,
      "inputs": [],
      "name": "GAME_SUPPORT_FUND_ALLOCATION",
      "outputs": [
        {
          "name": "",
          "type": "uint256"
        }
      ],
      "payable": false,
      "stateMutability": "view",
      "type": "function"
    },
    {
      "constant": true,
      "inputs": [],
      "name": "ADVISORS_AND_PARTNERSHIP_ALLOCATION",
      "outputs": [
        {
          "name": "",
          "type": "uint256"
        }
      ],
      "payable": false,
      "stateMutability": "view",
      "type": "function"
    },
    {
      "constant": true,
      "inputs": [
        {
          "name": "_operator",
          "type": "address"
        },
        {
          "name": "_role",
          "type": "string"
        }
      ],
      "name": "hasRole",
      "outputs": [
        {
          "name": "",
          "type": "bool"
        }
      ],
      "payable": false,
      "stateMutability": "view",
      "type": "function"
    },
    {
      "constant": false,
      "inputs": [
        {
          "name": "_operators",
          "type": "address[]"
        }
      ],
      "name": "removeAddressesFromWhitelist",
      "outputs": [],
      "payable": false,
      "stateMutability": "nonpayable",
      "type": "function"
    },
    {
      "constant": false,
      "inputs": [
        {
          "name": "_operator",
          "type": "address"
        }
      ],
      "name": "removeAddressFromWhitelist",
      "outputs": [],
      "payable": false,
      "stateMutability": "nonpayable",
      "type": "function"
    },
    {
      "constant": true,
      "inputs": [],
      "name": "rate",
      "outputs": [
        {
          "name": "",
          "type": "uint256"
        }
      ],
      "payable": false,
      "stateMutability": "view",
      "type": "function"
    },
    {
      "constant": true,
      "inputs": [],
      "name": "BOUNTY_PROGRAM_ALLOCATION",
      "outputs": [
        {
          "name": "",
          "type": "uint256"
        }
      ],
      "payable": false,
      "stateMutability": "view",
      "type": "function"
    },
    {
      "constant": true,
      "inputs": [],
      "name": "weiRaised",
      "outputs": [
        {
          "name": "",
          "type": "uint256"
        }
      ],
      "payable": false,
      "stateMutability": "view",
      "type": "function"
    },
    {
      "constant": true,
      "inputs": [],
      "name": "closingTime",
      "outputs": [
        {
          "name": "",
          "type": "uint256"
        }
      ],
      "payable": false,
      "stateMutability": "view",
      "type": "function"
    },
    {
      "constant": false,
      "inputs": [],
      "name": "finalize",
      "outputs": [],
      "payable": false,
      "stateMutability": "nonpayable",
      "type": "function"
    },
    {
      "constant": true,
      "inputs": [],
      "name": "wallet",
      "outputs": [
        {
          "name": "",
          "type": "address"
        }
      ],
      "payable": false,
      "stateMutability": "view",
      "type": "function"
    },
    {
      "constant": true,
      "inputs": [],
      "name": "walletTeam",
      "outputs": [
        {
          "name": "",
          "type": "address"
        }
      ],
      "payable": false,
      "stateMutability": "view",
      "type": "function"
    },
    {
      "constant": false,
      "inputs": [],
      "name": "renounceOwnership",
      "outputs": [],
      "payable": false,
      "stateMutability": "nonpayable",
      "type": "function"
    },
    {
      "constant": true,
      "inputs": [],
      "name": "tokensAllocated",
      "outputs": [
        {
          "name": "",
          "type": "uint256"
        }
      ],
      "payable": false,
      "stateMutability": "view",
      "type": "function"
    },
    {
      "constant": false,
      "inputs": [
        {
          "name": "_operator",
          "type": "address"
        }
      ],
      "name": "addAddressToWhitelist",
      "outputs": [],
      "payable": false,
      "stateMutability": "nonpayable",
      "type": "function"
    },
    {
      "constant": false,
      "inputs": [
        {
          "name": "_bouncer",
          "type": "address"
        }
      ],
      "name": "addBouncer",
      "outputs": [],
      "payable": false,
      "stateMutability": "nonpayable",
      "type": "function"
    },
    {
      "constant": true,
      "inputs": [],
      "name": "isFinalized",
      "outputs": [
        {
          "name": "",
          "type": "bool"
        }
      ],
      "payable": false,
      "stateMutability": "view",
      "type": "function"
    },
    {
      "constant": true,
      "inputs": [],
      "name": "owner",
      "outputs": [
        {
          "name": "",
          "type": "address"
        }
      ],
      "payable": false,
      "stateMutability": "view",
      "type": "function"
    },
    {
      "constant": true,
      "inputs": [],
      "name": "TOTAL_SUPPLY",
      "outputs": [
        {
          "name": "",
          "type": "uint256"
        }
      ],
      "payable": false,
      "stateMutability": "view",
      "type": "function"
    },
    {
      "constant": false,
      "inputs": [
        {
          "name": "_beneficiary",
          "type": "address"
        },
        {
          "name": "_sig",
          "type": "bytes"
        }
      ],
      "name": "buyTokensSigned",
      "outputs": [],
      "payable": true,
      "stateMutability": "payable",
      "type": "function"
    },
    {
      "constant": true,
      "inputs": [
        {
          "name": "_operator",
          "type": "address"
        }
      ],
      "name": "whitelist",
      "outputs": [
        {
          "name": "",
          "type": "bool"
        }
      ],
      "payable": false,
      "stateMutability": "view",
      "type": "function"
    },
    {
      "constant": true,
      "inputs": [],
      "name": "walletAdvisorsAndPartnership",
      "outputs": [
        {
          "name": "",
          "type": "address"
        }
      ],
      "payable": false,
      "stateMutability": "view",
      "type": "function"
    },
    {
      "constant": true,
      "inputs": [],
      "name": "openingTime",
      "outputs": [
        {
          "name": "",
          "type": "uint256"
        }
      ],
      "payable": false,
      "stateMutability": "view",
      "type": "function"
    },
    {
      "constant": true,
      "inputs": [],
      "name": "GXT_UNIT",
      "outputs": [
        {
          "name": "",
          "type": "uint256"
        }
      ],
      "payable": false,
      "stateMutability": "view",
      "type": "function"
    },
    {
      "constant": true,
      "inputs": [],
      "name": "ROLE_BOUNCER",
      "outputs": [
        {
          "name": "",
          "type": "string"
        }
      ],
      "payable": false,
      "stateMutability": "view",
      "type": "function"
    },
    {
      "constant": true,
      "inputs": [],
      "name": "tokenCap",
      "outputs": [
        {
          "name": "",
          "type": "uint256"
        }
      ],
      "payable": false,
      "stateMutability": "view",
      "type": "function"
    },
    {
      "constant": false,
      "inputs": [
        {
          "name": "_operators",
          "type": "address[]"
        }
      ],
      "name": "addAddressesToWhitelist",
      "outputs": [],
      "payable": false,
      "stateMutability": "nonpayable",
      "type": "function"
    },
    {
      "constant": false,
      "inputs": [
        {
          "name": "_beneficiary",
          "type": "address"
        }
      ],
      "name": "buyTokens",
      "outputs": [],
      "payable": true,
      "stateMutability": "payable",
      "type": "function"
    },
    {
      "constant": true,
      "inputs": [],
      "name": "walletBountyProgram",
      "outputs": [
        {
          "name": "",
          "type": "address"
        }
      ],
      "payable": false,
      "stateMutability": "view",
      "type": "function"
    },
    {
      "constant": false,
      "inputs": [
        {
          "name": "_newOwner",
          "type": "address"
        }
      ],
      "name": "transferOwnership",
      "outputs": [],
      "payable": false,
      "stateMutability": "nonpayable",
      "type": "function"
    },
    {
      "constant": true,
      "inputs": [],
      "name": "token",
      "outputs": [
        {
          "name": "",
          "type": "address"
        }
      ],
      "payable": false,
      "stateMutability": "view",
      "type": "function"
    },
    {
      "constant": true,
      "inputs": [],
      "name": "CROWDSALE_ALLOCATION",
      "outputs": [
        {
          "name": "",
          "type": "uint256"
        }
      ],
      "payable": false,
      "stateMutability": "view",
      "type": "function"
    },
    {
      "constant": true,
      "inputs": [],
      "name": "TEAM_ALLOCATION",
      "outputs": [
        {
          "name": "",
          "type": "uint256"
        }
      ],
      "payable": false,
      "stateMutability": "view",
      "type": "function"
    },
    {
      "inputs": [
        {
          "name": "_openingTime",
          "type": "uint256"
        },
        {
          "name": "_closingTime",
          "type": "uint256"
        },
        {
          "name": "_rate",
          "type": "uint256"
        },
        {
          "name": "_wallet",
          "type": "address"
        },
        {
          "name": "_walletGameSupportFund",
          "type": "address"
        },
        {
          "name": "_walletBountyProgram",
          "type": "address"
        },
        {
          "name": "_walletAdvisorsAndPartnership",
          "type": "address"
        },
        {
          "name": "_walletTeam",
          "type": "address"
        },
        {
          "name": "_token",
          "type": "address"
        }
      ],
      "payable": false,
      "stateMutability": "nonpayable",
      "type": "constructor"
    },
    {
      "payable": true,
      "stateMutability": "payable",
      "type": "fallback"
    },
    {
      "anonymous": false,
      "inputs": [
        {
          "indexed": true,
          "name": "_teamTimelock",
          "type": "address"
        }
      ],
      "name": "TeamTimelock",
      "type": "event"
    },
    {
      "anonymous": false,
      "inputs": [
        {
          "indexed": true,
          "name": "operator",
          "type": "address"
        },
        {
          "indexed": false,
          "name": "role",
          "type": "string"
        }
      ],
      "name": "RoleAdded",
      "type": "event"
    },
    {
      "anonymous": false,
      "inputs": [
        {
          "indexed": true,
          "name": "operator",
          "type": "address"
        },
        {
          "indexed": false,
          "name": "role",
          "type": "string"
        }
      ],
      "name": "RoleRemoved",
      "type": "event"
    },
    {
      "anonymous": false,
      "inputs": [],
      "name": "Finalized",
      "type": "event"
    },
    {
      "anonymous": false,
      "inputs": [
        {
          "indexed": true,
          "name": "previousOwner",
          "type": "address"
        }
      ],
      "name": "OwnershipRenounced",
      "type": "event"
    },
    {
      "anonymous": false,
      "inputs": [
        {
          "indexed": true,
          "name": "previousOwner",
          "type": "address"
        },
        {
          "indexed": true,
          "name": "newOwner",
          "type": "address"
        }
      ],
      "name": "OwnershipTransferred",
      "type": "event"
    },
    {
      "anonymous": false,
      "inputs": [
        {
          "indexed": true,
          "name": "purchaser",
          "type": "address"
        },
        {
          "indexed": true,
          "name": "beneficiary",
          "type": "address"
        },
        {
          "indexed": false,
          "name": "value",
          "type": "uint256"
        },
        {
          "indexed": false,
          "name": "amount",
          "type": "uint256"
        }
      ],
      "name": "TokenPurchase",
      "type": "event"
    },
    {
      "constant": false,
      "inputs": [],
      "name": "claimTokenOwnership",
      "outputs": [],
      "payable": false,
      "stateMutability": "nonpayable",
      "type": "function"
    }
  ],
  "bytecode": "0x60806040526006805460a060020a60ff02191690553480156200002157600080fd5b50604051610120806200260f83398101604090815281516020830151918301516060840151608085015160a086015160c087015160e0880151610100909801519597949593949293919290916a47f6f77347a4c1b70000008989898985600083116200008c57600080fd5b600160a060020a0382161515620000a257600080fd5b600160a060020a0381161515620000b857600080fd5b60029290925560018054600160a060020a03928316600160a060020a0319918216179091556000805492909316911617905542821015620000f857600080fd5b818110156200010657600080fd5b60049190915560055560068054600160a060020a03191633179055600081116200012f57600080fd5b600755600160a060020a03851615156200014857600080fd5b600160a060020a03841615156200015e57600080fd5b600160a060020a03831615156200017457600080fd5b600160a060020a03821615156200018a57600080fd5b50600a8054600160a060020a03958616600160a060020a031991821617909155600b805494861694821694909417909355600c805492851692841692909217909155600d80549190931691161790555050505061242280620001ed6000396000f3006080604052600436106101e25763ffffffff7c01000000000000000000000000000000000000000000000000000000006000350416630988ca8c81146101ed57806310731a65146102615780631479290e146102765780631515bc2b146102a457806317a731e0146102cd57806318b919e91461030b578063193d64e91461039557806321635b6714610395578063217fe6c6146103bc57806324953eaa14610430578063286dd3f5146104855780632c4e722e146104b35780632fee2528146104c85780634042b66f146104dd5780634b6753bc146104f25780634bb278f314610507578063521eb2731461051c578063688ba63614610531578063715018a614610546578063755e3e281461055b5780637b9417c814610570578063888764c81461059e5780638d4e4083146105cc5780638da5cb5b146105e1578063902d55a5146105f65780639781c3ca1461060b5780639b19251a14610672578063acc7083e146106a0578063b7a8807c146106b5578063cd692c40146106ca578063d466ab6b146106df578063dd54291b146106f4578063e2ec6ec314610709578063ec8ac4d81461075e578063f055d3241461077f578063f2fde38b14610794578063fc0c546a146107c2578063fd09d013146107d7578063fd99cbed146107ec575b6101eb33610801565b005b3480156101f957600080fd5b5060408051602060046024803582810135601f81018590048502860185019096528585526101eb95833573ffffffffffffffffffffffffffffffffffffffff1695369560449491939091019190819084018382808284375094975061084e9650505050505050565b34801561026d57600080fd5b506101eb6108f4565b34801561028257600080fd5b506101eb73ffffffffffffffffffffffffffffffffffffffff60043516610999565b3480156102b057600080fd5b506102b9610a21565b604080519115158252519081900360200190f35b3480156102d957600080fd5b506102e2610a29565b6040805173ffffffffffffffffffffffffffffffffffffffff9092168252519081900360200190f35b34801561031757600080fd5b50610320610a45565b6040805160208082528351818301528351919283929083019185019080838360005b8381101561035a578181015183820152602001610342565b50505050905090810190601f1680156103875780820380516001836020036101000a031916815260200191505b509250505060405180910390f35b3480156103a157600080fd5b506103aa610a7c565b60408051918252519081900360200190f35b3480156103c857600080fd5b5060408051602060046024803582810135601f81018590048502860185019096528585526102b995833573ffffffffffffffffffffffffffffffffffffffff16953695604494919390910191908190840183828082843750949750610a8b9650505050505050565b34801561043c57600080fd5b50604080516020600480358082013583810280860185019096528085526101eb95369593946024949385019291829185019084908082843750949750610b3c9650505050505050565b34801561049157600080fd5b506101eb73ffffffffffffffffffffffffffffffffffffffff60043516610b98565b3480156104bf57600080fd5b506103aa610bfb565b3480156104d457600080fd5b506103aa610c01565b3480156104e957600080fd5b506103aa610c10565b3480156104fe57600080fd5b506103aa610c16565b34801561051357600080fd5b506101eb610c1c565b34801561052857600080fd5b506102e2610ced565b34801561053d57600080fd5b506102e2610d09565b34801561055257600080fd5b506101eb610d25565b34801561056757600080fd5b506103aa610db8565b34801561057c57600080fd5b506101eb73ffffffffffffffffffffffffffffffffffffffff60043516610dbe565b3480156105aa57600080fd5b506101eb73ffffffffffffffffffffffffffffffffffffffff60043516610e21565b3480156105d857600080fd5b506102b9610ea6565b3480156105ed57600080fd5b506102e2610ec7565b34801561060257600080fd5b506103aa610ee3565b60408051602060046024803582810135601f81018590048502860185019096528585526101eb95833573ffffffffffffffffffffffffffffffffffffffff16953695604494919390910191908190840183828082843750949750610ef29650505050505050565b34801561067e57600080fd5b506102b973ffffffffffffffffffffffffffffffffffffffff60043516610f16565b3480156106ac57600080fd5b506102e2610f5f565b3480156106c157600080fd5b506103aa610f7b565b3480156106d657600080fd5b506103aa610f81565b3480156106eb57600080fd5b50610320610f8d565b34801561070057600080fd5b506103aa610fc4565b34801561071557600080fd5b50604080516020600480358082013583810280860185019096528085526101eb95369593946024949385019291829185019084908082843750949750610fca9650505050505050565b6101eb73ffffffffffffffffffffffffffffffffffffffff60043516610801565b34801561078b57600080fd5b506102e2611026565b3480156107a057600080fd5b506101eb73ffffffffffffffffffffffffffffffffffffffff60043516611042565b3480156107ce57600080fd5b506102e261106f565b3480156107e357600080fd5b506103aa61108b565b3480156107f857600080fd5b506103aa61109a565b80610841816040805190810160405280600981526020017f77686974656c697374000000000000000000000000000000000000000000000081525061084e565b61084a826110a9565b5050565b61084a826009836040518082805190602001908083835b602083106108a257805182527fffffffffffffffffffffffffffffffffffffffffffffffffffffffffffffffe09092019160209182019101610865565b51815160209384036101000a7fffffffffffffffffffffffffffffffffffffffffffffffffffffffffffffffff0180199092169116179052920194855250604051938490030190922092915050611153565b60065473ffffffffffffffffffffffffffffffffffffffff16331461091857600080fd5b60008054604080517f4e71e0c8000000000000000000000000000000000000000000000000000000008152905173ffffffffffffffffffffffffffffffffffffffff90921692634e71e0c89260048084019382900301818387803b15801561097f57600080fd5b505af1158015610993573d6000803e3d6000fd5b50505050565b60065473ffffffffffffffffffffffffffffffffffffffff1633146109bd57600080fd5b73ffffffffffffffffffffffffffffffffffffffff811615156109df57600080fd5b610a1e816040805190810160405280600781526020017f626f756e63657200000000000000000000000000000000000000000000000000815250611168565b50565b600554421190565b600a5473ffffffffffffffffffffffffffffffffffffffff1681565b60408051808201909152600981527f77686974656c6973740000000000000000000000000000000000000000000000602082015281565b6a0c685fa11e01ec6f00000081565b6000610b33836009846040518082805190602001908083835b60208310610ae157805182527fffffffffffffffffffffffffffffffffffffffffffffffffffffffffffffffe09092019160209182019101610aa4565b51815160209384036101000a7fffffffffffffffffffffffffffffffffffffffffffffffffffffffffffffffff01801990921691161790529201948552506040519384900301909220929150506112c2565b90505b92915050565b60065460009073ffffffffffffffffffffffffffffffffffffffff163314610b6357600080fd5b5060005b815181101561084a57610b908282815181101515610b8157fe5b90602001906020020151610b98565b600101610b67565b60065473ffffffffffffffffffffffffffffffffffffffff163314610bbc57600080fd5b610a1e816040805190810160405280600981526020017f77686974656c6973740000000000000000000000000000000000000000000000815250611168565b60025481565b6a027b46536c66c8e300000081565b60035481565b60055481565b60065473ffffffffffffffffffffffffffffffffffffffff163314610c4057600080fd5b60065474010000000000000000000000000000000000000000900460ff1615610c6857600080fd5b610c70610a21565b1515610c7b57600080fd5b610c836112ee565b6040517f6823b073d48d6e3a7d385eeb601452d680e74bb46afe3255a7d778f3a9b1768190600090a1600680547fffffffffffffffffffffff00ffffffffffffffffffffffffffffffffffffffff1674010000000000000000000000000000000000000000179055565b60015473ffffffffffffffffffffffffffffffffffffffff1681565b600d5473ffffffffffffffffffffffffffffffffffffffff1681565b60065473ffffffffffffffffffffffffffffffffffffffff163314610d4957600080fd5b60065460405173ffffffffffffffffffffffffffffffffffffffff909116907ff8df31144d9c2f0f6b59d69b8b98abd5459d07f2742c4df920b25aae33c6482090600090a2600680547fffffffffffffffffffffffff0000000000000000000000000000000000000000169055565b60085481565b60065473ffffffffffffffffffffffffffffffffffffffff163314610de257600080fd5b610a1e816040805190810160405280600981526020017f77686974656c69737400000000000000000000000000000000000000000000008152506115c8565b60065473ffffffffffffffffffffffffffffffffffffffff163314610e4557600080fd5b73ffffffffffffffffffffffffffffffffffffffff81161515610e6757600080fd5b610a1e816040805190810160405280600781526020017f626f756e636572000000000000000000000000000000000000000000000000008152506115c8565b60065474010000000000000000000000000000000000000000900460ff1681565b60065473ffffffffffffffffffffffffffffffffffffffff1681565b6a7c13bc4b2c133c5600000081565b80610efd33826116e3565b1515610f0857600080fd5b610f11836110a9565b505050565b6000610f57826040805190810160405280600981526020017f77686974656c6973740000000000000000000000000000000000000000000000815250610a8b565b90505b919050565b600c5473ffffffffffffffffffffffffffffffffffffffff1681565b60045481565b670de0b6b3a764000081565b60408051808201909152600781527f626f756e63657200000000000000000000000000000000000000000000000000602082015281565b60075481565b60065460009073ffffffffffffffffffffffffffffffffffffffff163314610ff157600080fd5b5060005b815181101561084a5761101e828281518110151561100f57fe5b90602001906020020151610dbe565b600101610ff5565b600b5473ffffffffffffffffffffffffffffffffffffffff1681565b60065473ffffffffffffffffffffffffffffffffffffffff16331461106657600080fd5b610a1e816117b8565b60005473ffffffffffffffffffffffffffffffffffffffff1681565b6a47f6f77347a4c1b700000081565b6a18d0bf423c03d8de00000081565b3460006110b68383611868565b6110bf826118a2565b6003549091506110d5908363ffffffff61198116565b6003556110e2838261198e565b6040805183815260208101839052815173ffffffffffffffffffffffffffffffffffffffff86169233927f623b3804fa71d67900d064613da8f94b9617215ee90799290593e1745087ad18929081900390910190a3611141838361084a565b6111496119b2565b610f11838361084a565b61115d82826112c2565b151561084a57600080fd5b61120e826009836040518082805190602001908083835b602083106111bc57805182527fffffffffffffffffffffffffffffffffffffffffffffffffffffffffffffffe0909201916020918201910161117f565b51815160209384036101000a7fffffffffffffffffffffffffffffffffffffffffffffffffffffffffffffffff01801990921691161790529201948552506040519384900301909220929150506119f8565b8173ffffffffffffffffffffffffffffffffffffffff167fd211483f91fc6eff862467f8de606587a30c8fc9981056f051b897a418df803a826040518080602001828103825283818151815260200191508051906020019080838360005b8381101561128457818101518382015260200161126c565b50505050905090810190601f1680156112b15780820380516001836020036101000a031916815260200191505b509250505060405180910390a25050565b73ffffffffffffffffffffffffffffffffffffffff166000908152602091909152604090205460ff1690565b6006546000908190819073ffffffffffffffffffffffffffffffffffffffff16331461131957600080fd5b611321611a45565b600054600d5460055473ffffffffffffffffffffffffffffffffffffffff928316929091169061134f611e72565b73ffffffffffffffffffffffffffffffffffffffff9384168152919092166020820152604080820192909252905190819003606001906000f08015801561139a573d6000803e3d6000fd5b5092508291506113b5826a18d0bf423c03d8de000000611a47565b60405173ffffffffffffffffffffffffffffffffffffffff8316907fd4d678dabca89f73b55e76b861340b44d790801c85ac824a2f23b3fe7fda1fe190600090a2600a546114249073ffffffffffffffffffffffffffffffffffffffff166a0c685fa11e01ec6f000000611a47565b600b546114529073ffffffffffffffffffffffffffffffffffffffff166a027b46536c66c8e3000000611a47565b600c546114809073ffffffffffffffffffffffffffffffffffffffff166a0c685fa11e01ec6f000000611a47565b50600854600a546a47f6f77347a4c1b700000091909103906114b89073ffffffffffffffffffffffffffffffffffffffff1682611a47565b60008054604080517f3f4ba83a000000000000000000000000000000000000000000000000000000008152905173ffffffffffffffffffffffffffffffffffffffff90921692633f4ba83a9260048084019382900301818387803b15801561151f57600080fd5b505af1158015611533573d6000803e3d6000fd5b505060008054600654604080517ff2fde38b00000000000000000000000000000000000000000000000000000000815273ffffffffffffffffffffffffffffffffffffffff9283166004820152905191909216945063f2fde38b93506024808301939282900301818387803b1580156115ab57600080fd5b505af11580156115bf573d6000803e3d6000fd5b50505050505050565b61166e826009836040518082805190602001908083835b6020831061161c57805182527fffffffffffffffffffffffffffffffffffffffffffffffffffffffffffffffe090920191602091820191016115df565b51815160209384036101000a7fffffffffffffffffffffffffffffffffffffffffffffffffffffffffffffffff0180199092169116179052920194855250604051938490030190922092915050611afd565b8173ffffffffffffffffffffffffffffffffffffffff167fbfec83d64eaa953f2708271a023ab9ee82057f8f3578d548c1a4ba0b5b700489826040518080602001828103825283818151815260200191508051906020019080838360008381101561128457818101518382015260200161126c565b604080516c0100000000000000000000000030810260208084019190915273ffffffffffffffffffffffffffffffffffffffff86169091026034830152825160288184030181526048909201928390528151600093610b339392909182918401908083835b6020831061178557805182527fffffffffffffffffffffffffffffffffffffffffffffffffffffffffffffffe09092019160209182019101611748565b6001836020036101000a038019825116818451168082178552505050505050905001915050604051809103902083611b4d565b73ffffffffffffffffffffffffffffffffffffffff811615156117da57600080fd5b60065460405173ffffffffffffffffffffffffffffffffffffffff8084169216907f8be0079c531659141344cd1fd0a4f28419497f9722a3daafe3b4186f6b6457e090600090a3600680547fffffffffffffffffffffffff00000000000000000000000000000000000000001673ffffffffffffffffffffffffffffffffffffffff92909216919091179055565b806000611874826118a2565b905060075461188e8260085461198190919063ffffffff16565b1061189857600080fd5b6109938484611bb2565b6005546000906118bb906224ea0063ffffffff611bdb16565b4210156118e6576118df6118d26014600254611bed565b839063ffffffff611c2316565b9050610f5a565b6005546118fc90621baf8063ffffffff611bdb16565b421015611913576118df6118d2600f600254611bed565b600554611929906212750063ffffffff611bdb16565b421015611940576118df6118d2600a600254611bed565b6005546119569062093a8063ffffffff611bdb16565b42101561196d576118df6118d26005600254611bed565b600254610f5790839063ffffffff611c2316565b81810182811015610b3657fe5b6119988282611c4c565b6008546119ab908263ffffffff61198116565b6008555050565b60015460405173ffffffffffffffffffffffffffffffffffffffff909116903480156108fc02916000818181858888f19350505050158015610a1e573d6000803e3d6000fd5b73ffffffffffffffffffffffffffffffffffffffff1660009081526020919091526040902080547fffffffffffffffffffffffffffffffffffffffffffffffffffffffffffffff00169055565b565b60008054604080517f40c10f1900000000000000000000000000000000000000000000000000000000815273ffffffffffffffffffffffffffffffffffffffff868116600483015260248201869052915191909216926340c10f1992604480820193602093909283900390910190829087803b158015611ac657600080fd5b505af1158015611ada573d6000803e3d6000fd5b505050506040513d6020811015611af057600080fd5b5051151561084a57600080fd5b73ffffffffffffffffffffffffffffffffffffffff1660009081526020919091526040902080547fffffffffffffffffffffffffffffffffffffffffffffffffffffffffffffff00166001179055565b600080611b6983611b5d86611c56565b9063ffffffff611d3c16565b9050611baa816040805190810160405280600781526020017f626f756e63657200000000000000000000000000000000000000000000000000815250610a8b565b949350505050565b6004544210158015611bc657506005544211155b1515611bd157600080fd5b61084a8282611e2f565b600082821115611be757fe5b50900390565b6000610b33611c166064611c0a8560ff881663ffffffff611c2316565b9063ffffffff611e5d16565b839063ffffffff61198116565b6000821515611c3457506000610b36565b50818102818382811515611c4457fe5b0414610b3657fe5b61084a8282611a47565b604080517f19457468657265756d205369676e6564204d6573736167653a0a333200000000602080830191909152603c80830185905283518084039091018152605c909201928390528151600093918291908401908083835b60208310611cec57805182527fffffffffffffffffffffffffffffffffffffffffffffffffffffffffffffffe09092019160209182019101611caf565b5181516020939093036101000a7fffffffffffffffffffffffffffffffffffffffffffffffffffffffffffffffff0180199091169216919091179052604051920182900390912095945050505050565b60008060008084516041141515611d565760009350611e26565b50505060208201516040830151606084015160001a601b60ff82161015611d7b57601b015b8060ff16601b14158015611d9357508060ff16601c14155b15611da15760009350611e26565b60408051600080825260208083018085528a905260ff8516838501526060830187905260808301869052925160019360a08085019491937fffffffffffffffffffffffffffffffffffffffffffffffffffffffffffffffe0840193928390039091019190865af1158015611e19573d6000803e3d6000fd5b5050506020604051035193505b50505092915050565b73ffffffffffffffffffffffffffffffffffffffff82161515611e5157600080fd5b80151561084a57600080fd5b60008183811515611e6a57fe5b049392505050565b60405161057480611e83833901905600608060405234801561001057600080fd5b50604051606080610574833981016040908152815160208301519190920151600160a060020a038216151561004457600080fd5b60008054600160a060020a03948516600160a060020a03199182161790915560018054939094169216919091179091556002556104ee806100866000396000f3006080604052600436106100985763ffffffff7c010000000000000000000000000000000000000000000000000000000060003504166301b3a187811461009d57806301bb0394146100c457806338af3eed146100d957806386d1a69f14610117578063adc4e1051461012e578063b91d400114610143578063bef3996314610158578063e405150f1461016d578063fc0c546a14610182575b600080fd5b3480156100a957600080fd5b506100b2610197565b60408051918252519081900360200190f35b3480156100d057600080fd5b506100b26101a6565b3480156100e557600080fd5b506100ee6101b5565b6040805173ffffffffffffffffffffffffffffffffffffffff9092168252519081900360200190f35b34801561012357600080fd5b5061012c6101d1565b005b34801561013a57600080fd5b506100b2610236565b34801561014f57600080fd5b506100b2610245565b34801561016457600080fd5b506100b261024b565b34801561017957600080fd5b506100b2610251565b34801561018e57600080fd5b506100ee610260565b6a06342fd08f00f63780000081565b6a129c8f71ad02e2a680000081565b60015473ffffffffffffffffffffffffffffffffffffffff1681565b6002546000904210156101e357600080fd5b6101eb61027c565b9050600081116101fa57600080fd5b60015460005461022a9173ffffffffffffffffffffffffffffffffffffffff91821691168363ffffffff61037216565b61023381610451565b50565b6a18d0bf423c03d8de00000081565b60025481565b60035481565b6a0c685fa11e01ec6f00000081565b60005473ffffffffffffffffffffffffffffffffffffffff1681565b60006002544210156102905750600061036f565b6002546102a69062dd7c0063ffffffff61049d16565b4210156102d3576003546102cc906a06342fd08f00f6378000009063ffffffff6104b016565b905061036f565b6002546102ea906301baf80063ffffffff61049d16565b421015610310576003546102cc906a0c685fa11e01ec6f0000009063ffffffff6104b016565b60025461032790630298740063ffffffff61049d16565b42101561034d576003546102cc906a129c8f71ad02e2a68000009063ffffffff6104b016565b60035461036c906a18d0bf423c03d8de0000009063ffffffff6104b016565b90505b90565b8273ffffffffffffffffffffffffffffffffffffffff1663a9059cbb83836040518363ffffffff167c0100000000000000000000000000000000000000000000000000000000028152600401808373ffffffffffffffffffffffffffffffffffffffff1673ffffffffffffffffffffffffffffffffffffffff16815260200182815260200192505050602060405180830381600087803b15801561041557600080fd5b505af1158015610429573d6000803e3d6000fd5b505050506040513d602081101561043f57600080fd5b5051151561044c57600080fd5b505050565b6040805182815290517ffb81f9b30d73d830c3544b34d827c08142579ee75710b490bab0b3995468c5659181900360200190a1600354610497908263ffffffff61049d16565b60035550565b818101828110156104aa57fe5b92915050565b6000828211156104bc57fe5b509003905600a165627a7a72305820f09b4573d17ea6d0214401020795646c70347d536af939c7f05f166197a3f3010029a165627a7a72305820c86908bea75c8777ba12739bdf2d318e5ed576070db5561a1367add2af8e33790029",
  "source": "pragma solidity ^0.4.24;\r\n\r\nimport \"openzeppelin-solidity/contracts/crowdsale/distribution/FinalizableCrowdsale.sol\";\r\nimport \"openzeppelin-solidity/contracts/crowdsale/emission/MintedCrowdsale.sol\";\r\nimport \"../crowdsale/validation/TwoWayWhitelistedCrowdsale.sol\";\r\nimport \"./validation/TokenCappedCrowdsale.sol\";\r\nimport \"../token/GXToken.sol\";\r\nimport \"../token/GXTTeamTokenTimelock.sol\";\r\n\r\n/**\r\n * @title GXTCrowdsale\r\n * @dev Game Protocol Crowdsale contract.\r\n * The way to add new features to a base crowdsale is by multiple inheritance.\r\n * After adding multiple features it's good practice to run integration tests\r\n * to ensure that subcontracts works together as intended.\r\n */\r\ncontract GXTCrowdsale is FinalizableCrowdsale, MintedCrowdsale, TokenCappedCrowdsale, TwoWayWhitelistedCrowdsale {\r\n\r\n    uint256 constant public GXT_UNIT = 10 ** 18;\r\n    uint256 constant public TOTAL_SUPPLY = 150 * 10**6 * GXT_UNIT;                          // Total supply of 150 milion tokens\r\n\r\n    uint256 constant public CROWDSALE_ALLOCATION = 87 * 10**6 * GXT_UNIT;                   // Crowdsale Allocation 58%\r\n    uint256 constant public GAME_SUPPORT_FUND_ALLOCATION = 15 * 10**6 * GXT_UNIT;           // Game support fund Allocation 10%\r\n    uint256 constant public BOUNTY_PROGRAM_ALLOCATION = 3 * 10**6 * GXT_UNIT;               // Bounty program Allocation 2%\r\n    uint256 constant public ADVISORS_AND_PARTNERSHIP_ALLOCATION = 15 * 10**6 * GXT_UNIT;    // Advisors and partnership Allocation 10%\r\n    uint256 constant public TEAM_ALLOCATION = 30 * 10**6 * GXT_UNIT;                        // Team allocation 20%\r\n\r\n    address public walletGameSupportFund;                                                   // Address that holds the advisors tokens\r\n    address public walletBountyProgram;                                                     // Address that holds the marketing tokens\r\n    address public walletAdvisorsAndPartnership;                                            // Address that holds the advisors tokens\r\n    address public walletTeam;                                                              // Address that holds the team tokens\r\n\r\n    event TeamTimelock(address indexed _teamTimelock); \r\n\r\n    constructor (\r\n        uint256 _openingTime,\r\n        uint256 _closingTime,\r\n        uint256 _rate,\r\n        address _wallet,\r\n        address _walletGameSupportFund, \r\n        address _walletBountyProgram,\r\n        address _walletAdvisorsAndPartnership, \r\n        address _walletTeam, \r\n        GXToken _token\r\n    ) \r\n        public\r\n        Crowdsale(_rate, _wallet, _token)\r\n        TimedCrowdsale(_openingTime, _closingTime)\r\n        TokenCappedCrowdsale(CROWDSALE_ALLOCATION)\r\n    {\r\n        require(_walletGameSupportFund != address(0));\r\n        require(_walletBountyProgram != address(0));\r\n        require(_walletAdvisorsAndPartnership != address(0));\r\n        require(_walletTeam != address(0));\r\n\r\n        walletGameSupportFund = _walletGameSupportFund;\r\n        walletBountyProgram = _walletBountyProgram;\r\n        walletAdvisorsAndPartnership = _walletAdvisorsAndPartnership;\r\n        walletTeam = _walletTeam;\r\n    }\r\n\r\n    /**\r\n     * @dev Helper function to add a percent of the value to a value\r\n     */\r\n    function addPercent(uint8 percent, uint256 value) internal pure returns(uint256) {\r\n        return value.add(value.mul(percent).div(100));\r\n    }\r\n\r\n    /**\r\n     * @dev Call to claim ownership of the token after ownership transfer to the crowdsale\r\n     */\r\n    function claimTokenOwnership() public onlyOwner {\r\n        GXToken(token).claimOwnership();\r\n    }\r\n\r\n    // =================================================================================================================\r\n    //                                      Impl Crowdsale\r\n    // =================================================================================================================\r\n\r\n    /**\r\n     * @return the token amount according to the time of the tx and the GXT pricing program.\r\n     */\r\n    function _getTokenAmount(uint256 _weiAmount) internal view returns (uint256) {\r\n        // solium-disable-next-line security/no-block-members\r\n        if (now < (closingTime.sub(4 weeks))) {\r\n            return _weiAmount.mul(addPercent(20, rate)); \r\n        }\r\n        // solium-disable-next-line security/no-block-members\r\n        if (now < (closingTime.sub(3 weeks))) {\r\n            return _weiAmount.mul(addPercent(15, rate)); \r\n        }\r\n        // solium-disable-next-line security/no-block-members\r\n        if (now < (closingTime.sub(2 weeks))) {\r\n            return _weiAmount.mul(addPercent(10, rate)); \r\n        }\r\n        // solium-disable-next-line security/no-block-members\r\n        if (now < (closingTime.sub(1 weeks))) {\r\n            return _weiAmount.mul(addPercent(5, rate)); \r\n        }\r\n        return _weiAmount.mul(rate);\r\n    }\r\n\r\n    // =================================================================================================================\r\n    //                                      Impl FinalizableCrowdsale\r\n    // =================================================================================================================\r\n\r\n    function finalization() internal onlyOwner {\r\n        super.finalization();\r\n\r\n        // 20% of the total number of GXT tokens will be allocated to the team\r\n        // create a timed wallet that will release tokens every 6 months\r\n        GXTTeamTokenTimelock timelock = new GXTTeamTokenTimelock(token, walletTeam, closingTime);\r\n        address teamTimelock = address(timelock);\r\n        _deliverTokens(teamTimelock, TEAM_ALLOCATION);\r\n        emit TeamTimelock(teamTimelock);\r\n\r\n        // 10% of the total number of GXT tokens will be allocated to the game support fund\r\n        _deliverTokens(walletGameSupportFund, GAME_SUPPORT_FUND_ALLOCATION);\r\n\r\n        // 2% of the total number of GXT tokens will be allocated to the bounty program\r\n        _deliverTokens(walletBountyProgram, BOUNTY_PROGRAM_ALLOCATION);\r\n\r\n        // 10% of the total number of GXT tokens will be allocated to the advisors and partnership\r\n        _deliverTokens(walletAdvisorsAndPartnership, ADVISORS_AND_PARTNERSHIP_ALLOCATION);\r\n\r\n        // The ramaining tokens that were not sold in the crowdsale will be allocated to a game support fund\r\n        uint256 tokensLeft = CROWDSALE_ALLOCATION - tokensAllocated;\r\n        _deliverTokens(walletGameSupportFund, tokensLeft);\r\n\r\n        // // Disable token minting from this point\r\n        // GXToken(token).finishMinting();\r\n\r\n        // Re-enable transfers and burn after the token sale.\r\n        GXToken(token).unpause();\r\n\r\n        // Transfer ownership of the token to the owner of the crowdsale\r\n        GXToken(token).transferOwnership(owner);\r\n    }\r\n}",
  "sourcePath": "D:\\Vlad\\CryptoCurrency\\Truffle Projects\\Game_Starter\\contracts\\crowdsale\\GXTCrowdsale.sol",
  "compiler": {
    "name": "solc",
    "version": "0.4.24+commit.e67f0147.Emscripten.clang"
  },
  "schemaVersion": "2.0.1",
  "updatedAt": "2018-07-24T09:00:05.229Z"
}