{
  "contractName": "GXTTeamTokenTimelock",
  "abi": [
    {
      "constant": true,
      "inputs": [],
      "name": "PART_1",
      "outputs": [
        {
          "name": "",
          "type": "uint256"
        }
      ],
      "payable": false,
      "stateMutability": "view",
      "type": "function"
    },
    {
      "constant": true,
      "inputs": [],
      "name": "PART_3",
      "outputs": [
        {
          "name": "",
          "type": "uint256"
        }
      ],
      "payable": false,
      "stateMutability": "view",
      "type": "function"
    },
    {
      "constant": true,
      "inputs": [],
      "name": "beneficiary",
      "outputs": [
        {
          "name": "",
          "type": "address"
        }
      ],
      "payable": false,
      "stateMutability": "view",
      "type": "function"
    },
    {
      "constant": true,
      "inputs": [],
      "name": "PART_4",
      "outputs": [
        {
          "name": "",
          "type": "uint256"
        }
      ],
      "payable": false,
      "stateMutability": "view",
      "type": "function"
    },
    {
      "constant": true,
      "inputs": [],
      "name": "releaseTime",
      "outputs": [
        {
          "name": "",
          "type": "uint256"
        }
      ],
      "payable": false,
      "stateMutability": "view",
      "type": "function"
    },
    {
      "constant": true,
      "inputs": [],
      "name": "releasedTokens",
      "outputs": [
        {
          "name": "",
          "type": "uint256"
        }
      ],
      "payable": false,
      "stateMutability": "view",
      "type": "function"
    },
    {
      "constant": true,
      "inputs": [],
      "name": "PART_2",
      "outputs": [
        {
          "name": "",
          "type": "uint256"
        }
      ],
      "payable": false,
      "stateMutability": "view",
      "type": "function"
    },
    {
      "constant": true,
      "inputs": [],
      "name": "token",
      "outputs": [
        {
          "name": "",
          "type": "address"
        }
      ],
      "payable": false,
      "stateMutability": "view",
      "type": "function"
    },
    {
      "inputs": [
        {
          "name": "_token",
          "type": "address"
        },
        {
          "name": "_beneficiary",
          "type": "address"
        },
        {
          "name": "_releaseTime",
          "type": "uint256"
        }
      ],
      "payable": false,
      "stateMutability": "nonpayable",
      "type": "constructor"
    },
    {
      "anonymous": false,
      "inputs": [
        {
          "indexed": false,
          "name": "amount",
          "type": "uint256"
        }
      ],
      "name": "Released",
      "type": "event"
    },
    {
      "constant": false,
      "inputs": [],
      "name": "release",
      "outputs": [],
      "payable": false,
      "stateMutability": "nonpayable",
      "type": "function"
    }
  ],
  "bytecode": "0x608060405234801561001057600080fd5b50604051606080610574833981016040908152815160208301519190920151600160a060020a038216151561004457600080fd5b60008054600160a060020a03948516600160a060020a03199182161790915560018054939094169216919091179091556002556104ee806100866000396000f3006080604052600436106100985763ffffffff7c010000000000000000000000000000000000000000000000000000000060003504166301b3a187811461009d57806301bb0394146100c457806338af3eed146100d957806386d1a69f14610117578063adc4e1051461012e578063b91d400114610143578063bef3996314610158578063e405150f1461016d578063fc0c546a14610182575b600080fd5b3480156100a957600080fd5b506100b2610197565b60408051918252519081900360200190f35b3480156100d057600080fd5b506100b26101a6565b3480156100e557600080fd5b506100ee6101b5565b6040805173ffffffffffffffffffffffffffffffffffffffff9092168252519081900360200190f35b34801561012357600080fd5b5061012c6101d1565b005b34801561013a57600080fd5b506100b2610236565b34801561014f57600080fd5b506100b2610245565b34801561016457600080fd5b506100b261024b565b34801561017957600080fd5b506100b2610251565b34801561018e57600080fd5b506100ee610260565b6a06342fd08f00f63780000081565b6a129c8f71ad02e2a680000081565b60015473ffffffffffffffffffffffffffffffffffffffff1681565b6002546000904210156101e357600080fd5b6101eb61027c565b9050600081116101fa57600080fd5b60015460005461022a9173ffffffffffffffffffffffffffffffffffffffff91821691168363ffffffff61037216565b61023381610451565b50565b6a18d0bf423c03d8de00000081565b60025481565b60035481565b6a0c685fa11e01ec6f00000081565b60005473ffffffffffffffffffffffffffffffffffffffff1681565b60006002544210156102905750600061036f565b6002546102a69062dd7c0063ffffffff61049d16565b4210156102d3576003546102cc906a06342fd08f00f6378000009063ffffffff6104b016565b905061036f565b6002546102ea906301baf80063ffffffff61049d16565b421015610310576003546102cc906a0c685fa11e01ec6f0000009063ffffffff6104b016565b60025461032790630298740063ffffffff61049d16565b42101561034d576003546102cc906a129c8f71ad02e2a68000009063ffffffff6104b016565b60035461036c906a18d0bf423c03d8de0000009063ffffffff6104b016565b90505b90565b8273ffffffffffffffffffffffffffffffffffffffff1663a9059cbb83836040518363ffffffff167c0100000000000000000000000000000000000000000000000000000000028152600401808373ffffffffffffffffffffffffffffffffffffffff1673ffffffffffffffffffffffffffffffffffffffff16815260200182815260200192505050602060405180830381600087803b15801561041557600080fd5b505af1158015610429573d6000803e3d6000fd5b505050506040513d602081101561043f57600080fd5b5051151561044c57600080fd5b505050565b6040805182815290517ffb81f9b30d73d830c3544b34d827c08142579ee75710b490bab0b3995468c5659181900360200190a1600354610497908263ffffffff61049d16565b60035550565b818101828110156104aa57fe5b92915050565b6000828211156104bc57fe5b509003905600a165627a7a72305820f09b4573d17ea6d0214401020795646c70347d536af939c7f05f166197a3f3010029",
  "source": "pragma solidity ^0.4.24;\r\n\r\nimport \"openzeppelin-solidity/contracts/token/ERC20/SafeERC20.sol\";\r\nimport \"openzeppelin-solidity/contracts/math/SafeMath.sol\";\r\n\r\n/**\r\n * @title GXTTeamTokenTimelock\r\n * @dev TokenTimelock is a token holder contract that will allow a\r\n * beneficiary to extract the tokens after a given release time\r\n */\r\ncontract GXTTeamTokenTimelock {\r\n    using SafeERC20 for ERC20Basic;\r\n    using SafeMath for uint256;\r\n\r\n    // ERC20 basic token contract being held\r\n    ERC20Basic public token;\r\n\r\n    // beneficiary of tokens after they are released\r\n    address public beneficiary;\r\n\r\n    // timestamp when token release is enabled\r\n    uint256 public releaseTime;\r\n\r\n    // tokens released already\r\n    uint256 public releasedTokens;\r\n\r\n    uint256 constant public PART_1 = 7500000 * 10 ** 18;\r\n    uint256 constant public PART_2 = 15000000 * 10 ** 18;\r\n    uint256 constant public PART_3 = 22500000 * 10 ** 18;\r\n    uint256 constant public PART_4 = 30000000 * 10 ** 18;\r\n\r\n    event Released(uint256 amount);\r\n\r\n\r\n    constructor(ERC20Basic _token, address _beneficiary, uint256 _releaseTime) public {\r\n        require(_beneficiary != address(0));\r\n        token = _token;\r\n        beneficiary = _beneficiary;\r\n        releaseTime = _releaseTime;\r\n    }\r\n\r\n    /**\r\n    * @notice Transfers tokens held by timelock to beneficiary.\r\n    */\r\n    function release() public {\r\n        // solium-disable-next-line security/no-block-members\r\n        require(block.timestamp >= releaseTime);\r\n\r\n        // uint256 amount = token.balanceOf(this); \r\n        uint256 amount = _getReleasedAmount();\r\n        require(amount > 0);\r\n\r\n        token.safeTransfer(beneficiary, amount);\r\n\r\n        _postRelease(amount);\r\n    }\r\n\r\n    /**\r\n    * @dev Post release function. called after tokens are released.\r\n    */\r\n    function _postRelease(uint256 tokenAmount) internal {\r\n        emit Released(tokenAmount);\r\n        releasedTokens = releasedTokens.add(tokenAmount);\r\n    }\r\n\r\n    /**\r\n    * @dev Get release amount. Override this method to modify the amount released when release is called.\r\n    */\r\n    function _getReleasedAmount() internal view returns(uint256) {\r\n        // before the releaseTime, so the amount is 0\r\n        // solium-disable-next-line security/no-block-members\r\n        if (now < releaseTime) { \r\n            return 0; \r\n        }\r\n        // part 1/4 is released after releaseTime\r\n        // solium-disable-next-line security/no-block-members\r\n        if (now < (releaseTime.add(24 weeks))) { \r\n            return PART_1.sub(releasedTokens);\r\n        }\r\n        // part 2/4 is released 6 months after releaseTime\r\n        // solium-disable-next-line security/no-block-members\r\n        if (now < (releaseTime.add(48 weeks))) { \r\n            return PART_2.sub(releasedTokens); \r\n        }\r\n        // part 3/4 is released 12 months after releaseTime\r\n        // solium-disable-next-line security/no-block-members\r\n        if (now < (releaseTime.add(72 weeks))) { \r\n            return PART_3.sub(releasedTokens); \r\n        }\r\n        // part 4/4 is released 18 months after releaseTime\r\n        return PART_4.sub(releasedTokens);\r\n    }\r\n}",
  "sourcePath": "D:\\Vlad\\CryptoCurrency\\Truffle Projects\\Game_Starter\\contracts\\token\\GXTTeamTokenTimelock.sol",
  "compiler": {
    "name": "solc",
    "version": "0.4.24+commit.e67f0147.Emscripten.clang"
  },
  "schemaVersion": "2.0.1",
  "updatedAt": "2018-07-24T08:59:53.343Z"
}