{
  "contractName": "Migrations",
  "abi": [
    {
      "constant": false,
      "inputs": [],
      "name": "renounceOwnership",
      "outputs": [],
      "payable": false,
      "stateMutability": "nonpayable",
      "type": "function"
    },
    {
      "constant": true,
      "inputs": [],
      "name": "owner",
      "outputs": [
        {
          "name": "",
          "type": "address"
        }
      ],
      "payable": false,
      "stateMutability": "view",
      "type": "function"
    },
    {
      "constant": false,
      "inputs": [
        {
          "name": "_newOwner",
          "type": "address"
        }
      ],
      "name": "transferOwnership",
      "outputs": [],
      "payable": false,
      "stateMutability": "nonpayable",
      "type": "function"
    },
    {
      "constant": true,
      "inputs": [],
      "name": "lastCompletedMigration",
      "outputs": [
        {
          "name": "",
          "type": "uint256"
        }
      ],
      "payable": false,
      "stateMutability": "view",
      "type": "function"
    },
    {
      "anonymous": false,
      "inputs": [
        {
          "indexed": true,
          "name": "previousOwner",
          "type": "address"
        }
      ],
      "name": "OwnershipRenounced",
      "type": "event"
    },
    {
      "anonymous": false,
      "inputs": [
        {
          "indexed": true,
          "name": "previousOwner",
          "type": "address"
        },
        {
          "indexed": true,
          "name": "newOwner",
          "type": "address"
        }
      ],
      "name": "OwnershipTransferred",
      "type": "event"
    },
    {
      "constant": false,
      "inputs": [
        {
          "name": "completed",
          "type": "uint256"
        }
      ],
      "name": "setCompleted",
      "outputs": [],
      "payable": false,
      "stateMutability": "nonpayable",
      "type": "function"
    },
    {
      "constant": false,
      "inputs": [
        {
          "name": "newAddress",
          "type": "address"
        }
      ],
      "name": "upgrade",
      "outputs": [],
      "payable": false,
      "stateMutability": "nonpayable",
      "type": "function"
    }
  ],
  "bytecode": "0x608060405260008054600160a060020a03191633179055610408806100256000396000f3006080604052600436106100775763ffffffff7c01000000000000000000000000000000000000000000000000000000006000350416630900f010811461007c578063715018a6146100ac5780638da5cb5b146100c1578063f2fde38b146100ff578063fbdbad3c1461012d578063fdacd57614610154575b600080fd5b34801561008857600080fd5b506100aa73ffffffffffffffffffffffffffffffffffffffff6004351661016c565b005b3480156100b857600080fd5b506100aa610221565b3480156100cd57600080fd5b506100d66102b2565b6040805173ffffffffffffffffffffffffffffffffffffffff9092168252519081900360200190f35b34801561010b57600080fd5b506100aa73ffffffffffffffffffffffffffffffffffffffff600435166102ce565b34801561013957600080fd5b506101426102fe565b60408051918252519081900360200190f35b34801561016057600080fd5b506100aa600435610304565b6000805473ffffffffffffffffffffffffffffffffffffffff16331461019157600080fd5b8190508073ffffffffffffffffffffffffffffffffffffffff1663fdacd5766001546040518263ffffffff167c010000000000000000000000000000000000000000000000000000000002815260040180828152602001915050600060405180830381600087803b15801561020557600080fd5b505af1158015610219573d6000803e3d6000fd5b505050505050565b60005473ffffffffffffffffffffffffffffffffffffffff16331461024557600080fd5b6000805460405173ffffffffffffffffffffffffffffffffffffffff909116917ff8df31144d9c2f0f6b59d69b8b98abd5459d07f2742c4df920b25aae33c6482091a2600080547fffffffffffffffffffffffff0000000000000000000000000000000000000000169055565b60005473ffffffffffffffffffffffffffffffffffffffff1681565b60005473ffffffffffffffffffffffffffffffffffffffff1633146102f257600080fd5b6102fb8161032d565b50565b60015481565b60005473ffffffffffffffffffffffffffffffffffffffff16331461032857600080fd5b600155565b73ffffffffffffffffffffffffffffffffffffffff8116151561034f57600080fd5b6000805460405173ffffffffffffffffffffffffffffffffffffffff808516939216917f8be0079c531659141344cd1fd0a4f28419497f9722a3daafe3b4186f6b6457e091a3600080547fffffffffffffffffffffffff00000000000000000000000000000000000000001673ffffffffffffffffffffffffffffffffffffffff929092169190911790555600a165627a7a723058201e7573678cd67876fef946e60dc73d92e17096ab54ef5de844921b88627d1e4e0029",
  "source": "pragma solidity ^0.4.24;\r\n\r\nimport \"openzeppelin-solidity/contracts/ownership/Ownable.sol\";\r\n\r\n/**\r\n * @title Migrations\r\n * @dev This is a truffle contract, needed for truffle integration, not meant for use by openzeppelin users.\r\n */\r\ncontract Migrations is Ownable {\r\n    uint256 public lastCompletedMigration;\r\n\r\n    function setCompleted(uint256 completed) onlyOwner public {\r\n        lastCompletedMigration = completed;\r\n    }\r\n\r\n    function upgrade(address newAddress) onlyOwner public {\r\n        Migrations upgraded = Migrations(newAddress);\r\n        upgraded.setCompleted(lastCompletedMigration);\r\n    }\r\n}",
  "sourcePath": "D:\\Vlad\\CryptoCurrency\\Truffle Projects\\Game_Starter\\contracts\\lifecycle\\Migrations.sol",
  "compiler": {
    "name": "solc",
    "version": "0.4.24+commit.e67f0147.Emscripten.clang"
  },
  "schemaVersion": "2.0.1",
  "updatedAt": "2018-07-24T09:00:05.217Z"
}