{
  "contractName": "MockTwoWayWhitelistedCrowdsale",
  "abi": [
    {
      "constant": true,
      "inputs": [
        {
          "name": "_operator",
          "type": "address"
        },
        {
          "name": "_role",
          "type": "string"
        }
      ],
      "name": "checkRole",
      "outputs": [],
      "payable": false,
      "stateMutability": "view",
      "type": "function"
    },
    {
      "constant": false,
      "inputs": [
        {
          "name": "_bouncer",
          "type": "address"
        }
      ],
      "name": "removeBouncer",
      "outputs": [],
      "payable": false,
      "stateMutability": "nonpayable",
      "type": "function"
    },
    {
      "constant": true,
      "inputs": [],
      "name": "ROLE_WHITELISTED",
      "outputs": [
        {
          "name": "",
          "type": "string"
        }
      ],
      "payable": false,
      "stateMutability": "view",
      "type": "function"
    },
    {
      "constant": true,
      "inputs": [
        {
          "name": "_operator",
          "type": "address"
        },
        {
          "name": "_role",
          "type": "string"
        }
      ],
      "name": "hasRole",
      "outputs": [
        {
          "name": "",
          "type": "bool"
        }
      ],
      "payable": false,
      "stateMutability": "view",
      "type": "function"
    },
    {
      "constant": false,
      "inputs": [
        {
          "name": "_operators",
          "type": "address[]"
        }
      ],
      "name": "removeAddressesFromWhitelist",
      "outputs": [],
      "payable": false,
      "stateMutability": "nonpayable",
      "type": "function"
    },
    {
      "constant": false,
      "inputs": [
        {
          "name": "_operator",
          "type": "address"
        }
      ],
      "name": "removeAddressFromWhitelist",
      "outputs": [],
      "payable": false,
      "stateMutability": "nonpayable",
      "type": "function"
    },
    {
      "constant": true,
      "inputs": [],
      "name": "rate",
      "outputs": [
        {
          "name": "",
          "type": "uint256"
        }
      ],
      "payable": false,
      "stateMutability": "view",
      "type": "function"
    },
    {
      "constant": true,
      "inputs": [],
      "name": "weiRaised",
      "outputs": [
        {
          "name": "",
          "type": "uint256"
        }
      ],
      "payable": false,
      "stateMutability": "view",
      "type": "function"
    },
    {
      "constant": true,
      "inputs": [],
      "name": "wallet",
      "outputs": [
        {
          "name": "",
          "type": "address"
        }
      ],
      "payable": false,
      "stateMutability": "view",
      "type": "function"
    },
    {
      "constant": false,
      "inputs": [],
      "name": "renounceOwnership",
      "outputs": [],
      "payable": false,
      "stateMutability": "nonpayable",
      "type": "function"
    },
    {
      "constant": false,
      "inputs": [
        {
          "name": "_operator",
          "type": "address"
        }
      ],
      "name": "addAddressToWhitelist",
      "outputs": [],
      "payable": false,
      "stateMutability": "nonpayable",
      "type": "function"
    },
    {
      "constant": false,
      "inputs": [
        {
          "name": "_bouncer",
          "type": "address"
        }
      ],
      "name": "addBouncer",
      "outputs": [],
      "payable": false,
      "stateMutability": "nonpayable",
      "type": "function"
    },
    {
      "constant": true,
      "inputs": [],
      "name": "owner",
      "outputs": [
        {
          "name": "",
          "type": "address"
        }
      ],
      "payable": false,
      "stateMutability": "view",
      "type": "function"
    },
    {
      "constant": false,
      "inputs": [
        {
          "name": "_beneficiary",
          "type": "address"
        },
        {
          "name": "_sig",
          "type": "bytes"
        }
      ],
      "name": "buyTokensSigned",
      "outputs": [],
      "payable": true,
      "stateMutability": "payable",
      "type": "function"
    },
    {
      "constant": true,
      "inputs": [
        {
          "name": "_operator",
          "type": "address"
        }
      ],
      "name": "whitelist",
      "outputs": [
        {
          "name": "",
          "type": "bool"
        }
      ],
      "payable": false,
      "stateMutability": "view",
      "type": "function"
    },
    {
      "constant": true,
      "inputs": [],
      "name": "ROLE_BOUNCER",
      "outputs": [
        {
          "name": "",
          "type": "string"
        }
      ],
      "payable": false,
      "stateMutability": "view",
      "type": "function"
    },
    {
      "constant": false,
      "inputs": [
        {
          "name": "_operators",
          "type": "address[]"
        }
      ],
      "name": "addAddressesToWhitelist",
      "outputs": [],
      "payable": false,
      "stateMutability": "nonpayable",
      "type": "function"
    },
    {
      "constant": false,
      "inputs": [
        {
          "name": "_beneficiary",
          "type": "address"
        }
      ],
      "name": "buyTokens",
      "outputs": [],
      "payable": true,
      "stateMutability": "payable",
      "type": "function"
    },
    {
      "constant": false,
      "inputs": [
        {
          "name": "_newOwner",
          "type": "address"
        }
      ],
      "name": "transferOwnership",
      "outputs": [],
      "payable": false,
      "stateMutability": "nonpayable",
      "type": "function"
    },
    {
      "constant": true,
      "inputs": [],
      "name": "token",
      "outputs": [
        {
          "name": "",
          "type": "address"
        }
      ],
      "payable": false,
      "stateMutability": "view",
      "type": "function"
    },
    {
      "inputs": [
        {
          "name": "_rate",
          "type": "uint256"
        },
        {
          "name": "_wallet",
          "type": "address"
        },
        {
          "name": "_token",
          "type": "address"
        }
      ],
      "payable": false,
      "stateMutability": "nonpayable",
      "type": "constructor"
    },
    {
      "payable": true,
      "stateMutability": "payable",
      "type": "fallback"
    },
    {
      "anonymous": false,
      "inputs": [
        {
          "indexed": true,
          "name": "operator",
          "type": "address"
        },
        {
          "indexed": false,
          "name": "role",
          "type": "string"
        }
      ],
      "name": "RoleAdded",
      "type": "event"
    },
    {
      "anonymous": false,
      "inputs": [
        {
          "indexed": true,
          "name": "operator",
          "type": "address"
        },
        {
          "indexed": false,
          "name": "role",
          "type": "string"
        }
      ],
      "name": "RoleRemoved",
      "type": "event"
    },
    {
      "anonymous": false,
      "inputs": [
        {
          "indexed": true,
          "name": "previousOwner",
          "type": "address"
        }
      ],
      "name": "OwnershipRenounced",
      "type": "event"
    },
    {
      "anonymous": false,
      "inputs": [
        {
          "indexed": true,
          "name": "previousOwner",
          "type": "address"
        },
        {
          "indexed": true,
          "name": "newOwner",
          "type": "address"
        }
      ],
      "name": "OwnershipTransferred",
      "type": "event"
    },
    {
      "anonymous": false,
      "inputs": [
        {
          "indexed": true,
          "name": "purchaser",
          "type": "address"
        },
        {
          "indexed": true,
          "name": "beneficiary",
          "type": "address"
        },
        {
          "indexed": false,
          "name": "value",
          "type": "uint256"
        },
        {
          "indexed": false,
          "name": "amount",
          "type": "uint256"
        }
      ],
      "name": "TokenPurchase",
      "type": "event"
    }
  ],
  "bytecode": "0x608060405234801561001057600080fd5b5060405160608061164f8339810160409081528151602083015191909201518282826000831161003f57600080fd5b600160a060020a038216151561005457600080fd5b600160a060020a038116151561006957600080fd5b60029290925560018054600160a060020a03928316600160a060020a03199182161790915560008054939092169281169290921790556004805490911633179055505050611593806100bc6000396000f3006080604052600436106101115763ffffffff7c01000000000000000000000000000000000000000000000000000000006000350416630988ca8c811461011c5780631479290e1461019057806318b919e9146101be578063217fe6c61461024857806324953eaa146102d0578063286dd3f5146103255780632c4e722e146103535780634042b66f1461037a578063521eb2731461038f578063715018a6146103cd5780637b9417c8146103e2578063888764c8146104105780638da5cb5b1461043e5780639781c3ca146104535780639b19251a146104ba578063d466ab6b146104e8578063e2ec6ec3146104fd578063ec8ac4d814610552578063f2fde38b14610573578063fc0c546a146105a1575b61011a336105b6565b005b34801561012857600080fd5b5060408051602060046024803582810135601f810185900485028601850190965285855261011a95833573ffffffffffffffffffffffffffffffffffffffff169536956044949193909101919081908401838280828437509497506106039650505050505050565b34801561019c57600080fd5b5061011a73ffffffffffffffffffffffffffffffffffffffff600435166106a9565b3480156101ca57600080fd5b506101d3610731565b6040805160208082528351818301528351919283929083019185019080838360005b8381101561020d5781810151838201526020016101f5565b50505050905090810190601f16801561023a5780820380516001836020036101000a031916815260200191505b509250505060405180910390f35b34801561025457600080fd5b5060408051602060046024803582810135601f81018590048502860185019096528585526102bc95833573ffffffffffffffffffffffffffffffffffffffff169536956044949193909101919081908401838280828437509497506107689650505050505050565b604080519115158252519081900360200190f35b3480156102dc57600080fd5b506040805160206004803580820135838102808601850190965280855261011a953695939460249493850192918291850190849080828437509497506108199650505050505050565b34801561033157600080fd5b5061011a73ffffffffffffffffffffffffffffffffffffffff60043516610875565b34801561035f57600080fd5b506103686108d8565b60408051918252519081900360200190f35b34801561038657600080fd5b506103686108de565b34801561039b57600080fd5b506103a46108e4565b6040805173ffffffffffffffffffffffffffffffffffffffff9092168252519081900360200190f35b3480156103d957600080fd5b5061011a610900565b3480156103ee57600080fd5b5061011a73ffffffffffffffffffffffffffffffffffffffff60043516610993565b34801561041c57600080fd5b5061011a73ffffffffffffffffffffffffffffffffffffffff600435166109f6565b34801561044a57600080fd5b506103a4610a7b565b60408051602060046024803582810135601f810185900485028601850190965285855261011a95833573ffffffffffffffffffffffffffffffffffffffff16953695604494919390910191908190840183828082843750949750610a979650505050505050565b3480156104c657600080fd5b506102bc73ffffffffffffffffffffffffffffffffffffffff60043516610abb565b3480156104f457600080fd5b506101d3610afc565b34801561050957600080fd5b506040805160206004803580820135838102808601850190965280855261011a95369593946024949385019291829185019084908082843750949750610b339650505050505050565b61011a73ffffffffffffffffffffffffffffffffffffffff600435166105b6565b34801561057f57600080fd5b5061011a73ffffffffffffffffffffffffffffffffffffffff60043516610b8f565b3480156105ad57600080fd5b506103a4610bbc565b806105f6816040805190810160405280600981526020017f77686974656c6973740000000000000000000000000000000000000000000000815250610603565b6105ff82610bd8565b5050565b6105ff826005836040518082805190602001908083835b6020831061065757805182527fffffffffffffffffffffffffffffffffffffffffffffffffffffffffffffffe0909201916020918201910161061a565b51815160209384036101000a7fffffffffffffffffffffffffffffffffffffffffffffffffffffffffffffffff0180199092169116179052920194855250604051938490030190922092915050610c82565b60045473ffffffffffffffffffffffffffffffffffffffff1633146106cd57600080fd5b73ffffffffffffffffffffffffffffffffffffffff811615156106ef57600080fd5b61072e816040805190810160405280600781526020017f626f756e63657200000000000000000000000000000000000000000000000000815250610c97565b50565b60408051808201909152600981527f77686974656c6973740000000000000000000000000000000000000000000000602082015281565b6000610810836005846040518082805190602001908083835b602083106107be57805182527fffffffffffffffffffffffffffffffffffffffffffffffffffffffffffffffe09092019160209182019101610781565b51815160209384036101000a7fffffffffffffffffffffffffffffffffffffffffffffffffffffffffffffffff0180199092169116179052920194855250604051938490030190922092915050610df1565b90505b92915050565b60045460009073ffffffffffffffffffffffffffffffffffffffff16331461084057600080fd5b5060005b81518110156105ff5761086d828281518110151561085e57fe5b90602001906020020151610875565b600101610844565b60045473ffffffffffffffffffffffffffffffffffffffff16331461089957600080fd5b61072e816040805190810160405280600981526020017f77686974656c6973740000000000000000000000000000000000000000000000815250610c97565b60025481565b60035481565b60015473ffffffffffffffffffffffffffffffffffffffff1681565b60045473ffffffffffffffffffffffffffffffffffffffff16331461092457600080fd5b60045460405173ffffffffffffffffffffffffffffffffffffffff909116907ff8df31144d9c2f0f6b59d69b8b98abd5459d07f2742c4df920b25aae33c6482090600090a2600480547fffffffffffffffffffffffff0000000000000000000000000000000000000000169055565b60045473ffffffffffffffffffffffffffffffffffffffff1633146109b757600080fd5b61072e816040805190810160405280600981526020017f77686974656c6973740000000000000000000000000000000000000000000000815250610e1d565b60045473ffffffffffffffffffffffffffffffffffffffff163314610a1a57600080fd5b73ffffffffffffffffffffffffffffffffffffffff81161515610a3c57600080fd5b61072e816040805190810160405280600781526020017f626f756e63657200000000000000000000000000000000000000000000000000815250610e1d565b60045473ffffffffffffffffffffffffffffffffffffffff1681565b80610aa23382610f38565b1515610aad57600080fd5b610ab683610bd8565b505050565b6000610813826040805190810160405280600981526020017f77686974656c6973740000000000000000000000000000000000000000000000815250610768565b60408051808201909152600781527f626f756e63657200000000000000000000000000000000000000000000000000602082015281565b60045460009073ffffffffffffffffffffffffffffffffffffffff163314610b5a57600080fd5b5060005b81518110156105ff57610b878282815181101515610b7857fe5b90602001906020020151610993565b600101610b5e565b60045473ffffffffffffffffffffffffffffffffffffffff163314610bb357600080fd5b61072e8161100d565b60005473ffffffffffffffffffffffffffffffffffffffff1681565b346000610be583836110bd565b610bee826110eb565b600354909150610c04908363ffffffff61110216565b600355610c11838261110f565b6040805183815260208101839052815173ffffffffffffffffffffffffffffffffffffffff86169233927f623b3804fa71d67900d064613da8f94b9617215ee90799290593e1745087ad18929081900390910190a3610c7083836105ff565b610c78611119565b610ab683836105ff565b610c8c8282610df1565b15156105ff57600080fd5b610d3d826005836040518082805190602001908083835b60208310610ceb57805182527fffffffffffffffffffffffffffffffffffffffffffffffffffffffffffffffe09092019160209182019101610cae565b51815160209384036101000a7fffffffffffffffffffffffffffffffffffffffffffffffffffffffffffffffff018019909216911617905292019485525060405193849003019092209291505061115f565b8173ffffffffffffffffffffffffffffffffffffffff167fd211483f91fc6eff862467f8de606587a30c8fc9981056f051b897a418df803a826040518080602001828103825283818151815260200191508051906020019080838360005b83811015610db3578181015183820152602001610d9b565b50505050905090810190601f168015610de05780820380516001836020036101000a031916815260200191505b509250505060405180910390a25050565b73ffffffffffffffffffffffffffffffffffffffff166000908152602091909152604090205460ff1690565b610ec3826005836040518082805190602001908083835b60208310610e7157805182527fffffffffffffffffffffffffffffffffffffffffffffffffffffffffffffffe09092019160209182019101610e34565b51815160209384036101000a7fffffffffffffffffffffffffffffffffffffffffffffffffffffffffffffffff01801990921691161790529201948552506040519384900301909220929150506111ac565b8173ffffffffffffffffffffffffffffffffffffffff167fbfec83d64eaa953f2708271a023ab9ee82057f8f3578d548c1a4ba0b5b7004898260405180806020018281038252838181518152602001915080519060200190808383600083811015610db3578181015183820152602001610d9b565b604080516c0100000000000000000000000030810260208084019190915273ffffffffffffffffffffffffffffffffffffffff861690910260348301528251602881840301815260489092019283905281516000936108109392909182918401908083835b60208310610fda57805182527fffffffffffffffffffffffffffffffffffffffffffffffffffffffffffffffe09092019160209182019101610f9d565b6001836020036101000a0380198251168184511680821785525050505050509050019150506040518091039020836111fc565b73ffffffffffffffffffffffffffffffffffffffff8116151561102f57600080fd5b60045460405173ffffffffffffffffffffffffffffffffffffffff8084169216907f8be0079c531659141344cd1fd0a4f28419497f9722a3daafe3b4186f6b6457e090600090a3600480547fffffffffffffffffffffffff00000000000000000000000000000000000000001673ffffffffffffffffffffffffffffffffffffffff92909216919091179055565b73ffffffffffffffffffffffffffffffffffffffff821615156110df57600080fd5b8015156105ff57600080fd5b60006108136002548361126190919063ffffffff16565b8181018281101561081357fe5b6105ff828261128a565b60015460405173ffffffffffffffffffffffffffffffffffffffff909116903480156108fc02916000818181858888f1935050505015801561072e573d6000803e3d6000fd5b73ffffffffffffffffffffffffffffffffffffffff1660009081526020919091526040902080547fffffffffffffffffffffffffffffffffffffffffffffffffffffffffffffff00169055565b73ffffffffffffffffffffffffffffffffffffffff1660009081526020919091526040902080547fffffffffffffffffffffffffffffffffffffffffffffffffffffffffffffff00166001179055565b6000806112188361120c866112b4565b9063ffffffff61139a16565b9050611259816040805190810160405280600781526020017f626f756e63657200000000000000000000000000000000000000000000000000815250610768565b949350505050565b600082151561127257506000610813565b5081810281838281151561128257fe5b041461081357fe5b6000546105ff9073ffffffffffffffffffffffffffffffffffffffff16838363ffffffff61148d16565b604080517f19457468657265756d205369676e6564204d6573736167653a0a333200000000602080830191909152603c80830185905283518084039091018152605c909201928390528151600093918291908401908083835b6020831061134a57805182527fffffffffffffffffffffffffffffffffffffffffffffffffffffffffffffffe0909201916020918201910161130d565b5181516020939093036101000a7fffffffffffffffffffffffffffffffffffffffffffffffffffffffffffffffff0180199091169216919091179052604051920182900390912095945050505050565b600080600080845160411415156113b45760009350611484565b50505060208201516040830151606084015160001a601b60ff821610156113d957601b015b8060ff16601b141580156113f157508060ff16601c14155b156113ff5760009350611484565b60408051600080825260208083018085528a905260ff8516838501526060830187905260808301869052925160019360a08085019491937fffffffffffffffffffffffffffffffffffffffffffffffffffffffffffffffe0840193928390039091019190865af1158015611477573d6000803e3d6000fd5b5050506020604051035193505b50505092915050565b8273ffffffffffffffffffffffffffffffffffffffff1663a9059cbb83836040518363ffffffff167c0100000000000000000000000000000000000000000000000000000000028152600401808373ffffffffffffffffffffffffffffffffffffffff1673ffffffffffffffffffffffffffffffffffffffff16815260200182815260200192505050602060405180830381600087803b15801561153057600080fd5b505af1158015611544573d6000803e3d6000fd5b505050506040513d602081101561155a57600080fd5b50511515610ab657600080fd00a165627a7a7230582042aa533e5f33df5b8d02575e37c8dc5378cec659f25c8864841d7281402615b20029",
  "source": "pragma solidity ^0.4.24;\r\n\r\nimport \"../crowdsale/validation/TwoWayWhitelistedCrowdsale.sol\";\r\nimport \"../token/GXToken.sol\";\r\n\r\n/**\r\n * @title MockTwoWayWhitelistedCrowdsale\r\n */\r\ncontract MockTwoWayWhitelistedCrowdsale is TwoWayWhitelistedCrowdsale {\r\n\r\n    constructor (\r\n        uint256 _rate,\r\n        address _wallet,\r\n        GXToken _token\r\n    ) \r\n        public\r\n        Crowdsale(_rate, _wallet, _token)\r\n    {\r\n    }\r\n}",
  "sourcePath": "D:\\Vlad\\CryptoCurrency\\Truffle Projects\\Game_Starter\\contracts\\mocks\\MockTwoWayWhitelistedCrowdsale.sol",
  "compiler": {
    "name": "solc",
    "version": "0.4.24+commit.e67f0147.Emscripten.clang"
  },
  "schemaVersion": "2.0.1",
  "updatedAt": "2018-07-20T13:46:21.486Z"
}