{
  "contractName": "MockGXTCrowdsale",
  "abi": [
    {
      "constant": true,
      "inputs": [
        {
          "name": "_operator",
          "type": "address"
        },
        {
          "name": "_role",
          "type": "string"
        }
      ],
      "name": "checkRole",
      "outputs": [],
      "payable": false,
      "stateMutability": "view",
      "type": "function"
    },
    {
      "constant": false,
      "inputs": [
        {
          "name": "_bouncer",
          "type": "address"
        }
      ],
      "name": "removeBouncer",
      "outputs": [],
      "payable": false,
      "stateMutability": "nonpayable",
      "type": "function"
    },
    {
      "constant": true,
      "inputs": [],
      "name": "ROLE_WHITELISTED",
      "outputs": [
        {
          "name": "",
          "type": "string"
        }
      ],
      "payable": false,
      "stateMutability": "view",
      "type": "function"
    },
    {
      "constant": true,
      "inputs": [
        {
          "name": "_operator",
          "type": "address"
        },
        {
          "name": "_role",
          "type": "string"
        }
      ],
      "name": "hasRole",
      "outputs": [
        {
          "name": "",
          "type": "bool"
        }
      ],
      "payable": false,
      "stateMutability": "view",
      "type": "function"
    },
    {
      "constant": false,
      "inputs": [
        {
          "name": "_operators",
          "type": "address[]"
        }
      ],
      "name": "removeAddressesFromWhitelist",
      "outputs": [],
      "payable": false,
      "stateMutability": "nonpayable",
      "type": "function"
    },
    {
      "constant": false,
      "inputs": [
        {
          "name": "_operator",
          "type": "address"
        }
      ],
      "name": "removeAddressFromWhitelist",
      "outputs": [],
      "payable": false,
      "stateMutability": "nonpayable",
      "type": "function"
    },
    {
      "constant": true,
      "inputs": [],
      "name": "rate",
      "outputs": [
        {
          "name": "",
          "type": "uint256"
        }
      ],
      "payable": false,
      "stateMutability": "view",
      "type": "function"
    },
    {
      "constant": true,
      "inputs": [],
      "name": "weiRaised",
      "outputs": [
        {
          "name": "",
          "type": "uint256"
        }
      ],
      "payable": false,
      "stateMutability": "view",
      "type": "function"
    },
    {
      "constant": true,
      "inputs": [],
      "name": "wallet",
      "outputs": [
        {
          "name": "",
          "type": "address"
        }
      ],
      "payable": false,
      "stateMutability": "view",
      "type": "function"
    },
    {
      "constant": false,
      "inputs": [],
      "name": "renounceOwnership",
      "outputs": [],
      "payable": false,
      "stateMutability": "nonpayable",
      "type": "function"
    },
    {
      "constant": false,
      "inputs": [
        {
          "name": "_operator",
          "type": "address"
        }
      ],
      "name": "addAddressToWhitelist",
      "outputs": [],
      "payable": false,
      "stateMutability": "nonpayable",
      "type": "function"
    },
    {
      "constant": false,
      "inputs": [
        {
          "name": "_bouncer",
          "type": "address"
        }
      ],
      "name": "addBouncer",
      "outputs": [],
      "payable": false,
      "stateMutability": "nonpayable",
      "type": "function"
    },
    {
      "constant": true,
      "inputs": [],
      "name": "owner",
      "outputs": [
        {
          "name": "",
          "type": "address"
        }
      ],
      "payable": false,
      "stateMutability": "view",
      "type": "function"
    },
    {
      "constant": false,
      "inputs": [
        {
          "name": "_beneficiary",
          "type": "address"
        },
        {
          "name": "_sig",
          "type": "bytes"
        }
      ],
      "name": "buyTokensSigned",
      "outputs": [],
      "payable": true,
      "stateMutability": "payable",
      "type": "function"
    },
    {
      "constant": true,
      "inputs": [
        {
          "name": "_operator",
          "type": "address"
        }
      ],
      "name": "whitelist",
      "outputs": [
        {
          "name": "",
          "type": "bool"
        }
      ],
      "payable": false,
      "stateMutability": "view",
      "type": "function"
    },
    {
      "constant": true,
      "inputs": [],
      "name": "ROLE_BOUNCER",
      "outputs": [
        {
          "name": "",
          "type": "string"
        }
      ],
      "payable": false,
      "stateMutability": "view",
      "type": "function"
    },
    {
      "constant": false,
      "inputs": [
        {
          "name": "_operators",
          "type": "address[]"
        }
      ],
      "name": "addAddressesToWhitelist",
      "outputs": [],
      "payable": false,
      "stateMutability": "nonpayable",
      "type": "function"
    },
    {
      "constant": false,
      "inputs": [
        {
          "name": "_beneficiary",
          "type": "address"
        }
      ],
      "name": "buyTokens",
      "outputs": [],
      "payable": true,
      "stateMutability": "payable",
      "type": "function"
    },
    {
      "constant": false,
      "inputs": [
        {
          "name": "_newOwner",
          "type": "address"
        }
      ],
      "name": "transferOwnership",
      "outputs": [],
      "payable": false,
      "stateMutability": "nonpayable",
      "type": "function"
    },
    {
      "constant": true,
      "inputs": [],
      "name": "token",
      "outputs": [
        {
          "name": "",
          "type": "address"
        }
      ],
      "payable": false,
      "stateMutability": "view",
      "type": "function"
    },
    {
      "inputs": [
        {
          "name": "_rate",
          "type": "uint256"
        },
        {
          "name": "_wallet",
          "type": "address"
        },
        {
          "name": "_token",
          "type": "address"
        }
      ],
      "payable": false,
      "stateMutability": "nonpayable",
      "type": "constructor"
    },
    {
      "payable": true,
      "stateMutability": "payable",
      "type": "fallback"
    },
    {
      "anonymous": false,
      "inputs": [
        {
          "indexed": true,
          "name": "operator",
          "type": "address"
        },
        {
          "indexed": false,
          "name": "role",
          "type": "string"
        }
      ],
      "name": "RoleAdded",
      "type": "event"
    },
    {
      "anonymous": false,
      "inputs": [
        {
          "indexed": true,
          "name": "operator",
          "type": "address"
        },
        {
          "indexed": false,
          "name": "role",
          "type": "string"
        }
      ],
      "name": "RoleRemoved",
      "type": "event"
    },
    {
      "anonymous": false,
      "inputs": [
        {
          "indexed": true,
          "name": "previousOwner",
          "type": "address"
        }
      ],
      "name": "OwnershipRenounced",
      "type": "event"
    },
    {
      "anonymous": false,
      "inputs": [
        {
          "indexed": true,
          "name": "previousOwner",
          "type": "address"
        },
        {
          "indexed": true,
          "name": "newOwner",
          "type": "address"
        }
      ],
      "name": "OwnershipTransferred",
      "type": "event"
    },
    {
      "anonymous": false,
      "inputs": [
        {
          "indexed": true,
          "name": "purchaser",
          "type": "address"
        },
        {
          "indexed": true,
          "name": "beneficiary",
          "type": "address"
        },
        {
          "indexed": false,
          "name": "value",
          "type": "uint256"
        },
        {
          "indexed": false,
          "name": "amount",
          "type": "uint256"
        }
      ],
      "name": "TokenPurchase",
      "type": "event"
    },
    {
      "constant": false,
      "inputs": [],
      "name": "claimTokenOwnership",
      "outputs": [],
      "payable": false,
      "stateMutability": "nonpayable",
      "type": "function"
    }
  ],
  "bytecode": "0x608060405234801561001057600080fd5b506040516060806116c68339810160409081528151602083015191909201518282826000831161003f57600080fd5b600160a060020a038216151561005457600080fd5b600160a060020a038116151561006957600080fd5b60029290925560018054600160a060020a03928316600160a060020a0319918216179091556000805493909216928116929092179055600480549091163317905550505061160a806100bc6000396000f30060806040526004361061011c5763ffffffff7c01000000000000000000000000000000000000000000000000000000006000350416630988ca8c811461012757806310731a651461019b5780631479290e146101b057806318b919e9146101de578063217fe6c61461026857806324953eaa146102f0578063286dd3f5146103455780632c4e722e146103735780634042b66f1461039a578063521eb273146103af578063715018a6146103ed5780637b9417c814610402578063888764c8146104305780638da5cb5b1461045e5780639781c3ca146104735780639b19251a146104da578063d466ab6b14610508578063e2ec6ec31461051d578063ec8ac4d814610572578063f2fde38b14610593578063fc0c546a146105c1575b610125336105d6565b005b34801561013357600080fd5b5060408051602060046024803582810135601f810185900485028601850190965285855261012595833573ffffffffffffffffffffffffffffffffffffffff169536956044949193909101919081908401838280828437509497506106239650505050505050565b3480156101a757600080fd5b506101256106c9565b3480156101bc57600080fd5b5061012573ffffffffffffffffffffffffffffffffffffffff6004351661076e565b3480156101ea57600080fd5b506101f36107f6565b6040805160208082528351818301528351919283929083019185019080838360005b8381101561022d578181015183820152602001610215565b50505050905090810190601f16801561025a5780820380516001836020036101000a031916815260200191505b509250505060405180910390f35b34801561027457600080fd5b5060408051602060046024803582810135601f81018590048502860185019096528585526102dc95833573ffffffffffffffffffffffffffffffffffffffff1695369560449491939091019190819084018382808284375094975061082d9650505050505050565b604080519115158252519081900360200190f35b3480156102fc57600080fd5b5060408051602060048035808201358381028086018501909652808552610125953695939460249493850192918291850190849080828437509497506108de9650505050505050565b34801561035157600080fd5b5061012573ffffffffffffffffffffffffffffffffffffffff6004351661093a565b34801561037f57600080fd5b5061038861099d565b60408051918252519081900360200190f35b3480156103a657600080fd5b506103886109a3565b3480156103bb57600080fd5b506103c46109a9565b6040805173ffffffffffffffffffffffffffffffffffffffff9092168252519081900360200190f35b3480156103f957600080fd5b506101256109c5565b34801561040e57600080fd5b5061012573ffffffffffffffffffffffffffffffffffffffff60043516610a58565b34801561043c57600080fd5b5061012573ffffffffffffffffffffffffffffffffffffffff60043516610abb565b34801561046a57600080fd5b506103c4610b40565b60408051602060046024803582810135601f810185900485028601850190965285855261012595833573ffffffffffffffffffffffffffffffffffffffff16953695604494919390910191908190840183828082843750949750610b5c9650505050505050565b3480156104e657600080fd5b506102dc73ffffffffffffffffffffffffffffffffffffffff60043516610b80565b34801561051457600080fd5b506101f3610bc1565b34801561052957600080fd5b506040805160206004803580820135838102808601850190965280855261012595369593946024949385019291829185019084908082843750949750610bf89650505050505050565b61012573ffffffffffffffffffffffffffffffffffffffff600435166105d6565b34801561059f57600080fd5b5061012573ffffffffffffffffffffffffffffffffffffffff60043516610c54565b3480156105cd57600080fd5b506103c4610c81565b80610616816040805190810160405280600981526020017f77686974656c6973740000000000000000000000000000000000000000000000815250610623565b61061f82610c9d565b5050565b61061f826005836040518082805190602001908083835b6020831061067757805182527fffffffffffffffffffffffffffffffffffffffffffffffffffffffffffffffe0909201916020918201910161063a565b51815160209384036101000a7fffffffffffffffffffffffffffffffffffffffffffffffffffffffffffffffff0180199092169116179052920194855250604051938490030190922092915050610d47565b60045473ffffffffffffffffffffffffffffffffffffffff1633146106ed57600080fd5b60008054604080517f4e71e0c8000000000000000000000000000000000000000000000000000000008152905173ffffffffffffffffffffffffffffffffffffffff90921692634e71e0c89260048084019382900301818387803b15801561075457600080fd5b505af1158015610768573d6000803e3d6000fd5b50505050565b60045473ffffffffffffffffffffffffffffffffffffffff16331461079257600080fd5b73ffffffffffffffffffffffffffffffffffffffff811615156107b457600080fd5b6107f3816040805190810160405280600781526020017f626f756e63657200000000000000000000000000000000000000000000000000815250610d5c565b50565b60408051808201909152600981527f77686974656c6973740000000000000000000000000000000000000000000000602082015281565b60006108d5836005846040518082805190602001908083835b6020831061088357805182527fffffffffffffffffffffffffffffffffffffffffffffffffffffffffffffffe09092019160209182019101610846565b51815160209384036101000a7fffffffffffffffffffffffffffffffffffffffffffffffffffffffffffffffff0180199092169116179052920194855250604051938490030190922092915050610eb6565b90505b92915050565b60045460009073ffffffffffffffffffffffffffffffffffffffff16331461090557600080fd5b5060005b815181101561061f57610932828281518110151561092357fe5b9060200190602002015161093a565b600101610909565b60045473ffffffffffffffffffffffffffffffffffffffff16331461095e57600080fd5b6107f3816040805190810160405280600981526020017f77686974656c6973740000000000000000000000000000000000000000000000815250610d5c565b60025481565b60035481565b60015473ffffffffffffffffffffffffffffffffffffffff1681565b60045473ffffffffffffffffffffffffffffffffffffffff1633146109e957600080fd5b60045460405173ffffffffffffffffffffffffffffffffffffffff909116907ff8df31144d9c2f0f6b59d69b8b98abd5459d07f2742c4df920b25aae33c6482090600090a2600480547fffffffffffffffffffffffff0000000000000000000000000000000000000000169055565b60045473ffffffffffffffffffffffffffffffffffffffff163314610a7c57600080fd5b6107f3816040805190810160405280600981526020017f77686974656c6973740000000000000000000000000000000000000000000000815250610ee2565b60045473ffffffffffffffffffffffffffffffffffffffff163314610adf57600080fd5b73ffffffffffffffffffffffffffffffffffffffff81161515610b0157600080fd5b6107f3816040805190810160405280600781526020017f626f756e63657200000000000000000000000000000000000000000000000000815250610ee2565b60045473ffffffffffffffffffffffffffffffffffffffff1681565b80610b673382610ffd565b1515610b7257600080fd5b610b7b83610c9d565b505050565b60006108d8826040805190810160405280600981526020017f77686974656c697374000000000000000000000000000000000000000000000081525061082d565b60408051808201909152600781527f626f756e63657200000000000000000000000000000000000000000000000000602082015281565b60045460009073ffffffffffffffffffffffffffffffffffffffff163314610c1f57600080fd5b5060005b815181101561061f57610c4c8282815181101515610c3d57fe5b90602001906020020151610a58565b600101610c23565b60045473ffffffffffffffffffffffffffffffffffffffff163314610c7857600080fd5b6107f3816110d2565b60005473ffffffffffffffffffffffffffffffffffffffff1681565b346000610caa8383611182565b610cb3826111b0565b600354909150610cc9908363ffffffff6111c716565b600355610cd683826111d4565b6040805183815260208101839052815173ffffffffffffffffffffffffffffffffffffffff86169233927f623b3804fa71d67900d064613da8f94b9617215ee90799290593e1745087ad18929081900390910190a3610d35838361061f565b610d3d6111de565b610b7b838361061f565b610d518282610eb6565b151561061f57600080fd5b610e02826005836040518082805190602001908083835b60208310610db057805182527fffffffffffffffffffffffffffffffffffffffffffffffffffffffffffffffe09092019160209182019101610d73565b51815160209384036101000a7fffffffffffffffffffffffffffffffffffffffffffffffffffffffffffffffff0180199092169116179052920194855250604051938490030190922092915050611224565b8173ffffffffffffffffffffffffffffffffffffffff167fd211483f91fc6eff862467f8de606587a30c8fc9981056f051b897a418df803a826040518080602001828103825283818151815260200191508051906020019080838360005b83811015610e78578181015183820152602001610e60565b50505050905090810190601f168015610ea55780820380516001836020036101000a031916815260200191505b509250505060405180910390a25050565b73ffffffffffffffffffffffffffffffffffffffff166000908152602091909152604090205460ff1690565b610f88826005836040518082805190602001908083835b60208310610f3657805182527fffffffffffffffffffffffffffffffffffffffffffffffffffffffffffffffe09092019160209182019101610ef9565b51815160209384036101000a7fffffffffffffffffffffffffffffffffffffffffffffffffffffffffffffffff0180199092169116179052920194855250604051938490030190922092915050611271565b8173ffffffffffffffffffffffffffffffffffffffff167fbfec83d64eaa953f2708271a023ab9ee82057f8f3578d548c1a4ba0b5b7004898260405180806020018281038252838181518152602001915080519060200190808383600083811015610e78578181015183820152602001610e60565b604080516c0100000000000000000000000030810260208084019190915273ffffffffffffffffffffffffffffffffffffffff861690910260348301528251602881840301815260489092019283905281516000936108d59392909182918401908083835b6020831061109f57805182527fffffffffffffffffffffffffffffffffffffffffffffffffffffffffffffffe09092019160209182019101611062565b6001836020036101000a0380198251168184511680821785525050505050509050019150506040518091039020836112c1565b73ffffffffffffffffffffffffffffffffffffffff811615156110f457600080fd5b60045460405173ffffffffffffffffffffffffffffffffffffffff8084169216907f8be0079c531659141344cd1fd0a4f28419497f9722a3daafe3b4186f6b6457e090600090a3600480547fffffffffffffffffffffffff00000000000000000000000000000000000000001673ffffffffffffffffffffffffffffffffffffffff92909216919091179055565b73ffffffffffffffffffffffffffffffffffffffff821615156111a457600080fd5b80151561061f57600080fd5b60006108d86002548361132690919063ffffffff16565b818101828110156108d857fe5b61061f828261134f565b60015460405173ffffffffffffffffffffffffffffffffffffffff909116903480156108fc02916000818181858888f193505050501580156107f3573d6000803e3d6000fd5b73ffffffffffffffffffffffffffffffffffffffff1660009081526020919091526040902080547fffffffffffffffffffffffffffffffffffffffffffffffffffffffffffffff00169055565b73ffffffffffffffffffffffffffffffffffffffff1660009081526020919091526040902080547fffffffffffffffffffffffffffffffffffffffffffffffffffffffffffffff00166001179055565b6000806112dd836112d186611405565b9063ffffffff6114eb16565b905061131e816040805190810160405280600781526020017f626f756e6365720000000000000000000000000000000000000000000000000081525061082d565b949350505050565b6000821515611337575060006108d8565b5081810281838281151561134757fe5b04146108d857fe5b60008054604080517f40c10f1900000000000000000000000000000000000000000000000000000000815273ffffffffffffffffffffffffffffffffffffffff868116600483015260248201869052915191909216926340c10f1992604480820193602093909283900390910190829087803b1580156113ce57600080fd5b505af11580156113e2573d6000803e3d6000fd5b505050506040513d60208110156113f857600080fd5b5051151561061f57600080fd5b604080517f19457468657265756d205369676e6564204d6573736167653a0a333200000000602080830191909152603c80830185905283518084039091018152605c909201928390528151600093918291908401908083835b6020831061149b57805182527fffffffffffffffffffffffffffffffffffffffffffffffffffffffffffffffe0909201916020918201910161145e565b5181516020939093036101000a7fffffffffffffffffffffffffffffffffffffffffffffffffffffffffffffffff0180199091169216919091179052604051920182900390912095945050505050565b6000806000808451604114151561150557600093506115d5565b50505060208201516040830151606084015160001a601b60ff8216101561152a57601b015b8060ff16601b1415801561154257508060ff16601c14155b1561155057600093506115d5565b60408051600080825260208083018085528a905260ff8516838501526060830187905260808301869052925160019360a08085019491937fffffffffffffffffffffffffffffffffffffffffffffffffffffffffffffffe0840193928390039091019190865af11580156115c8573d6000803e3d6000fd5b5050506020604051035193505b505050929150505600a165627a7a723058204d1c961fe40e82ed9f0a7749bc666c9ff0cd329076f6c3aac62e9cdaf24c255f0029",
  "source": "pragma solidity ^0.4.24;\r\n\r\nimport \"openzeppelin-solidity/contracts/crowdsale/emission/MintedCrowdsale.sol\";\r\nimport \"../crowdsale/validation/TwoWayWhitelistedCrowdsale.sol\";\r\nimport \"../token/GXToken.sol\";\r\n\r\n/**\r\n * @title MockGXTCrowdsale\r\n */\r\ncontract MockGXTCrowdsale is TwoWayWhitelistedCrowdsale, MintedCrowdsale {\r\n\r\n    constructor (\r\n        uint256 _rate,\r\n        address _wallet,\r\n        GXToken _token\r\n    ) \r\n        public\r\n        Crowdsale(_rate, _wallet, _token)\r\n    {\r\n    }\r\n\r\n    function claimTokenOwnership() public onlyOwner {\r\n        GXToken(token).claimOwnership();\r\n    }\r\n}",
  "sourcePath": "D:\\Vlad\\CryptoCurrency\\Truffle Projects\\Game_Starter\\contracts\\mocks\\MockGXTCrowdsale.sol",
  "compiler": {
    "name": "solc",
    "version": "0.4.24+commit.e67f0147.Emscripten.clang"
  },
  "schemaVersion": "2.0.1",
  "updatedAt": "2018-07-24T08:59:53.344Z"
}