{
  "contractName": "Owned",
  "abi": [
    {
      "constant": true,
      "inputs": [],
      "name": "owner",
      "outputs": [
        {
          "name": "",
          "type": "address"
        }
      ],
      "payable": false,
      "stateMutability": "view",
      "type": "function"
    },
    {
      "constant": true,
      "inputs": [],
      "name": "newOwner",
      "outputs": [
        {
          "name": "",
          "type": "address"
        }
      ],
      "payable": false,
      "stateMutability": "view",
      "type": "function"
    },
    {
      "inputs": [],
      "payable": false,
      "stateMutability": "nonpayable",
      "type": "constructor"
    },
    {
      "anonymous": false,
      "inputs": [
        {
          "indexed": true,
          "name": "_prevOwner",
          "type": "address"
        },
        {
          "indexed": true,
          "name": "_newOwner",
          "type": "address"
        }
      ],
      "name": "OwnerUpdate",
      "type": "event"
    },
    {
      "constant": false,
      "inputs": [
        {
          "name": "_newOwner",
          "type": "address"
        }
      ],
      "name": "transferOwnership",
      "outputs": [],
      "payable": false,
      "stateMutability": "nonpayable",
      "type": "function"
    },
    {
      "constant": false,
      "inputs": [],
      "name": "acceptOwnership",
      "outputs": [],
      "payable": false,
      "stateMutability": "nonpayable",
      "type": "function"
    }
  ],
  "bytecode": "0x608060405234801561001057600080fd5b5060008054600160a060020a031916331790556102ac806100326000396000f3006080604052600436106100615763ffffffff7c010000000000000000000000000000000000000000000000000000000060003504166379ba509781146100665780638da5cb5b1461007d578063d4ee1d90146100bb578063f2fde38b146100d0575b600080fd5b34801561007257600080fd5b5061007b6100fe565b005b34801561008957600080fd5b506100926101b8565b6040805173ffffffffffffffffffffffffffffffffffffffff9092168252519081900360200190f35b3480156100c757600080fd5b506100926101d4565b3480156100dc57600080fd5b5061007b73ffffffffffffffffffffffffffffffffffffffff600435166101f0565b60015473ffffffffffffffffffffffffffffffffffffffff16331461012257600080fd5b6001546000805460405173ffffffffffffffffffffffffffffffffffffffff93841693909116917f343765429aea5a34b3ff6a3785a98a5abb2597aca87bfbb58632c173d585373a91a360018054600080547fffffffffffffffffffffffff000000000000000000000000000000000000000090811673ffffffffffffffffffffffffffffffffffffffff841617909155169055565b60005473ffffffffffffffffffffffffffffffffffffffff1681565b60015473ffffffffffffffffffffffffffffffffffffffff1681565b60005473ffffffffffffffffffffffffffffffffffffffff16331461021157fe5b60005473ffffffffffffffffffffffffffffffffffffffff8281169116141561023957600080fd5b600180547fffffffffffffffffffffffff00000000000000000000000000000000000000001673ffffffffffffffffffffffffffffffffffffffff929092169190911790555600a165627a7a7230582021ebc4d9cc9078821df982a3e95efa7aa53a65b10904b8ae7916f6c41850e70a0029",
  "source": "pragma solidity ^0.4.23;\r\nimport './interfaces/IOwned.sol';\r\n\r\n/*\r\n    Provides support and utilities for contract ownership\r\n*/\r\ncontract Owned is IOwned {\r\n    address public owner;\r\n    address public newOwner;\r\n\r\n    event OwnerUpdate(address indexed _prevOwner, address indexed _newOwner);\r\n\r\n    /**\r\n        @dev constructor\r\n    */\r\n    constructor() public {\r\n        owner = msg.sender;\r\n    }\r\n\r\n    // allows execution by the owner only\r\n    modifier ownerOnly {\r\n        assert(msg.sender == owner);\r\n        _;\r\n    }\r\n\r\n    /**\r\n        @dev allows transferring the contract ownership\r\n        the new owner still needs to accept the transfer\r\n        can only be called by the contract owner\r\n\r\n        @param _newOwner    new contract owner\r\n    */\r\n    function transferOwnership(address _newOwner) public ownerOnly {\r\n        require(_newOwner != owner);\r\n        newOwner = _newOwner;\r\n    }\r\n\r\n    /**\r\n        @dev used by a new owner to accept an ownership transfer\r\n    */\r\n    function acceptOwnership() public {\r\n        require(msg.sender == newOwner);\r\n        emit OwnerUpdate(owner, newOwner);\r\n        owner = newOwner;\r\n        newOwner = address(0);\r\n    }\r\n}\r\n",
  "sourcePath": "bancor-contracts\\solidity\\contracts\\utility\\Owned.sol",
  "compiler": {
    "name": "solc",
    "version": "0.4.24+commit.e67f0147.Emscripten.clang"
  },
  "schemaVersion": "2.0.1",
  "updatedAt": "2018-07-24T08:59:53.382Z"
}