{
  "contractName": "RefundEscrow",
  "abi": [
    {
      "constant": true,
      "inputs": [],
      "name": "beneficiary",
      "outputs": [
        {
          "name": "",
          "type": "address"
        }
      ],
      "payable": false,
      "stateMutability": "view",
      "type": "function"
    },
    {
      "constant": false,
      "inputs": [
        {
          "name": "_payee",
          "type": "address"
        }
      ],
      "name": "withdraw",
      "outputs": [],
      "payable": false,
      "stateMutability": "nonpayable",
      "type": "function"
    },
    {
      "constant": false,
      "inputs": [],
      "name": "renounceOwnership",
      "outputs": [],
      "payable": false,
      "stateMutability": "nonpayable",
      "type": "function"
    },
    {
      "constant": true,
      "inputs": [],
      "name": "owner",
      "outputs": [
        {
          "name": "",
          "type": "address"
        }
      ],
      "payable": false,
      "stateMutability": "view",
      "type": "function"
    },
    {
      "constant": true,
      "inputs": [],
      "name": "state",
      "outputs": [
        {
          "name": "",
          "type": "uint8"
        }
      ],
      "payable": false,
      "stateMutability": "view",
      "type": "function"
    },
    {
      "constant": true,
      "inputs": [
        {
          "name": "_payee",
          "type": "address"
        }
      ],
      "name": "depositsOf",
      "outputs": [
        {
          "name": "",
          "type": "uint256"
        }
      ],
      "payable": false,
      "stateMutability": "view",
      "type": "function"
    },
    {
      "constant": false,
      "inputs": [
        {
          "name": "_newOwner",
          "type": "address"
        }
      ],
      "name": "transferOwnership",
      "outputs": [],
      "payable": false,
      "stateMutability": "nonpayable",
      "type": "function"
    },
    {
      "inputs": [
        {
          "name": "_beneficiary",
          "type": "address"
        }
      ],
      "payable": false,
      "stateMutability": "nonpayable",
      "type": "constructor"
    },
    {
      "anonymous": false,
      "inputs": [],
      "name": "Closed",
      "type": "event"
    },
    {
      "anonymous": false,
      "inputs": [],
      "name": "RefundsEnabled",
      "type": "event"
    },
    {
      "anonymous": false,
      "inputs": [
        {
          "indexed": true,
          "name": "payee",
          "type": "address"
        },
        {
          "indexed": false,
          "name": "weiAmount",
          "type": "uint256"
        }
      ],
      "name": "Deposited",
      "type": "event"
    },
    {
      "anonymous": false,
      "inputs": [
        {
          "indexed": true,
          "name": "payee",
          "type": "address"
        },
        {
          "indexed": false,
          "name": "weiAmount",
          "type": "uint256"
        }
      ],
      "name": "Withdrawn",
      "type": "event"
    },
    {
      "anonymous": false,
      "inputs": [
        {
          "indexed": true,
          "name": "previousOwner",
          "type": "address"
        }
      ],
      "name": "OwnershipRenounced",
      "type": "event"
    },
    {
      "anonymous": false,
      "inputs": [
        {
          "indexed": true,
          "name": "previousOwner",
          "type": "address"
        },
        {
          "indexed": true,
          "name": "newOwner",
          "type": "address"
        }
      ],
      "name": "OwnershipTransferred",
      "type": "event"
    },
    {
      "constant": false,
      "inputs": [
        {
          "name": "_refundee",
          "type": "address"
        }
      ],
      "name": "deposit",
      "outputs": [],
      "payable": true,
      "stateMutability": "payable",
      "type": "function"
    },
    {
      "constant": false,
      "inputs": [],
      "name": "close",
      "outputs": [],
      "payable": false,
      "stateMutability": "nonpayable",
      "type": "function"
    },
    {
      "constant": false,
      "inputs": [],
      "name": "enableRefunds",
      "outputs": [],
      "payable": false,
      "stateMutability": "nonpayable",
      "type": "function"
    },
    {
      "constant": false,
      "inputs": [],
      "name": "beneficiaryWithdraw",
      "outputs": [],
      "payable": false,
      "stateMutability": "nonpayable",
      "type": "function"
    },
    {
      "constant": true,
      "inputs": [
        {
          "name": "_payee",
          "type": "address"
        }
      ],
      "name": "withdrawalAllowed",
      "outputs": [
        {
          "name": "",
          "type": "bool"
        }
      ],
      "payable": false,
      "stateMutability": "view",
      "type": "function"
    }
  ],
  "bytecode": "0x608060405234801561001057600080fd5b506040516020806108ee833981016040525160008054600160a060020a03191633179055600160a060020a038116151561004957600080fd5b6002805460ff19600160a060020a03939093166101000261010060a860020a03199091161791909116905561086b806100836000396000f3006080604052600436106100b95763ffffffff7c010000000000000000000000000000000000000000000000000000000060003504166338af3eed81146100be57806343d726d6146100fc57806351cff8d914610113578063685ca19414610141578063715018a6146101835780638c52dc41146101985780638da5cb5b146101ad5780639af6549a146101c2578063c19d93fb146101d7578063e3a9db1a14610210578063f2fde38b14610250578063f340fa011461027e575b600080fd5b3480156100ca57600080fd5b506100d361029f565b6040805173ffffffffffffffffffffffffffffffffffffffff9092168252519081900360200190f35b34801561010857600080fd5b506101116102c0565b005b34801561011f57600080fd5b5061011173ffffffffffffffffffffffffffffffffffffffff60043516610356565b34801561014d57600080fd5b5061016f73ffffffffffffffffffffffffffffffffffffffff60043516610376565b604080519115158252519081900360200190f35b34801561018f57600080fd5b50610111610392565b3480156101a457600080fd5b50610111610423565b3480156101b957600080fd5b506100d36104ba565b3480156101ce57600080fd5b506101116104d6565b3480156101e357600080fd5b506101ec61053f565b604051808260028111156101fc57fe5b60ff16815260200191505060405180910390f35b34801561021c57600080fd5b5061023e73ffffffffffffffffffffffffffffffffffffffff60043516610548565b60408051918252519081900360200190f35b34801561025c57600080fd5b5061011173ffffffffffffffffffffffffffffffffffffffff60043516610570565b61011173ffffffffffffffffffffffffffffffffffffffff6004351661059d565b600254610100900473ffffffffffffffffffffffffffffffffffffffff1681565b60005473ffffffffffffffffffffffffffffffffffffffff1633146102e457600080fd5b60006002805460ff16908111156102f757fe5b1461030157600080fd5b600280547fffffffffffffffffffffffffffffffffffffffffffffffffffffffffffffff0016811790556040517f1cdde67b72a90f19919ac732a437ac2f7a10fc128d28c2a6e525d89ce5cd9d3a90600090a1565b61035f81610376565b151561036a57600080fd5b610373816105c3565b50565b600060016002805460ff169081111561038b57fe5b1492915050565b60005473ffffffffffffffffffffffffffffffffffffffff1633146103b657600080fd5b6000805460405173ffffffffffffffffffffffffffffffffffffffff909116917ff8df31144d9c2f0f6b59d69b8b98abd5459d07f2742c4df920b25aae33c6482091a2600080547fffffffffffffffffffffffff0000000000000000000000000000000000000000169055565b60005473ffffffffffffffffffffffffffffffffffffffff16331461044757600080fd5b60006002805460ff169081111561045a57fe5b1461046457600080fd5b600280547fffffffffffffffffffffffffffffffffffffffffffffffffffffffffffffff001660011790556040517f599d8e5a83cffb867d051598c4d70e805d59802d8081c1c7d6dffc5b6aca2b8990600090a1565b60005473ffffffffffffffffffffffffffffffffffffffff1681565b6002805460ff16818111156104e757fe5b146104f157600080fd5b60025460405173ffffffffffffffffffffffffffffffffffffffff6101009092049190911690303180156108fc02916000818181858888f19350505050158015610373573d6000803e3d6000fd5b60025460ff1681565b73ffffffffffffffffffffffffffffffffffffffff1660009081526001602052604090205490565b60005473ffffffffffffffffffffffffffffffffffffffff16331461059457600080fd5b610373816106bc565b60006002805460ff16908111156105b057fe5b146105ba57600080fd5b6103738161076b565b6000805473ffffffffffffffffffffffffffffffffffffffff1633146105e857600080fd5b5073ffffffffffffffffffffffffffffffffffffffff8116600090815260016020526040902054303181111561061a57fe5b73ffffffffffffffffffffffffffffffffffffffff82166000818152600160205260408082208290555183156108fc0291849190818181858888f1935050505015801561066b573d6000803e3d6000fd5b5060408051828152905173ffffffffffffffffffffffffffffffffffffffff8416917f7084f5476618d8e60b11ef0d7d3f06914655adb8793e28ff7f018d4c76d505d5919081900360200190a25050565b73ffffffffffffffffffffffffffffffffffffffff811615156106de57600080fd5b6000805460405173ffffffffffffffffffffffffffffffffffffffff808516939216917f8be0079c531659141344cd1fd0a4f28419497f9722a3daafe3b4186f6b6457e091a3600080547fffffffffffffffffffffffff00000000000000000000000000000000000000001673ffffffffffffffffffffffffffffffffffffffff92909216919091179055565b6000805473ffffffffffffffffffffffffffffffffffffffff16331461079057600080fd5b5073ffffffffffffffffffffffffffffffffffffffff811660009081526001602052604090205434906107c9908263ffffffff61082c16565b73ffffffffffffffffffffffffffffffffffffffff8316600081815260016020908152604091829020939093558051848152905191927f2da466a7b24304f47e87fa2e1e5a81b9831ce54fec19055ce277ca2f39ba42c492918290030190a25050565b8181018281101561083957fe5b929150505600a165627a7a72305820611a87c1c73a085b04a3d65374a072f4d8bcbefc9dcd62aa6d6c98b902d25b5b0029",
  "source": "pragma solidity ^0.4.23;\n\nimport \"./ConditionalEscrow.sol\";\nimport \"../ownership/Ownable.sol\";\n\n\n/**\n * @title RefundEscrow\n * @dev Escrow that holds funds for a beneficiary, deposited from multiple parties.\n * The contract owner may close the deposit period, and allow for either withdrawal\n * by the beneficiary, or refunds to the depositors.\n */\ncontract RefundEscrow is Ownable, ConditionalEscrow {\n  enum State { Active, Refunding, Closed }\n\n  event Closed();\n  event RefundsEnabled();\n\n  State public state;\n  address public beneficiary;\n\n  /**\n   * @dev Constructor.\n   * @param _beneficiary The beneficiary of the deposits.\n   */\n  constructor(address _beneficiary) public {\n    require(_beneficiary != address(0));\n    beneficiary = _beneficiary;\n    state = State.Active;\n  }\n\n  /**\n   * @dev Stores funds that may later be refunded.\n   * @param _refundee The address funds will be sent to if a refund occurs.\n   */\n  function deposit(address _refundee) public payable {\n    require(state == State.Active);\n    super.deposit(_refundee);\n  }\n\n  /**\n   * @dev Allows for the beneficiary to withdraw their funds, rejecting\n   * further deposits.\n   */\n  function close() public onlyOwner {\n    require(state == State.Active);\n    state = State.Closed;\n    emit Closed();\n  }\n\n  /**\n   * @dev Allows for refunds to take place, rejecting further deposits.\n   */\n  function enableRefunds() public onlyOwner {\n    require(state == State.Active);\n    state = State.Refunding;\n    emit RefundsEnabled();\n  }\n\n  /**\n   * @dev Withdraws the beneficiary's funds.\n   */\n  function beneficiaryWithdraw() public {\n    require(state == State.Closed);\n    beneficiary.transfer(address(this).balance);\n  }\n\n  /**\n   * @dev Returns whether refundees can withdraw their deposits (be refunded).\n   */\n  function withdrawalAllowed(address _payee) public view returns (bool) {\n    return state == State.Refunding;\n  }\n}\n",
  "sourcePath": "openzeppelin-solidity/contracts/payment/RefundEscrow.sol",
  "compiler": {
    "name": "solc",
    "version": "0.4.24+commit.e67f0147.Emscripten.clang"
  },
  "schemaVersion": "2.0.1",
  "updatedAt": "2018-07-24T08:59:53.407Z"
}