{
  "contractName": "RefundEscrowWithFee",
  "abi": [
    {
      "constant": true,
      "inputs": [],
      "name": "beneficiary",
      "outputs": [
        {
          "name": "",
          "type": "address"
        }
      ],
      "payable": false,
      "stateMutability": "view",
      "type": "function"
    },
    {
      "constant": false,
      "inputs": [],
      "name": "close",
      "outputs": [],
      "payable": false,
      "stateMutability": "nonpayable",
      "type": "function"
    },
    {
      "constant": false,
      "inputs": [
        {
          "name": "_payee",
          "type": "address"
        }
      ],
      "name": "withdraw",
      "outputs": [],
      "payable": false,
      "stateMutability": "nonpayable",
      "type": "function"
    },
    {
      "constant": true,
      "inputs": [
        {
          "name": "_payee",
          "type": "address"
        }
      ],
      "name": "withdrawalAllowed",
      "outputs": [
        {
          "name": "",
          "type": "bool"
        }
      ],
      "payable": false,
      "stateMutability": "view",
      "type": "function"
    },
    {
      "constant": false,
      "inputs": [],
      "name": "renounceOwnership",
      "outputs": [],
      "payable": false,
      "stateMutability": "nonpayable",
      "type": "function"
    },
    {
      "constant": true,
      "inputs": [],
      "name": "feePercent",
      "outputs": [
        {
          "name": "",
          "type": "uint8"
        }
      ],
      "payable": false,
      "stateMutability": "view",
      "type": "function"
    },
    {
      "constant": false,
      "inputs": [],
      "name": "enableRefunds",
      "outputs": [],
      "payable": false,
      "stateMutability": "nonpayable",
      "type": "function"
    },
    {
      "constant": true,
      "inputs": [],
      "name": "owner",
      "outputs": [
        {
          "name": "",
          "type": "address"
        }
      ],
      "payable": false,
      "stateMutability": "view",
      "type": "function"
    },
    {
      "constant": true,
      "inputs": [],
      "name": "state",
      "outputs": [
        {
          "name": "",
          "type": "uint8"
        }
      ],
      "payable": false,
      "stateMutability": "view",
      "type": "function"
    },
    {
      "constant": true,
      "inputs": [
        {
          "name": "_payee",
          "type": "address"
        }
      ],
      "name": "depositsOf",
      "outputs": [
        {
          "name": "",
          "type": "uint256"
        }
      ],
      "payable": false,
      "stateMutability": "view",
      "type": "function"
    },
    {
      "constant": true,
      "inputs": [],
      "name": "feeWallet",
      "outputs": [
        {
          "name": "",
          "type": "address"
        }
      ],
      "payable": false,
      "stateMutability": "view",
      "type": "function"
    },
    {
      "constant": false,
      "inputs": [
        {
          "name": "_newOwner",
          "type": "address"
        }
      ],
      "name": "transferOwnership",
      "outputs": [],
      "payable": false,
      "stateMutability": "nonpayable",
      "type": "function"
    },
    {
      "constant": false,
      "inputs": [
        {
          "name": "_refundee",
          "type": "address"
        }
      ],
      "name": "deposit",
      "outputs": [],
      "payable": true,
      "stateMutability": "payable",
      "type": "function"
    },
    {
      "inputs": [
        {
          "name": "_beneficiary",
          "type": "address"
        },
        {
          "name": "_feeWallet",
          "type": "address"
        },
        {
          "name": "_feePercent",
          "type": "uint8"
        }
      ],
      "payable": false,
      "stateMutability": "nonpayable",
      "type": "constructor"
    },
    {
      "anonymous": false,
      "inputs": [],
      "name": "Closed",
      "type": "event"
    },
    {
      "anonymous": false,
      "inputs": [],
      "name": "RefundsEnabled",
      "type": "event"
    },
    {
      "anonymous": false,
      "inputs": [
        {
          "indexed": true,
          "name": "payee",
          "type": "address"
        },
        {
          "indexed": false,
          "name": "weiAmount",
          "type": "uint256"
        }
      ],
      "name": "Deposited",
      "type": "event"
    },
    {
      "anonymous": false,
      "inputs": [
        {
          "indexed": true,
          "name": "payee",
          "type": "address"
        },
        {
          "indexed": false,
          "name": "weiAmount",
          "type": "uint256"
        }
      ],
      "name": "Withdrawn",
      "type": "event"
    },
    {
      "anonymous": false,
      "inputs": [
        {
          "indexed": true,
          "name": "previousOwner",
          "type": "address"
        }
      ],
      "name": "OwnershipRenounced",
      "type": "event"
    },
    {
      "anonymous": false,
      "inputs": [
        {
          "indexed": true,
          "name": "previousOwner",
          "type": "address"
        },
        {
          "indexed": true,
          "name": "newOwner",
          "type": "address"
        }
      ],
      "name": "OwnershipTransferred",
      "type": "event"
    },
    {
      "constant": false,
      "inputs": [],
      "name": "beneficiaryWithdraw",
      "outputs": [],
      "payable": false,
      "stateMutability": "nonpayable",
      "type": "function"
    }
  ],
  "bytecode": "0x608060405234801561001057600080fd5b50604051606080610aed83398101604090815281516020830151919092015160008054600160a060020a0319163317905582600160a060020a038116151561005757600080fd5b6002805461010060a860020a031916610100600160a060020a03938416021760ff191690558216151561008957600080fd5b60008160ff1611801561009f575060648160ff16105b15156100aa57600080fd5b6003805460ff909216740100000000000000000000000000000000000000000260a060020a60ff0219600160a060020a03909416600160a060020a03199093169290921792909216179055506109e8806101056000396000f3006080604052600436106100cf5763ffffffff7c010000000000000000000000000000000000000000000000000000000060003504166338af3eed81146100d457806343d726d61461011257806351cff8d914610129578063685ca19414610157578063715018a6146101995780637fd6f15c146101ae5780638c52dc41146101d95780638da5cb5b146101ee5780639af6549a14610203578063c19d93fb14610218578063e3a9db1a14610251578063f25f4b5614610291578063f2fde38b146102a6578063f340fa01146102d4575b600080fd5b3480156100e057600080fd5b506100e96102f5565b6040805173ffffffffffffffffffffffffffffffffffffffff9092168252519081900360200190f35b34801561011e57600080fd5b50610127610316565b005b34801561013557600080fd5b5061012773ffffffffffffffffffffffffffffffffffffffff600435166103ac565b34801561016357600080fd5b5061018573ffffffffffffffffffffffffffffffffffffffff600435166103cc565b604080519115158252519081900360200190f35b3480156101a557600080fd5b506101276103e8565b3480156101ba57600080fd5b506101c3610479565b6040805160ff9092168252519081900360200190f35b3480156101e557600080fd5b5061012761049a565b3480156101fa57600080fd5b506100e9610531565b34801561020f57600080fd5b5061012761054d565b34801561022457600080fd5b5061022d6105f9565b6040518082600281111561023d57fe5b60ff16815260200191505060405180910390f35b34801561025d57600080fd5b5061027f73ffffffffffffffffffffffffffffffffffffffff60043516610602565b60408051918252519081900360200190f35b34801561029d57600080fd5b506100e961062a565b3480156102b257600080fd5b5061012773ffffffffffffffffffffffffffffffffffffffff60043516610646565b61012773ffffffffffffffffffffffffffffffffffffffff60043516610673565b600254610100900473ffffffffffffffffffffffffffffffffffffffff1681565b60005473ffffffffffffffffffffffffffffffffffffffff16331461033a57600080fd5b60006002805460ff169081111561034d57fe5b1461035757600080fd5b600280547fffffffffffffffffffffffffffffffffffffffffffffffffffffffffffffff0016811790556040517f1cdde67b72a90f19919ac732a437ac2f7a10fc128d28c2a6e525d89ce5cd9d3a90600090a1565b6103b5816103cc565b15156103c057600080fd5b6103c981610699565b50565b600060016002805460ff16908111156103e157fe5b1492915050565b60005473ffffffffffffffffffffffffffffffffffffffff16331461040c57600080fd5b6000805460405173ffffffffffffffffffffffffffffffffffffffff909116917ff8df31144d9c2f0f6b59d69b8b98abd5459d07f2742c4df920b25aae33c6482091a2600080547fffffffffffffffffffffffff0000000000000000000000000000000000000000169055565b60035474010000000000000000000000000000000000000000900460ff1681565b60005473ffffffffffffffffffffffffffffffffffffffff1633146104be57600080fd5b60006002805460ff16908111156104d157fe5b146104db57600080fd5b600280547fffffffffffffffffffffffffffffffffffffffffffffffffffffffffffffff001660011790556040517f599d8e5a83cffb867d051598c4d70e805d59802d8081c1c7d6dffc5b6aca2b8990600090a1565b60005473ffffffffffffffffffffffffffffffffffffffff1681565b6000600280805460ff169081111561056157fe5b1461056b57600080fd5b6003546105a89060649061059c9030319074010000000000000000000000000000000000000000900460ff16610792565b9063ffffffff6107c116565b60035460405191925073ffffffffffffffffffffffffffffffffffffffff169082156108fc029083906000818181858888f193505050501580156105f0573d6000803e3d6000fd5b506103c96107d6565b60025460ff1681565b73ffffffffffffffffffffffffffffffffffffffff1660009081526001602052604090205490565b60035473ffffffffffffffffffffffffffffffffffffffff1681565b60005473ffffffffffffffffffffffffffffffffffffffff16331461066a57600080fd5b6103c98161083f565b60006002805460ff169081111561068657fe5b1461069057600080fd5b6103c9816108ee565b6000805473ffffffffffffffffffffffffffffffffffffffff1633146106be57600080fd5b5073ffffffffffffffffffffffffffffffffffffffff811660009081526001602052604090205430318111156106f057fe5b73ffffffffffffffffffffffffffffffffffffffff82166000818152600160205260408082208290555183156108fc0291849190818181858888f19350505050158015610741573d6000803e3d6000fd5b5060408051828152905173ffffffffffffffffffffffffffffffffffffffff8416917f7084f5476618d8e60b11ef0d7d3f06914655adb8793e28ff7f018d4c76d505d5919081900360200190a25050565b60008215156107a3575060006107bb565b508181028183828115156107b357fe5b04146107bb57fe5b92915050565b600081838115156107ce57fe5b049392505050565b6002805460ff16818111156107e757fe5b146107f157600080fd5b60025460405173ffffffffffffffffffffffffffffffffffffffff6101009092049190911690303180156108fc02916000818181858888f193505050501580156103c9573d6000803e3d6000fd5b73ffffffffffffffffffffffffffffffffffffffff8116151561086157600080fd5b6000805460405173ffffffffffffffffffffffffffffffffffffffff808516939216917f8be0079c531659141344cd1fd0a4f28419497f9722a3daafe3b4186f6b6457e091a3600080547fffffffffffffffffffffffff00000000000000000000000000000000000000001673ffffffffffffffffffffffffffffffffffffffff92909216919091179055565b6000805473ffffffffffffffffffffffffffffffffffffffff16331461091357600080fd5b5073ffffffffffffffffffffffffffffffffffffffff8116600090815260016020526040902054349061094c908263ffffffff6109af16565b73ffffffffffffffffffffffffffffffffffffffff8316600081815260016020908152604091829020939093558051848152905191927f2da466a7b24304f47e87fa2e1e5a81b9831ce54fec19055ce277ca2f39ba42c492918290030190a25050565b818101828110156107bb57fe00a165627a7a7230582093bff7323487e2dc596c81d69c2691a0fed814e0006d5d778ec3ae198af9b84a0029",
  "source": "pragma solidity ^0.4.24;\r\n\r\nimport \"openzeppelin-solidity/contracts/payment/RefundEscrow.sol\";\r\n\r\n/**\r\n * @title RefundEscrowWithFee\r\n * @dev RefundEscrow with fee.\r\n */\r\ncontract RefundEscrowWithFee is RefundEscrow {\r\n\r\n    address public feeWallet;\r\n    uint8 public feePercent;\r\n\r\n    /**\r\n    * @dev Constructor.\r\n    * @param _beneficiary The beneficiary of the deposits.\r\n    * @param _feeWallet The Wallet to deposit the fee.\r\n    * @param _feePercent The percent of the deposits that will be transfered to the fee wallet.\r\n    */\r\n    constructor(address _beneficiary, address _feeWallet, uint8 _feePercent) public RefundEscrow(_beneficiary) {\r\n        require(_feeWallet != address(0));\r\n        require(_feePercent > 0 && _feePercent < 100);\r\n        feeWallet = _feeWallet;\r\n        feePercent = _feePercent;\r\n    }\r\n\r\n    /**\r\n    * @dev Withdraws the beneficiary's funds after transfering the fee to the fee wallet\r\n    */\r\n    function beneficiaryWithdraw() public {\r\n        require(state == State.Closed);\r\n        uint256 fee = address(this).balance.mul(feePercent).div(100);\r\n        feeWallet.transfer(fee);\r\n        super.beneficiaryWithdraw();\r\n    }\r\n}",
  "sourcePath": "D:\\Vlad\\CryptoCurrency\\Truffle Projects\\Game_Starter\\contracts\\payment\\RefundEscrowWithFee.sol",
  "compiler": {
    "name": "solc",
    "version": "0.4.24+commit.e67f0147.Emscripten.clang"
  },
  "schemaVersion": "2.0.1",
  "updatedAt": "2018-07-20T13:46:21.486Z"
}