{
  "contractName": "SignatureBouncer",
  "abi": [
    {
      "constant": true,
      "inputs": [
        {
          "name": "_operator",
          "type": "address"
        },
        {
          "name": "_role",
          "type": "string"
        }
      ],
      "name": "checkRole",
      "outputs": [],
      "payable": false,
      "stateMutability": "view",
      "type": "function"
    },
    {
      "constant": true,
      "inputs": [
        {
          "name": "_operator",
          "type": "address"
        },
        {
          "name": "_role",
          "type": "string"
        }
      ],
      "name": "hasRole",
      "outputs": [
        {
          "name": "",
          "type": "bool"
        }
      ],
      "payable": false,
      "stateMutability": "view",
      "type": "function"
    },
    {
      "constant": false,
      "inputs": [],
      "name": "renounceOwnership",
      "outputs": [],
      "payable": false,
      "stateMutability": "nonpayable",
      "type": "function"
    },
    {
      "constant": true,
      "inputs": [],
      "name": "owner",
      "outputs": [
        {
          "name": "",
          "type": "address"
        }
      ],
      "payable": false,
      "stateMutability": "view",
      "type": "function"
    },
    {
      "constant": true,
      "inputs": [],
      "name": "ROLE_BOUNCER",
      "outputs": [
        {
          "name": "",
          "type": "string"
        }
      ],
      "payable": false,
      "stateMutability": "view",
      "type": "function"
    },
    {
      "constant": false,
      "inputs": [
        {
          "name": "_newOwner",
          "type": "address"
        }
      ],
      "name": "transferOwnership",
      "outputs": [],
      "payable": false,
      "stateMutability": "nonpayable",
      "type": "function"
    },
    {
      "anonymous": false,
      "inputs": [
        {
          "indexed": true,
          "name": "operator",
          "type": "address"
        },
        {
          "indexed": false,
          "name": "role",
          "type": "string"
        }
      ],
      "name": "RoleAdded",
      "type": "event"
    },
    {
      "anonymous": false,
      "inputs": [
        {
          "indexed": true,
          "name": "operator",
          "type": "address"
        },
        {
          "indexed": false,
          "name": "role",
          "type": "string"
        }
      ],
      "name": "RoleRemoved",
      "type": "event"
    },
    {
      "anonymous": false,
      "inputs": [
        {
          "indexed": true,
          "name": "previousOwner",
          "type": "address"
        }
      ],
      "name": "OwnershipRenounced",
      "type": "event"
    },
    {
      "anonymous": false,
      "inputs": [
        {
          "indexed": true,
          "name": "previousOwner",
          "type": "address"
        },
        {
          "indexed": true,
          "name": "newOwner",
          "type": "address"
        }
      ],
      "name": "OwnershipTransferred",
      "type": "event"
    },
    {
      "constant": false,
      "inputs": [
        {
          "name": "_bouncer",
          "type": "address"
        }
      ],
      "name": "addBouncer",
      "outputs": [],
      "payable": false,
      "stateMutability": "nonpayable",
      "type": "function"
    },
    {
      "constant": false,
      "inputs": [
        {
          "name": "_bouncer",
          "type": "address"
        }
      ],
      "name": "removeBouncer",
      "outputs": [],
      "payable": false,
      "stateMutability": "nonpayable",
      "type": "function"
    }
  ],
  "bytecode": "0x608060405260008054600160a060020a03191633179055610a9c806100256000396000f30060806040526004361061008d5763ffffffff7c01000000000000000000000000000000000000000000000000000000006000350416630988ca8c81146100925780631479290e14610108578063217fe6c614610136578063715018a6146101be578063888764c8146101d35780638da5cb5b14610201578063d466ab6b1461023f578063f2fde38b146102c9575b600080fd5b34801561009e57600080fd5b5060408051602060046024803582810135601f810185900485028601850190965285855261010695833573ffffffffffffffffffffffffffffffffffffffff169536956044949193909101919081908401838280828437509497506102f79650505050505050565b005b34801561011457600080fd5b5061010673ffffffffffffffffffffffffffffffffffffffff600435166103a1565b34801561014257600080fd5b5060408051602060046024803582810135601f81018590048502860185019096528585526101aa95833573ffffffffffffffffffffffffffffffffffffffff169536956044949193909101919081908401838280828437509497506104299650505050505050565b604080519115158252519081900360200190f35b3480156101ca57600080fd5b506101066104d8565b3480156101df57600080fd5b5061010673ffffffffffffffffffffffffffffffffffffffff60043516610569565b34801561020d57600080fd5b506102166105ee565b6040805173ffffffffffffffffffffffffffffffffffffffff9092168252519081900360200190f35b34801561024b57600080fd5b5061025461060a565b6040805160208082528351818301528351919283929083019185019080838360005b8381101561028e578181015183820152602001610276565b50505050905090810190601f1680156102bb5780820380516001836020036101000a031916815260200191505b509250505060405180910390f35b3480156102d557600080fd5b5061010673ffffffffffffffffffffffffffffffffffffffff60043516610641565b61039d826001836040518082805190602001908083835b6020831061034b57805182527fffffffffffffffffffffffffffffffffffffffffffffffffffffffffffffffe0909201916020918201910161030e565b51815160209384036101000a7fffffffffffffffffffffffffffffffffffffffffffffffffffffffffffffffff018019909216911617905292019485525060405193849003019092209291505061066e565b5050565b60005473ffffffffffffffffffffffffffffffffffffffff1633146103c557600080fd5b73ffffffffffffffffffffffffffffffffffffffff811615156103e757600080fd5b610426816040805190810160405280600781526020017f626f756e63657200000000000000000000000000000000000000000000000000815250610683565b50565b60006104d1836001846040518082805190602001908083835b6020831061047f57805182527fffffffffffffffffffffffffffffffffffffffffffffffffffffffffffffffe09092019160209182019101610442565b51815160209384036101000a7fffffffffffffffffffffffffffffffffffffffffffffffffffffffffffffffff01801990921691161790529201948552506040519384900301909220929150506107dd565b9392505050565b60005473ffffffffffffffffffffffffffffffffffffffff1633146104fc57600080fd5b6000805460405173ffffffffffffffffffffffffffffffffffffffff909116917ff8df31144d9c2f0f6b59d69b8b98abd5459d07f2742c4df920b25aae33c6482091a2600080547fffffffffffffffffffffffff0000000000000000000000000000000000000000169055565b60005473ffffffffffffffffffffffffffffffffffffffff16331461058d57600080fd5b73ffffffffffffffffffffffffffffffffffffffff811615156105af57600080fd5b610426816040805190810160405280600781526020017f626f756e63657200000000000000000000000000000000000000000000000000815250610809565b60005473ffffffffffffffffffffffffffffffffffffffff1681565b60408051808201909152600781527f626f756e63657200000000000000000000000000000000000000000000000000602082015281565b60005473ffffffffffffffffffffffffffffffffffffffff16331461066557600080fd5b61042681610924565b61067882826107dd565b151561039d57600080fd5b610729826001836040518082805190602001908083835b602083106106d757805182527fffffffffffffffffffffffffffffffffffffffffffffffffffffffffffffffe0909201916020918201910161069a565b51815160209384036101000a7fffffffffffffffffffffffffffffffffffffffffffffffffffffffffffffffff01801990921691161790529201948552506040519384900301909220929150506109d3565b8173ffffffffffffffffffffffffffffffffffffffff167fd211483f91fc6eff862467f8de606587a30c8fc9981056f051b897a418df803a826040518080602001828103825283818151815260200191508051906020019080838360005b8381101561079f578181015183820152602001610787565b50505050905090810190601f1680156107cc5780820380516001836020036101000a031916815260200191505b509250505060405180910390a25050565b73ffffffffffffffffffffffffffffffffffffffff166000908152602091909152604090205460ff1690565b6108af826001836040518082805190602001908083835b6020831061085d57805182527fffffffffffffffffffffffffffffffffffffffffffffffffffffffffffffffe09092019160209182019101610820565b51815160209384036101000a7fffffffffffffffffffffffffffffffffffffffffffffffffffffffffffffffff0180199092169116179052920194855250604051938490030190922092915050610a20565b8173ffffffffffffffffffffffffffffffffffffffff167fbfec83d64eaa953f2708271a023ab9ee82057f8f3578d548c1a4ba0b5b700489826040518080602001828103825283818151815260200191508051906020019080838360008381101561079f578181015183820152602001610787565b73ffffffffffffffffffffffffffffffffffffffff8116151561094657600080fd5b6000805460405173ffffffffffffffffffffffffffffffffffffffff808516939216917f8be0079c531659141344cd1fd0a4f28419497f9722a3daafe3b4186f6b6457e091a3600080547fffffffffffffffffffffffff00000000000000000000000000000000000000001673ffffffffffffffffffffffffffffffffffffffff92909216919091179055565b73ffffffffffffffffffffffffffffffffffffffff1660009081526020919091526040902080547fffffffffffffffffffffffffffffffffffffffffffffffffffffffffffffff00169055565b73ffffffffffffffffffffffffffffffffffffffff1660009081526020919091526040902080547fffffffffffffffffffffffffffffffffffffffffffffffffffffffffffffff001660011790555600a165627a7a72305820da415a3fe009da1e0e1015bd28875107563614d8b7f74bf294ed6e73b63251240029",
  "source": "pragma solidity ^0.4.24;\n\nimport \"../ownership/Ownable.sol\";\nimport \"../ownership/rbac/RBAC.sol\";\nimport \"../ECRecovery.sol\";\n\n\n/**\n * @title SignatureBouncer\n * @author PhABC, Shrugs and aflesher\n * @dev Bouncer allows users to submit a signature as a permission to do an action.\n * If the signature is from one of the authorized bouncer addresses, the signature\n * is valid. The owner of the contract adds/removes bouncers.\n * Bouncer addresses can be individual servers signing grants or different\n * users within a decentralized club that have permission to invite other members.\n * This technique is useful for whitelists and airdrops; instead of putting all\n * valid addresses on-chain, simply sign a grant of the form\n * keccak256(abi.encodePacked(`:contractAddress` + `:granteeAddress`)) using a valid bouncer address.\n * Then restrict access to your crowdsale/whitelist/airdrop using the\n * `onlyValidSignature` modifier (or implement your own using isValidSignature).\n * In addition to `onlyValidSignature`, `onlyValidSignatureAndMethod` and\n * `onlyValidSignatureAndData` can be used to restrict access to only a given method\n * or a given method with given parameters respectively.\n * See the tests Bouncer.test.js for specific usage examples.\n * @notice A method that uses the `onlyValidSignatureAndData` modifier must make the _sig\n * parameter the \"last\" parameter. You cannot sign a message that has its own\n * signature in it so the last 128 bytes of msg.data (which represents the\n * length of the _sig data and the _sig data itself) is ignored when validating.\n * Also non fixed sized parameters make constructing the data in the signature\n * much more complex. See https://ethereum.stackexchange.com/a/50616 for more details.\n */\ncontract SignatureBouncer is Ownable, RBAC {\n  using ECRecovery for bytes32;\n\n  string public constant ROLE_BOUNCER = \"bouncer\";\n  uint constant METHOD_ID_SIZE = 4;\n  // (signature length size) 32 bytes + (signature size 65 bytes padded) 96 bytes\n  uint constant SIGNATURE_SIZE = 128;\n\n  /**\n   * @dev requires that a valid signature of a bouncer was provided\n   */\n  modifier onlyValidSignature(bytes _sig)\n  {\n    require(isValidSignature(msg.sender, _sig));\n    _;\n  }\n\n  /**\n   * @dev requires that a valid signature with a specifed method of a bouncer was provided\n   */\n  modifier onlyValidSignatureAndMethod(bytes _sig)\n  {\n    require(isValidSignatureAndMethod(msg.sender, _sig));\n    _;\n  }\n\n  /**\n   * @dev requires that a valid signature with a specifed method and params of a bouncer was provided\n   */\n  modifier onlyValidSignatureAndData(bytes _sig)\n  {\n    require(isValidSignatureAndData(msg.sender, _sig));\n    _;\n  }\n\n  /**\n   * @dev allows the owner to add additional bouncer addresses\n   */\n  function addBouncer(address _bouncer)\n    onlyOwner\n    public\n  {\n    require(_bouncer != address(0));\n    addRole(_bouncer, ROLE_BOUNCER);\n  }\n\n  /**\n   * @dev allows the owner to remove bouncer addresses\n   */\n  function removeBouncer(address _bouncer)\n    onlyOwner\n    public\n  {\n    require(_bouncer != address(0));\n    removeRole(_bouncer, ROLE_BOUNCER);\n  }\n\n  /**\n   * @dev is the signature of `this + sender` from a bouncer?\n   * @return bool\n   */\n  function isValidSignature(address _address, bytes _sig)\n    internal\n    view\n    returns (bool)\n  {\n    return isValidDataHash(\n      keccak256(abi.encodePacked(address(this), _address)),\n      _sig\n    );\n  }\n\n  /**\n   * @dev is the signature of `this + sender + methodId` from a bouncer?\n   * @return bool\n   */\n  function isValidSignatureAndMethod(address _address, bytes _sig)\n    internal\n    view\n    returns (bool)\n  {\n    bytes memory data = new bytes(METHOD_ID_SIZE);\n    for (uint i = 0; i < data.length; i++) {\n      data[i] = msg.data[i];\n    }\n    return isValidDataHash(\n      keccak256(abi.encodePacked(address(this), _address, data)),\n      _sig\n    );\n  }\n\n  /**\n    * @dev is the signature of `this + sender + methodId + params(s)` from a bouncer?\n    * @notice the _sig parameter of the method being validated must be the \"last\" parameter\n    * @return bool\n    */\n  function isValidSignatureAndData(address _address, bytes _sig)\n    internal\n    view\n    returns (bool)\n  {\n    require(msg.data.length > SIGNATURE_SIZE);\n    bytes memory data = new bytes(msg.data.length - SIGNATURE_SIZE);\n    for (uint i = 0; i < data.length; i++) {\n      data[i] = msg.data[i];\n    }\n    return isValidDataHash(\n      keccak256(abi.encodePacked(address(this), _address, data)),\n      _sig\n    );\n  }\n\n  /**\n   * @dev internal function to convert a hash to an eth signed message\n   * and then recover the signature and check it against the bouncer role\n   * @return bool\n   */\n  function isValidDataHash(bytes32 hash, bytes _sig)\n    internal\n    view\n    returns (bool)\n  {\n    address signer = hash\n      .toEthSignedMessageHash()\n      .recover(_sig);\n    return hasRole(signer, ROLE_BOUNCER);\n  }\n}\n",
  "sourcePath": "openzeppelin-solidity/contracts/access/SignatureBouncer.sol",
  "compiler": {
    "name": "solc",
    "version": "0.4.24+commit.e67f0147.Emscripten.clang"
  },
  "schemaVersion": "2.0.1",
  "updatedAt": "2018-07-24T08:59:53.397Z"
}