{
  "contractName": "SmartToken",
  "abi": [
    {
      "constant": true,
      "inputs": [],
      "name": "mintingFinished",
      "outputs": [
        {
          "name": "",
          "type": "bool"
        }
      ],
      "payable": false,
      "stateMutability": "view",
      "type": "function"
    },
    {
      "constant": true,
      "inputs": [],
      "name": "name",
      "outputs": [
        {
          "name": "",
          "type": "string"
        }
      ],
      "payable": false,
      "stateMutability": "view",
      "type": "function"
    },
    {
      "constant": false,
      "inputs": [
        {
          "name": "_spender",
          "type": "address"
        },
        {
          "name": "_value",
          "type": "uint256"
        }
      ],
      "name": "approve",
      "outputs": [
        {
          "name": "",
          "type": "bool"
        }
      ],
      "payable": false,
      "stateMutability": "nonpayable",
      "type": "function"
    },
    {
      "constant": false,
      "inputs": [
        {
          "name": "token",
          "type": "address"
        }
      ],
      "name": "reclaimToken",
      "outputs": [],
      "payable": false,
      "stateMutability": "nonpayable",
      "type": "function"
    },
    {
      "constant": true,
      "inputs": [],
      "name": "totalSupply",
      "outputs": [
        {
          "name": "",
          "type": "uint256"
        }
      ],
      "payable": false,
      "stateMutability": "view",
      "type": "function"
    },
    {
      "constant": false,
      "inputs": [
        {
          "name": "_from",
          "type": "address"
        },
        {
          "name": "_to",
          "type": "address"
        },
        {
          "name": "_value",
          "type": "uint256"
        }
      ],
      "name": "transferFrom",
      "outputs": [
        {
          "name": "",
          "type": "bool"
        }
      ],
      "payable": false,
      "stateMutability": "nonpayable",
      "type": "function"
    },
    {
      "constant": false,
      "inputs": [
        {
          "name": "contractAddr",
          "type": "address"
        }
      ],
      "name": "reclaimContract",
      "outputs": [],
      "payable": false,
      "stateMutability": "nonpayable",
      "type": "function"
    },
    {
      "constant": true,
      "inputs": [],
      "name": "decimals",
      "outputs": [
        {
          "name": "",
          "type": "uint8"
        }
      ],
      "payable": false,
      "stateMutability": "view",
      "type": "function"
    },
    {
      "constant": false,
      "inputs": [],
      "name": "unpause",
      "outputs": [],
      "payable": false,
      "stateMutability": "nonpayable",
      "type": "function"
    },
    {
      "constant": false,
      "inputs": [
        {
          "name": "_to",
          "type": "address"
        },
        {
          "name": "_amount",
          "type": "uint256"
        }
      ],
      "name": "mint",
      "outputs": [
        {
          "name": "",
          "type": "bool"
        }
      ],
      "payable": false,
      "stateMutability": "nonpayable",
      "type": "function"
    },
    {
      "constant": false,
      "inputs": [
        {
          "name": "_value",
          "type": "uint256"
        }
      ],
      "name": "burn",
      "outputs": [],
      "payable": false,
      "stateMutability": "nonpayable",
      "type": "function"
    },
    {
      "constant": false,
      "inputs": [],
      "name": "claimOwnership",
      "outputs": [],
      "payable": false,
      "stateMutability": "nonpayable",
      "type": "function"
    },
    {
      "constant": true,
      "inputs": [],
      "name": "paused",
      "outputs": [
        {
          "name": "",
          "type": "bool"
        }
      ],
      "payable": false,
      "stateMutability": "view",
      "type": "function"
    },
    {
      "constant": false,
      "inputs": [
        {
          "name": "_spender",
          "type": "address"
        },
        {
          "name": "_subtractedValue",
          "type": "uint256"
        }
      ],
      "name": "decreaseApproval",
      "outputs": [
        {
          "name": "success",
          "type": "bool"
        }
      ],
      "payable": false,
      "stateMutability": "nonpayable",
      "type": "function"
    },
    {
      "constant": true,
      "inputs": [
        {
          "name": "_owner",
          "type": "address"
        }
      ],
      "name": "balanceOf",
      "outputs": [
        {
          "name": "",
          "type": "uint256"
        }
      ],
      "payable": false,
      "stateMutability": "view",
      "type": "function"
    },
    {
      "constant": false,
      "inputs": [],
      "name": "renounceOwnership",
      "outputs": [],
      "payable": false,
      "stateMutability": "nonpayable",
      "type": "function"
    },
    {
      "constant": false,
      "inputs": [],
      "name": "finishMinting",
      "outputs": [
        {
          "name": "",
          "type": "bool"
        }
      ],
      "payable": false,
      "stateMutability": "nonpayable",
      "type": "function"
    },
    {
      "constant": false,
      "inputs": [],
      "name": "pause",
      "outputs": [],
      "payable": false,
      "stateMutability": "nonpayable",
      "type": "function"
    },
    {
      "constant": true,
      "inputs": [],
      "name": "owner",
      "outputs": [
        {
          "name": "",
          "type": "address"
        }
      ],
      "payable": false,
      "stateMutability": "view",
      "type": "function"
    },
    {
      "constant": true,
      "inputs": [],
      "name": "symbol",
      "outputs": [
        {
          "name": "",
          "type": "string"
        }
      ],
      "payable": false,
      "stateMutability": "view",
      "type": "function"
    },
    {
      "constant": false,
      "inputs": [],
      "name": "reclaimEther",
      "outputs": [],
      "payable": false,
      "stateMutability": "nonpayable",
      "type": "function"
    },
    {
      "constant": false,
      "inputs": [
        {
          "name": "_to",
          "type": "address"
        },
        {
          "name": "_value",
          "type": "uint256"
        }
      ],
      "name": "transfer",
      "outputs": [
        {
          "name": "",
          "type": "bool"
        }
      ],
      "payable": false,
      "stateMutability": "nonpayable",
      "type": "function"
    },
    {
      "constant": false,
      "inputs": [
        {
          "name": "from_",
          "type": "address"
        },
        {
          "name": "value_",
          "type": "uint256"
        },
        {
          "name": "data_",
          "type": "bytes"
        }
      ],
      "name": "tokenFallback",
      "outputs": [],
      "payable": false,
      "stateMutability": "nonpayable",
      "type": "function"
    },
    {
      "constant": false,
      "inputs": [
        {
          "name": "_spender",
          "type": "address"
        },
        {
          "name": "_addedValue",
          "type": "uint256"
        }
      ],
      "name": "increaseApproval",
      "outputs": [
        {
          "name": "success",
          "type": "bool"
        }
      ],
      "payable": false,
      "stateMutability": "nonpayable",
      "type": "function"
    },
    {
      "constant": true,
      "inputs": [
        {
          "name": "_owner",
          "type": "address"
        },
        {
          "name": "_spender",
          "type": "address"
        }
      ],
      "name": "allowance",
      "outputs": [
        {
          "name": "",
          "type": "uint256"
        }
      ],
      "payable": false,
      "stateMutability": "view",
      "type": "function"
    },
    {
      "constant": true,
      "inputs": [],
      "name": "pendingOwner",
      "outputs": [
        {
          "name": "",
          "type": "address"
        }
      ],
      "payable": false,
      "stateMutability": "view",
      "type": "function"
    },
    {
      "constant": false,
      "inputs": [
        {
          "name": "newOwner",
          "type": "address"
        }
      ],
      "name": "transferOwnership",
      "outputs": [],
      "payable": false,
      "stateMutability": "nonpayable",
      "type": "function"
    },
    {
      "inputs": [
        {
          "name": "_name",
          "type": "string"
        },
        {
          "name": "_symbol",
          "type": "string"
        },
        {
          "name": "_decimals",
          "type": "uint8"
        }
      ],
      "payable": false,
      "stateMutability": "nonpayable",
      "type": "constructor"
    },
    {
      "payable": false,
      "stateMutability": "nonpayable",
      "type": "fallback"
    },
    {
      "anonymous": false,
      "inputs": [
        {
          "indexed": false,
          "name": "_token",
          "type": "address"
        }
      ],
      "name": "NewSmartToken",
      "type": "event"
    },
    {
      "anonymous": false,
      "inputs": [
        {
          "indexed": false,
          "name": "_amount",
          "type": "uint256"
        }
      ],
      "name": "Issuance",
      "type": "event"
    },
    {
      "anonymous": false,
      "inputs": [
        {
          "indexed": false,
          "name": "_amount",
          "type": "uint256"
        }
      ],
      "name": "Destruction",
      "type": "event"
    },
    {
      "anonymous": false,
      "inputs": [],
      "name": "Pause",
      "type": "event"
    },
    {
      "anonymous": false,
      "inputs": [],
      "name": "Unpause",
      "type": "event"
    },
    {
      "anonymous": false,
      "inputs": [
        {
          "indexed": true,
          "name": "to",
          "type": "address"
        },
        {
          "indexed": false,
          "name": "amount",
          "type": "uint256"
        }
      ],
      "name": "Mint",
      "type": "event"
    },
    {
      "anonymous": false,
      "inputs": [],
      "name": "MintFinished",
      "type": "event"
    },
    {
      "anonymous": false,
      "inputs": [
        {
          "indexed": true,
          "name": "previousOwner",
          "type": "address"
        }
      ],
      "name": "OwnershipRenounced",
      "type": "event"
    },
    {
      "anonymous": false,
      "inputs": [
        {
          "indexed": true,
          "name": "previousOwner",
          "type": "address"
        },
        {
          "indexed": true,
          "name": "newOwner",
          "type": "address"
        }
      ],
      "name": "OwnershipTransferred",
      "type": "event"
    },
    {
      "anonymous": false,
      "inputs": [
        {
          "indexed": true,
          "name": "burner",
          "type": "address"
        },
        {
          "indexed": false,
          "name": "value",
          "type": "uint256"
        }
      ],
      "name": "Burn",
      "type": "event"
    },
    {
      "anonymous": false,
      "inputs": [
        {
          "indexed": true,
          "name": "owner",
          "type": "address"
        },
        {
          "indexed": true,
          "name": "spender",
          "type": "address"
        },
        {
          "indexed": false,
          "name": "value",
          "type": "uint256"
        }
      ],
      "name": "Approval",
      "type": "event"
    },
    {
      "anonymous": false,
      "inputs": [
        {
          "indexed": true,
          "name": "from",
          "type": "address"
        },
        {
          "indexed": true,
          "name": "to",
          "type": "address"
        },
        {
          "indexed": false,
          "name": "value",
          "type": "uint256"
        }
      ],
      "name": "Transfer",
      "type": "event"
    },
    {
      "constant": false,
      "inputs": [],
      "name": "acceptOwnership",
      "outputs": [],
      "payable": false,
      "stateMutability": "nonpayable",
      "type": "function"
    },
    {
      "constant": false,
      "inputs": [
        {
          "name": "_disable",
          "type": "bool"
        }
      ],
      "name": "disableTransfers",
      "outputs": [],
      "payable": false,
      "stateMutability": "nonpayable",
      "type": "function"
    },
    {
      "constant": false,
      "inputs": [
        {
          "name": "_to",
          "type": "address"
        },
        {
          "name": "_amount",
          "type": "uint256"
        }
      ],
      "name": "issue",
      "outputs": [],
      "payable": false,
      "stateMutability": "nonpayable",
      "type": "function"
    },
    {
      "constant": false,
      "inputs": [
        {
          "name": "_from",
          "type": "address"
        },
        {
          "name": "_amount",
          "type": "uint256"
        }
      ],
      "name": "destroy",
      "outputs": [],
      "payable": false,
      "stateMutability": "nonpayable",
      "type": "function"
    }
  ],
  "bytecode": "0x60806040526000805460ff191690556007805460a060020a61ffff02191690553480156200002c57600080fd5b5060405162001bb438038062001bb483398101604090815281516020808401519284015191840180519094939093019284918491849162000073916001918601906200011a565b508151620000899060029060208501906200011a565b506003805460ff90921660ff19909216919091179055505060078054600160a060020a031916331790553415620000bf57600080fd5b60008351118015620000d2575060008251115b1515620000de57600080fd5b6040805130815290517ff4cd1f8571e8d9c97ffcb81558807ab73f9803d54de5da6a0420593c82a4a9f09181900360200190a1505050620001bf565b828054600181600116156101000203166002900490600052602060002090601f016020900481019282601f106200015d57805160ff19168380011785556200018d565b828001600101855582156200018d579182015b828111156200018d57825182559160200191906001019062000170565b506200019b9291506200019f565b5090565b620001bc91905b808211156200019b5760008155600101620001a6565b90565b6119e580620001cf6000396000f30060806040526004361061018a5763ffffffff7c010000000000000000000000000000000000000000000000000000000060003504166305d2035b811461019957806306fdde03146101c2578063095ea7b31461024c5780631608f18f1461027d57806317ffc3201461029957806318160ddd146102c757806323b872dd146102ee5780632aed7f3f14610325578063313ce567146103535780633f4ba83a1461037e57806340c10f191461039357806342966c68146103c45780634e71e0c8146103dc5780635c975abb146103f1578063661884631461040657806370a0823114610437578063715018a61461046557806379ba50971461047a5780637d64bcb41461048f5780638456cb59146104a4578063867904b4146104b95780638da5cb5b146104ea57806395d89b41146105285780639f727c271461053d578063a24835d114610552578063a9059cbb14610583578063c0ee0b8a146105b4578063d73dd623146105f2578063dd62ed3e14610623578063e30c397814610657578063f2fde38b1461066c575b34801561019657600080fd5b50005b3480156101a557600080fd5b506101ae61069a565b604080519115158252519081900360200190f35b3480156101ce57600080fd5b506101d76106bb565b6040805160208082528351818301528351919283929083019185019080838360005b838110156102115781810151838201526020016101f9565b50505050905090810190601f16801561023e5780820380516001836020036101000a031916815260200191505b509250505060405180910390f35b34801561025857600080fd5b506101ae73ffffffffffffffffffffffffffffffffffffffff60043516602435610766565b34801561028957600080fd5b5061029760043515156107a3565b005b3480156102a557600080fd5b5061029773ffffffffffffffffffffffffffffffffffffffff600435166107c1565b3480156102d357600080fd5b506102dc6108b6565b60408051918252519081900360200190f35b3480156102fa57600080fd5b506101ae73ffffffffffffffffffffffffffffffffffffffff600435811690602435166044356108bc565b34801561033157600080fd5b5061029773ffffffffffffffffffffffffffffffffffffffff600435166108fb565b34801561035f57600080fd5b506103686109b3565b6040805160ff9092168252519081900360200190f35b34801561038a57600080fd5b506102976109bc565b34801561039f57600080fd5b506101ae73ffffffffffffffffffffffffffffffffffffffff60043516602435610a5d565b3480156103d057600080fd5b50610297600435610bae565b3480156103e857600080fd5b50610297610bb8565b3480156103fd57600080fd5b506101ae610c74565b34801561041257600080fd5b506101ae73ffffffffffffffffffffffffffffffffffffffff60043516602435610c96565b34801561044357600080fd5b506102dc73ffffffffffffffffffffffffffffffffffffffff60043516610ccc565b34801561047157600080fd5b50610297610cf4565b34801561048657600080fd5b50610297610d87565b34801561049b57600080fd5b506101ae610d91565b3480156104b057600080fd5b50610297610e4e565b3480156104c557600080fd5b5061029773ffffffffffffffffffffffffffffffffffffffff60043516602435610f06565b3480156104f657600080fd5b506104ff610f97565b6040805173ffffffffffffffffffffffffffffffffffffffff9092168252519081900360200190f35b34801561053457600080fd5b506101d7610fb3565b34801561054957600080fd5b50610297611029565b34801561055e57600080fd5b5061029773ffffffffffffffffffffffffffffffffffffffff60043516602435611094565b34801561058f57600080fd5b506101ae73ffffffffffffffffffffffffffffffffffffffff6004351660243561111b565b3480156105c057600080fd5b506102976004803573ffffffffffffffffffffffffffffffffffffffff16906024803591604435918201910135611151565b3480156105fe57600080fd5b506101ae73ffffffffffffffffffffffffffffffffffffffff60043516602435611156565b34801561062f57600080fd5b506102dc73ffffffffffffffffffffffffffffffffffffffff6004358116906024351661118c565b34801561066357600080fd5b506104ff6111c4565b34801561067857600080fd5b5061029773ffffffffffffffffffffffffffffffffffffffff600435166111e0565b60075474010000000000000000000000000000000000000000900460ff1681565b60018054604080516020600284861615610100027fffffffffffffffffffffffffffffffffffffffffffffffffffffffffffffffff0190941693909304601f8101849004840282018401909252818152929183018282801561075e5780601f106107335761010080835404028352916020019161075e565b820191906000526020600020905b81548152906001019060200180831161074157829003601f168201915b505050505081565b6007546000907501000000000000000000000000000000000000000000900460ff161561079257600080fd5b61079c838361124b565b9392505050565b80156107b6576107b1610e4e565b6107be565b6107be6109bc565b50565b60075460009073ffffffffffffffffffffffffffffffffffffffff1633146107e857600080fd5b604080517f70a08231000000000000000000000000000000000000000000000000000000008152306004820152905173ffffffffffffffffffffffffffffffffffffffff8416916370a082319160248083019260209291908290030181600087803b15801561085657600080fd5b505af115801561086a573d6000803e3d6000fd5b505050506040513d602081101561088057600080fd5b50516007549091506108b29073ffffffffffffffffffffffffffffffffffffffff84811691168363ffffffff6112be16565b5050565b60055490565b6007546000907501000000000000000000000000000000000000000000900460ff16156108e857600080fd5b6108f384848461139d565b949350505050565b60075460009073ffffffffffffffffffffffffffffffffffffffff16331461092257600080fd5b50600754604080517ff2fde38b00000000000000000000000000000000000000000000000000000000815273ffffffffffffffffffffffffffffffffffffffff92831660048201529051839283169163f2fde38b91602480830192600092919082900301818387803b15801561099757600080fd5b505af11580156109ab573d6000803e3d6000fd5b505050505050565b60035460ff1681565b60075473ffffffffffffffffffffffffffffffffffffffff1633146109e057600080fd5b6007547501000000000000000000000000000000000000000000900460ff161515610a0a57600080fd5b600780547fffffffffffffffffffff00ffffffffffffffffffffffffffffffffffffffffff1690556040517f7805862f689e2f13df9f062ff482ad3ad112aca9e0847911ed832e158c525b3390600090a1565b60075460009073ffffffffffffffffffffffffffffffffffffffff163314610a8457600080fd5b60075474010000000000000000000000000000000000000000900460ff1615610aac57600080fd5b600554610abf908363ffffffff61157116565b60055573ffffffffffffffffffffffffffffffffffffffff8316600090815260046020526040902054610af8908363ffffffff61157116565b73ffffffffffffffffffffffffffffffffffffffff8416600081815260046020908152604091829020939093558051858152905191927f0f6798a560793a54c3bcfe86a93cde1e73087d944c0ea20544137d412139688592918290030190a260408051838152905173ffffffffffffffffffffffffffffffffffffffff8516916000917fddf252ad1be2c89b69c2b068fc378daa952ba7f163c4a11628f55a4df523b3ef9181900360200190a350600192915050565b6107be3382611584565b60085473ffffffffffffffffffffffffffffffffffffffff163314610bdc57600080fd5b60085460075460405173ffffffffffffffffffffffffffffffffffffffff92831692909116907f8be0079c531659141344cd1fd0a4f28419497f9722a3daafe3b4186f6b6457e090600090a360088054600780547fffffffffffffffffffffffff000000000000000000000000000000000000000090811673ffffffffffffffffffffffffffffffffffffffff841617909155169055565b6007547501000000000000000000000000000000000000000000900460ff1681565b6007546000907501000000000000000000000000000000000000000000900460ff1615610cc257600080fd5b61079c83836116c6565b73ffffffffffffffffffffffffffffffffffffffff1660009081526004602052604090205490565b60075473ffffffffffffffffffffffffffffffffffffffff163314610d1857600080fd5b60075460405173ffffffffffffffffffffffffffffffffffffffff909116907ff8df31144d9c2f0f6b59d69b8b98abd5459d07f2742c4df920b25aae33c6482090600090a2600780547fffffffffffffffffffffffff0000000000000000000000000000000000000000169055565b610d8f610bb8565b565b60075460009073ffffffffffffffffffffffffffffffffffffffff163314610db857600080fd5b60075474010000000000000000000000000000000000000000900460ff1615610de057600080fd5b600780547fffffffffffffffffffffff00ffffffffffffffffffffffffffffffffffffffff16740100000000000000000000000000000000000000001790556040517fae5184fba832cb2b1f702aca6117b8d265eaf03ad33eb133f19dde0f5920fa0890600090a150600190565b60075473ffffffffffffffffffffffffffffffffffffffff163314610e7257600080fd5b6007547501000000000000000000000000000000000000000000900460ff1615610e9b57600080fd5b600780547fffffffffffffffffffff00ffffffffffffffffffffffffffffffffffffffffff1675010000000000000000000000000000000000000000001790556040517f6985a02210a168e66602d3235cb6db0e70f92b3ba4d376a33c0f3d9434bff62590600090a1565b73ffffffffffffffffffffffffffffffffffffffff82161515610f2857600080fd5b73ffffffffffffffffffffffffffffffffffffffff8216301415610f4b57600080fd5b610f558282610a5d565b1515610f6057600080fd5b6040805182815290517f9386c90217c323f58030f9dadcbc938f807a940f4ff41cd4cead9562f5da7dc39181900360200190a15050565b60075473ffffffffffffffffffffffffffffffffffffffff1681565b600280546040805160206001841615610100027fffffffffffffffffffffffffffffffffffffffffffffffffffffffffffffffff01909316849004601f8101849004840282018401909252818152929183018282801561075e5780601f106107335761010080835404028352916020019161075e565b60075473ffffffffffffffffffffffffffffffffffffffff16331461104d57600080fd5b60075460405173ffffffffffffffffffffffffffffffffffffffff90911690303180156108fc02916000818181858888f193505050501580156107be573d6000803e3d6000fd5b60075473ffffffffffffffffffffffffffffffffffffffff1633146110b857600080fd5b73ffffffffffffffffffffffffffffffffffffffff821615156110da57600080fd5b6110e48282611584565b6040805182815290517f9a1b418bc061a5d80270261562e6986a35d995f8051145f277be16103abd34539181900360200190a15050565b6007546000907501000000000000000000000000000000000000000000900460ff161561114757600080fd5b61079c83836117ea565b600080fd5b6007546000907501000000000000000000000000000000000000000000900460ff161561118257600080fd5b61079c83836118f4565b73ffffffffffffffffffffffffffffffffffffffff918216600090815260066020908152604080832093909416825291909152205490565b60085473ffffffffffffffffffffffffffffffffffffffff1681565b60075473ffffffffffffffffffffffffffffffffffffffff16331461120457600080fd5b600880547fffffffffffffffffffffffff00000000000000000000000000000000000000001673ffffffffffffffffffffffffffffffffffffffff92909216919091179055565b33600081815260066020908152604080832073ffffffffffffffffffffffffffffffffffffffff8716808552908352818420869055815186815291519394909390927f8c5be1e5ebec7d5bd14f71427d1e84f3dd0314c0f7b2291e5b200ac8c7c3b925928290030190a350600192915050565b8273ffffffffffffffffffffffffffffffffffffffff1663a9059cbb83836040518363ffffffff167c0100000000000000000000000000000000000000000000000000000000028152600401808373ffffffffffffffffffffffffffffffffffffffff1673ffffffffffffffffffffffffffffffffffffffff16815260200182815260200192505050602060405180830381600087803b15801561136157600080fd5b505af1158015611375573d6000803e3d6000fd5b505050506040513d602081101561138b57600080fd5b5051151561139857600080fd5b505050565b600073ffffffffffffffffffffffffffffffffffffffff831615156113c157600080fd5b73ffffffffffffffffffffffffffffffffffffffff84166000908152600460205260409020548211156113f357600080fd5b73ffffffffffffffffffffffffffffffffffffffff8416600090815260066020908152604080832033845290915290205482111561143057600080fd5b73ffffffffffffffffffffffffffffffffffffffff8416600090815260046020526040902054611466908363ffffffff6119a716565b73ffffffffffffffffffffffffffffffffffffffff80861660009081526004602052604080822093909355908516815220546114a8908363ffffffff61157116565b73ffffffffffffffffffffffffffffffffffffffff80851660009081526004602090815260408083209490945591871681526006825282812033825290915220546114f9908363ffffffff6119a716565b73ffffffffffffffffffffffffffffffffffffffff808616600081815260066020908152604080832033845282529182902094909455805186815290519287169391927fddf252ad1be2c89b69c2b068fc378daa952ba7f163c4a11628f55a4df523b3ef929181900390910190a35060019392505050565b8181018281101561157e57fe5b92915050565b73ffffffffffffffffffffffffffffffffffffffff82166000908152600460205260409020548111156115b657600080fd5b73ffffffffffffffffffffffffffffffffffffffff82166000908152600460205260409020546115ec908263ffffffff6119a716565b73ffffffffffffffffffffffffffffffffffffffff8316600090815260046020526040902055600554611625908263ffffffff6119a716565b60055560408051828152905173ffffffffffffffffffffffffffffffffffffffff8416917fcc16f5dbb4873280815c1ee09dbd06736cffcc184412cf7a71a0fdb75d397ca5919081900360200190a260408051828152905160009173ffffffffffffffffffffffffffffffffffffffff8516917fddf252ad1be2c89b69c2b068fc378daa952ba7f163c4a11628f55a4df523b3ef9181900360200190a35050565b33600090815260066020908152604080832073ffffffffffffffffffffffffffffffffffffffff86168452909152812054808311156117355733600090815260066020908152604080832073ffffffffffffffffffffffffffffffffffffffff88168452909152812055611777565b611745818463ffffffff6119a716565b33600090815260066020908152604080832073ffffffffffffffffffffffffffffffffffffffff891684529091529020555b33600081815260066020908152604080832073ffffffffffffffffffffffffffffffffffffffff89168085529083529281902054815190815290519293927f8c5be1e5ebec7d5bd14f71427d1e84f3dd0314c0f7b2291e5b200ac8c7c3b925929181900390910190a35060019392505050565b600073ffffffffffffffffffffffffffffffffffffffff8316151561180e57600080fd5b3360009081526004602052604090205482111561182a57600080fd5b3360009081526004602052604090205461184a908363ffffffff6119a716565b336000908152600460205260408082209290925573ffffffffffffffffffffffffffffffffffffffff851681522054611889908363ffffffff61157116565b73ffffffffffffffffffffffffffffffffffffffff84166000818152600460209081526040918290209390935580518581529051919233927fddf252ad1be2c89b69c2b068fc378daa952ba7f163c4a11628f55a4df523b3ef9281900390910190a350600192915050565b33600090815260066020908152604080832073ffffffffffffffffffffffffffffffffffffffff86168452909152812054611935908363ffffffff61157116565b33600081815260066020908152604080832073ffffffffffffffffffffffffffffffffffffffff89168085529083529281902085905580519485525191937f8c5be1e5ebec7d5bd14f71427d1e84f3dd0314c0f7b2291e5b200ac8c7c3b925929081900390910190a350600192915050565b6000828211156119b357fe5b509003905600a165627a7a723058201b33dbb44d426fa44092c0d50980982ef749177743805f378f72ba5693ad70840029",
  "source": "pragma solidity ^0.4.24;\r\n\r\nimport \"bancor-contracts/solidity/contracts/token/interfaces/ISmartToken.sol\";\r\nimport \"openzeppelin-solidity/contracts/ownership/NoOwner.sol\";\r\nimport \"openzeppelin-solidity/contracts/ownership/Claimable.sol\";\r\nimport \"openzeppelin-solidity/contracts/token/ERC20/BurnableToken.sol\";\r\nimport \"openzeppelin-solidity/contracts/token/ERC20/DetailedERC20.sol\";\r\nimport \"openzeppelin-solidity/contracts/token/ERC20/PausableToken.sol\";\r\nimport \"openzeppelin-solidity/contracts/token/ERC20/MintableToken.sol\";\r\nimport \"openzeppelin-solidity/contracts/token/ERC20/ERC20.sol\";\r\nimport \"../IMintable.sol\";\r\n\r\n/**\r\n    BancorSmartToken\r\n*/\r\ncontract SmartToken is ERC20, IMintable, ISmartToken, DetailedERC20, BurnableToken, MintableToken, PausableToken, Claimable, NoOwner {\r\n\r\n    event NewSmartToken(address _token);\r\n    event Issuance(uint256 _amount);\r\n    event Destruction(uint256 _amount);\r\n\r\n\r\n    constructor(string _name, string _symbol, uint8 _decimals) public DetailedERC20(_name, _symbol, _decimals) {\r\n        require(bytes(_name).length > 0 && bytes(_symbol).length > 0);\r\n        emit NewSmartToken(address(this));\r\n    }\r\n\r\n    function acceptOwnership() public {\r\n        super.claimOwnership();\r\n    }\r\n\r\n    function disableTransfers(bool _disable) public {\r\n        if(_disable) {\r\n            super.pause();\r\n        }\r\n        else {\r\n            super.unpause();\r\n        }\r\n    }\r\n\r\n    function issue(address _to, uint256 _amount) public {\r\n        require(_to != address(0));\r\n        require(_to != address(this));\r\n        require(super.mint(_to, _amount));\r\n        emit Issuance(_amount);\r\n    }\r\n\r\n    function destroy(address _from, uint256 _amount) public onlyOwner {\r\n        require(_from != address(0));\r\n        super._burn(_from, _amount);\r\n        emit Destruction(_amount);\r\n    }\r\n}\r\n",
  "sourcePath": "D:\\Vlad\\CryptoCurrency\\Truffle Projects\\Game_Starter\\contracts\\token\\bancor\\SmartToken.sol",
  "compiler": {
    "name": "solc",
    "version": "0.4.24+commit.e67f0147.Emscripten.clang"
  },
  "schemaVersion": "2.0.1",
  "updatedAt": "2018-07-24T08:59:53.346Z"
}