{
  "contractName": "TutorialToken",
  "abi": [
    {
      "constant": true,
      "inputs": [],
      "name": "name",
      "outputs": [
        {
          "name": "",
          "type": "string"
        }
      ],
      "payable": false,
      "stateMutability": "view",
      "type": "function"
    },
    {
      "constant": false,
      "inputs": [
        {
          "name": "_spender",
          "type": "address"
        },
        {
          "name": "_value",
          "type": "uint256"
        }
      ],
      "name": "approve",
      "outputs": [
        {
          "name": "",
          "type": "bool"
        }
      ],
      "payable": false,
      "stateMutability": "nonpayable",
      "type": "function"
    },
    {
      "constant": true,
      "inputs": [],
      "name": "totalSupply",
      "outputs": [
        {
          "name": "",
          "type": "uint256"
        }
      ],
      "payable": false,
      "stateMutability": "view",
      "type": "function"
    },
    {
      "constant": false,
      "inputs": [
        {
          "name": "_from",
          "type": "address"
        },
        {
          "name": "_to",
          "type": "address"
        },
        {
          "name": "_value",
          "type": "uint256"
        }
      ],
      "name": "transferFrom",
      "outputs": [
        {
          "name": "",
          "type": "bool"
        }
      ],
      "payable": false,
      "stateMutability": "nonpayable",
      "type": "function"
    },
    {
      "constant": true,
      "inputs": [],
      "name": "INITIAL_SUPPLY",
      "outputs": [
        {
          "name": "",
          "type": "uint256"
        }
      ],
      "payable": false,
      "stateMutability": "view",
      "type": "function"
    },
    {
      "constant": true,
      "inputs": [],
      "name": "decimals",
      "outputs": [
        {
          "name": "",
          "type": "uint8"
        }
      ],
      "payable": false,
      "stateMutability": "view",
      "type": "function"
    },
    {
      "constant": false,
      "inputs": [
        {
          "name": "_spender",
          "type": "address"
        },
        {
          "name": "_subtractedValue",
          "type": "uint256"
        }
      ],
      "name": "decreaseApproval",
      "outputs": [
        {
          "name": "",
          "type": "bool"
        }
      ],
      "payable": false,
      "stateMutability": "nonpayable",
      "type": "function"
    },
    {
      "constant": true,
      "inputs": [
        {
          "name": "_owner",
          "type": "address"
        }
      ],
      "name": "balanceOf",
      "outputs": [
        {
          "name": "",
          "type": "uint256"
        }
      ],
      "payable": false,
      "stateMutability": "view",
      "type": "function"
    },
    {
      "constant": true,
      "inputs": [],
      "name": "symbol",
      "outputs": [
        {
          "name": "",
          "type": "string"
        }
      ],
      "payable": false,
      "stateMutability": "view",
      "type": "function"
    },
    {
      "constant": false,
      "inputs": [
        {
          "name": "_to",
          "type": "address"
        },
        {
          "name": "_value",
          "type": "uint256"
        }
      ],
      "name": "transfer",
      "outputs": [
        {
          "name": "",
          "type": "bool"
        }
      ],
      "payable": false,
      "stateMutability": "nonpayable",
      "type": "function"
    },
    {
      "constant": false,
      "inputs": [
        {
          "name": "_spender",
          "type": "address"
        },
        {
          "name": "_addedValue",
          "type": "uint256"
        }
      ],
      "name": "increaseApproval",
      "outputs": [
        {
          "name": "",
          "type": "bool"
        }
      ],
      "payable": false,
      "stateMutability": "nonpayable",
      "type": "function"
    },
    {
      "constant": true,
      "inputs": [
        {
          "name": "_owner",
          "type": "address"
        },
        {
          "name": "_spender",
          "type": "address"
        }
      ],
      "name": "allowance",
      "outputs": [
        {
          "name": "",
          "type": "uint256"
        }
      ],
      "payable": false,
      "stateMutability": "view",
      "type": "function"
    },
    {
      "inputs": [],
      "payable": false,
      "stateMutability": "nonpayable",
      "type": "constructor"
    },
    {
      "anonymous": false,
      "inputs": [
        {
          "indexed": true,
          "name": "owner",
          "type": "address"
        },
        {
          "indexed": true,
          "name": "spender",
          "type": "address"
        },
        {
          "indexed": false,
          "name": "value",
          "type": "uint256"
        }
      ],
      "name": "Approval",
      "type": "event"
    },
    {
      "anonymous": false,
      "inputs": [
        {
          "indexed": true,
          "name": "from",
          "type": "address"
        },
        {
          "indexed": true,
          "name": "to",
          "type": "address"
        },
        {
          "indexed": false,
          "name": "value",
          "type": "uint256"
        }
      ],
      "name": "Transfer",
      "type": "event"
    }
  ],
  "bytecode": "0x60c0604052600e60808190527f5475746f7269616c20546f6b656e00000000000000000000000000000000000060a090815261003e91600391906100c1565b506040805180820190915260038082527f54555400000000000000000000000000000000000000000000000000000000006020909201918252610083916004916100c1565b506005805460ff19166002179055612ee06006553480156100a357600080fd5b5060065460018190553360009081526020819052604090205561015c565b828054600181600116156101000203166002900490600052602060002090601f016020900481019282601f1061010257805160ff191683800117855561012f565b8280016001018555821561012f579182015b8281111561012f578251825591602001919060010190610114565b5061013b92915061013f565b5090565b61015991905b8082111561013b5760008155600101610145565b90565b610a448061016b6000396000f3006080604052600436106100b95763ffffffff7c010000000000000000000000000000000000000000000000000000000060003504166306fdde0381146100be578063095ea7b31461014857806318160ddd1461018d57806323b872dd146101b45780632ff2e9dc146101eb578063313ce56714610200578063661884631461022b57806370a082311461025c57806395d89b411461028a578063a9059cbb1461029f578063d73dd623146102d0578063dd62ed3e14610301575b600080fd5b3480156100ca57600080fd5b506100d3610335565b6040805160208082528351818301528351919283929083019185019080838360005b8381101561010d5781810151838201526020016100f5565b50505050905090810190601f16801561013a5780820380516001836020036101000a031916815260200191505b509250505060405180910390f35b34801561015457600080fd5b5061017973ffffffffffffffffffffffffffffffffffffffff600435166024356103e1565b604080519115158252519081900360200190f35b34801561019957600080fd5b506101a2610454565b60408051918252519081900360200190f35b3480156101c057600080fd5b5061017973ffffffffffffffffffffffffffffffffffffffff6004358116906024351660443561045a565b3480156101f757600080fd5b506101a261062c565b34801561020c57600080fd5b50610215610632565b6040805160ff9092168252519081900360200190f35b34801561023757600080fd5b5061017973ffffffffffffffffffffffffffffffffffffffff6004351660243561063b565b34801561026857600080fd5b506101a273ffffffffffffffffffffffffffffffffffffffff6004351661075f565b34801561029657600080fd5b506100d3610787565b3480156102ab57600080fd5b5061017973ffffffffffffffffffffffffffffffffffffffff60043516602435610800565b3480156102dc57600080fd5b5061017973ffffffffffffffffffffffffffffffffffffffff60043516602435610908565b34801561030d57600080fd5b506101a273ffffffffffffffffffffffffffffffffffffffff600435811690602435166109bb565b6003805460408051602060026001851615610100027fffffffffffffffffffffffffffffffffffffffffffffffffffffffffffffffff0190941693909304601f810184900484028201840190925281815292918301828280156103d95780601f106103ae576101008083540402835291602001916103d9565b820191906000526020600020905b8154815290600101906020018083116103bc57829003601f168201915b505050505081565b33600081815260026020908152604080832073ffffffffffffffffffffffffffffffffffffffff8716808552908352818420869055815186815291519394909390927f8c5be1e5ebec7d5bd14f71427d1e84f3dd0314c0f7b2291e5b200ac8c7c3b925928290030190a350600192915050565b60015490565b600073ffffffffffffffffffffffffffffffffffffffff8316151561047e57600080fd5b73ffffffffffffffffffffffffffffffffffffffff84166000908152602081905260409020548211156104b057600080fd5b73ffffffffffffffffffffffffffffffffffffffff841660009081526002602090815260408083203384529091529020548211156104ed57600080fd5b73ffffffffffffffffffffffffffffffffffffffff8416600090815260208190526040902054610523908363ffffffff6109f316565b73ffffffffffffffffffffffffffffffffffffffff8086166000908152602081905260408082209390935590851681522054610565908363ffffffff610a0516565b73ffffffffffffffffffffffffffffffffffffffff8085166000908152602081815260408083209490945591871681526002825282812033825290915220546105b4908363ffffffff6109f316565b73ffffffffffffffffffffffffffffffffffffffff808616600081815260026020908152604080832033845282529182902094909455805186815290519287169391927fddf252ad1be2c89b69c2b068fc378daa952ba7f163c4a11628f55a4df523b3ef929181900390910190a35060019392505050565b60065481565b60055460ff1681565b33600090815260026020908152604080832073ffffffffffffffffffffffffffffffffffffffff86168452909152812054808311156106aa5733600090815260026020908152604080832073ffffffffffffffffffffffffffffffffffffffff881684529091528120556106ec565b6106ba818463ffffffff6109f316565b33600090815260026020908152604080832073ffffffffffffffffffffffffffffffffffffffff891684529091529020555b33600081815260026020908152604080832073ffffffffffffffffffffffffffffffffffffffff89168085529083529281902054815190815290519293927f8c5be1e5ebec7d5bd14f71427d1e84f3dd0314c0f7b2291e5b200ac8c7c3b925929181900390910190a35060019392505050565b73ffffffffffffffffffffffffffffffffffffffff1660009081526020819052604090205490565b6004805460408051602060026001851615610100027fffffffffffffffffffffffffffffffffffffffffffffffffffffffffffffffff0190941693909304601f810184900484028201840190925281815292918301828280156103d95780601f106103ae576101008083540402835291602001916103d9565b600073ffffffffffffffffffffffffffffffffffffffff8316151561082457600080fd5b3360009081526020819052604090205482111561084057600080fd5b33600090815260208190526040902054610860908363ffffffff6109f316565b336000908152602081905260408082209290925573ffffffffffffffffffffffffffffffffffffffff85168152205461089f908363ffffffff610a0516565b73ffffffffffffffffffffffffffffffffffffffff8416600081815260208181526040918290209390935580518581529051919233927fddf252ad1be2c89b69c2b068fc378daa952ba7f163c4a11628f55a4df523b3ef9281900390910190a350600192915050565b33600090815260026020908152604080832073ffffffffffffffffffffffffffffffffffffffff86168452909152812054610949908363ffffffff610a0516565b33600081815260026020908152604080832073ffffffffffffffffffffffffffffffffffffffff89168085529083529281902085905580519485525191937f8c5be1e5ebec7d5bd14f71427d1e84f3dd0314c0f7b2291e5b200ac8c7c3b925929081900390910190a350600192915050565b73ffffffffffffffffffffffffffffffffffffffff918216600090815260026020908152604080832093909416825291909152205490565b6000828211156109ff57fe5b50900390565b81810182811015610a1257fe5b929150505600a165627a7a723058203639d88f2535c089f81aa556743000e4865857482c735463686f7c005b9909970029",
  "source": "pragma solidity ^0.4.24;\r\n\r\nimport \"openzeppelin-solidity/contracts/token/ERC20/StandardToken.sol\";\r\n\r\ncontract TutorialToken is StandardToken {\r\n    string public name = \"Tutorial Token\";\r\n    string public symbol = \"TUT\";\r\n    uint8 public decimals = 2;\r\n    uint public INITIAL_SUPPLY = 12000;\r\n\r\n    constructor() public {\r\n        totalSupply_ = INITIAL_SUPPLY;\r\n        balances[msg.sender] = INITIAL_SUPPLY;\r\n    }\r\n}\r\n",
  "sourcePath": "D:\\Vlad\\CryptoCurrency\\Truffle Projects\\Game_Starter\\contracts\\token\\TutorialToken.sol",
  "compiler": {
    "name": "solc",
    "version": "0.4.24+commit.e67f0147.Emscripten.clang"
  },
  "schemaVersion": "2.0.1",
  "updatedAt": "2018-07-24T09:00:05.220Z"
}